:1000000015C100000C943D2C0C94122C0C94E72B81
:100010000C94BC2B0C94912B0C94662B0C943B2BC6
:100020000C94102B0C943D180C943D180C943D1816
:100030002EC100002CC100002AC1000028C1000010
:1000400026C1000024C1000022C1000020C1000020
:100050001EC100001CC100001AC100000C94830ED8
:1000600016C100000C94042D0C94DB2C10C1000070
:100070000EC100000CC100000AC1000008C1000050
:1000800006C1000004C1000002C1000000C1000060
:100090000C94A62C0C947D2CFAC000000C94F4094E
:1000A000F6C00000F4C00000F2C00000F0C0000084
:1000B000EEC00000ECC00000EAC00000E8C0000094
:1000C000E6C00000E4C00000E2C00000E0C00000A4
:1000D000DEC00000DCC00000DAC00000D8C00000B4
:1000E000D6C000009B2F9E2F8D2F912F972FD52F9D
:1000F000A22FA62FAC2FB02FB42FBA2FBE2FC22FF6
:10010000D52FC82FCC2FD02F00002100240027008E
:100110002A002D0030003300010100000401070116
:100120000A01000020002300260029002C002F00D7
:100130003200000100000301060109010000220055
:10014000250028002B002E003100340002010000A1
:10015000050108010B010505050507050808080844
:10016000020202020A0A080804040404010101014F
:10017000010101010303030303030303040707074A
:100180000C0C0C0C0C0C0C0C0202020206060606EF
:10019000060606060B0B0B0B0B0B0B0B01021020BC
:1001A00020080810204010204080020102010804AD
:1001B0000201010204081020408080402010080441
:1001C000020180040201804020100804020108049A
:1001D00002010102040810204080010204081020DE
:1001E000408000000A0B02090C0D0E0807030401F1
:1001F00000000000000000000000000000000000FF
:1002000000000000000000000000000000001211CB
:1002100010000000000000000000000000000000CE
:100220000000000000000000A238663311241FBE49
:10023000CFEFD1E2DEBFCDBF00E00CBF15E0A0E004
:10024000B2E0E8E1F0E800E00BBF02C007900D92D9
:10025000AA3CB107D9F72EE0AAECB5E001C01D9287
:10026000AE36B207E1F711E0C5E1D1E000E006C02B
:1002700021970109802FFE010E94A13AC431D107C4
:1002800080E00807A9F70E9467330C94FB3FB8CEC3
:100290002F923F924F925F926F927F928F929F9296
:1002A000AF92BF92CF92DF92EF92FF920F931F9384
:1002B000CF93DF93CDB7DEB765970FB6F894DEBF67
:1002C0000FBECDBF81E0898388E08A8384E893E014
:1002D0009C838B831E821D821A8619861C861B8630
:1002E00018861F82BE01635F7F4FCE0101965C01BD
:1002F0000E943B14CD84DE84EF84F888DD24EE2454
:10030000FF2480911106909112060097A1F0DC0164
:100310001B961C921E921A971D961C921E921C9759
:10032000DC01ED91FC910480F581E02D199510928E
:10033000120610921106B2E0CB16D104E104F104CA
:1003400009F445C130F4CA94CD28CE28CF2881F0D5
:1003500077C473E0C716D104E104F10409F4F7C2CD
:1003600084E0C816D104E104F10409F4C2C368C4EE
:100370008CE190E00E946A3E8C012091130630913E
:10038000140699249394DC0112969C92129713966A
:100390001C92139788E993E015969C938E9314977B
:1003A00017961C921E92169719961C921E921897D9
:1003B0008DE29FE01B969C938E931A971D961C933B
:1003C0000E931C973801BEE06B0E711C80911602D3
:1003D00090911702AC014F5F5F4F5093170240930B
:1003E0001602F801918B808B8EE992E091838083D5
:1003F00080EB92E097878687338F228F8FE090E0A3
:100400000E946A3E7C01DC0112969C92129782E067
:1004100013968C93139781EA93E015969C938E9391
:10042000149717961C921E92169719961C921E925C
:1004300018971E969C921E9788ED92E08D939C9340
:10044000F801F58AE48A8FE090E00E946A3E5C0140
:10045000DC0112969C92129786E013968C93139768
:1004600086EA93E015969C938E93149717961C92A8
:100470001E92169719961C921E9218971E969C9281
:100480001E9788EC92E08D939C93F801B18EA08E1C
:100490008FE090E00E946A3E6C01DC0112969C9213
:1004A000129785E013968C93139789EA93E015963B
:1004B0009C938E93149717961C921E9216971996DA
:1004C0001C921E9218971E969C921E9782E292E0B2
:1004D0008D939C93F801D78AC68A8FE090E00E94A2
:1004E0006A3EFC01928293828DEA93E09583848335
:1004F000178216821186108696868AEE92E0918384
:100500008083D8015396FC93EE93529788E491E050
:10051000938782871587048721E931E3F5013387C3
:1005200022871587048726EC31E3D6011B963C937E
:100530002E931A971D961C930E931C97F701938781
:100540008287158704870E94123385E00E94543306
:10055000C801029690931E0680931D06D8015896F6
:100560008D919C915997009709F0029690932006DF
:1005700080931F06F80186899789009709F00296F3
:100580009093220680932106D80152968D919C91DA
:100590005397009709F002969093240680932306C0
:1005A000F80184899589009709F0029690932606B0
:1005B000809325061092280610922706B301D801D1
:1005C0005A968D919C915B970E94381E40C3E09192
:1005D0001306F0911406E780F08489E290E00E940F
:1005E0006A3E8C0162E0D62EFC01D28213828AEB35
:1005F00093E09583848317821682118610868DE29C
:100600009FE093878287158704874801FEE08F0E5D
:10061000911C80911402909115029C012F5F3F4F15
:100620003093150220931402D80151969C938E9317
:1006300050978CEF92E011969C938E938CE093E010
:100640001F969C938E931E975E96FC92EE925D97FA
:100650005C961C928FE090E00E946A3EFC01D28280
:1006600084E2838383EC93E09583848317821682EC
:10067000138612861586148611861086CC24C394A0
:10068000C6867AEEE72E72E0F72EF182E082D8017C
:100690009696FC93EE9395978FE090E00E946A3EC9
:1006A000FC01D28285E283838BEC93E09583848383
:1006B0001782168213861286158614861186108676
:1006C000C686F182E082D8019496FC93EE939397CC
:1006D0008FE090E00E946A3EFC01D28282E2838336
:1006E00082ED93E0958384831782168213861286A7
:1006F0001586148611861086C686F182E082D8019E
:100700009096FC93EE935F978FE090E00E946A3E94
:10071000FC01D28280E283838CED93E09583848315
:100720001782168213861286158614861186108605
:10073000C686F182E082D8019296FC93EE9391975F
:100740008FE090E00E946A3EFC01D28283E28383C4
:1007500087EE93E095838483178216821386128630
:100760001586148611861086C686F182E082D8012D
:100770009896FC93EE9397976801B2E1CB0ED11C4B
:10078000360146E0E12CF12C52E061E0EAE22E2E47
:10079000E2E03E2E28E431E0F3011182108283E092
:1007A00090E02C8B3D8B498B5A8B6B8B0E946A3E61
:1007B0002C01DC01EC92FF92EF92ABE4B5E0BF9329
:1007C000AF93BF92AF920E94A13B8FE090E00E9456
:1007D0006A3EFC015A89528349894383B582A482C7
:1007E00017821682118610866B8966873182208275
:1007F000D20112969C938E931197D3014D925D92E4
:100800003D0188E491E02C893D8933872287158753
:100810000487BFEFEB1AFB0A4A5F0F900F900F900F
:100820000F900F900F90443209F0B6CFD8019796F1
:10083000ED91FC9198979387828715870487959609
:10084000ED91FC91969793878287158704879196FF
:10085000ED91FC91929789E694E2938782871587C0
:1008600004875F96ED91FC91909785E694E29387DB
:100870008287158704879396ED91FC91949785ED77
:1008800093E293878287158704870E9412338BE057
:100890000E945433C801029690931E0680931D0651
:1008A000F80185A196A1009709F002969093200681
:1008B00080931F06D8015F968D919C919097009729
:1008C00009F002969093220680932106F80181A1F7
:1008D00092A1009709F00296909324068093230634
:1008E000D80193968D919C919497009709F0029668
:1008F0009093260680932506F80187A190A500977E
:1009000009F002969093280680932706E9E2F6E024
:100910009801245E3F4FD6018D919D916D01DC01C0
:1009200011968D919C911297009709F002968193F0
:100930009193C216D30679F71092340610923306BB
:10094000B401F801858D968D0E94E01A80C1E09176
:100950001306F0911406E780F08488E190E00E948D
:100960006A3E8C0143E0B42EDC011296BC921297D1
:1009700013961C9213978FEE93E015969C938E938B
:10098000149717961C921E92169719961C921E92F7
:1009900018978DE29FE01B969C938E931A971D9655
:1009A0001C930E931C978EE793E011969C938E9365
:1009B0001F96FC92EE921E978FE090E00E946A3E96
:1009C0006C01FC01B28286E1838385EF93E095831D
:1009D00084831782168211861086AA24A394A68681
:1009E0005AEE852E52E0952E91828082D801519642
:1009F000DC92CE9250978FE090E00E946A3E7C019C
:100A0000FC01B28288E183838FEF93E09583848336
:100A10001782168211861086A68691828082D8015E
:100A20005396FC92EE9252978FE090E00E946A3EBD
:100A3000FC01B28283E1838386E094E09583848322
:100A4000178216821586148611861086A6869182D4
:100A50008082D8015596FC93EE93549757961C923A
:100A6000579756961C9288E491E09387828781E697
:100A700090E2F601938782871587048781E590E2EB
:100A8000D7011B969C938E931A971D961C930E93D9
:100A90001C970E94123385E00E945433C8010296CD
:100AA00090931E0680931D06F8018489958900970E
:100AB00009F002969093200680931F06D801529663
:100AC0008D919C915397009709F00296909322067E
:100AD00080932106F80180899189009709F0029698
:100AE00090932406809323061092260610922506E2
:100AF000AEC084E190E00E946A3E8C0180911306B2
:100B00009091140624E0F22ED8011296FC921297CE
:100B100013961C92139729E034E015963C932E937C
:100B2000149717961C921E92169719961C921E9255
:100B300018972DE23FE01B963C932E931A971D9633
:100B40001C930E931C9720EE32E011963C932E934B
:100B50001F969C938E931E978FE090E00E946A3EB2
:100B6000FC01F2828EE0838386E094E095838483A7
:100B700017821682138612861586148611861086B1
:100B8000EE24E394E6863AEEC32E32E0D32ED182F1
:100B9000C082D8015396FC93EE9352978FE090E079
:100BA0000E946A3EFC01F2828FE0838382E194E03E
:100BB000958384831782168213861286158614867F
:100BC00011861086E686D182C082D8015196FC93A8
:100BD000EE9350970E94123384E00E945433F80140
:100BE000A289B38988E491E01B969C938E931A970F
:100BF0001D961C930E931C972089318980E795E2FE
:100C0000F9019387828715870487C801029690931C
:100C10001E0680931D06109709F01296B0932006C9
:100C2000A0931F062115310511F02E5F3F4F309321
:100C3000220620932106109224061092230607C054
:100C400080E190E00E946A3E8C010E943D27109353
:100C500012060093110680911106909112060296D9
:100C60000E94B01465960FB6F894DEBF0FBECDBFDC
:100C7000DF91CF911F910F91FF90EF90DF90CF9078
:100C8000BF90AF909F908F907F906F905F904F90AC
:100C90003F902F9008950895E091AA088091A908A7
:100CA000E81730F4F0E0E555F74F808190E00895C3
:100CB0008FEF9FEF08959091AA088091A908981747
:100CC00050F4E92FF0E0E555F74F208130E09F5FC9
:100CD0009093AA0802C02FEF3FEFC90108958091B9
:100CE000A90890E02091AA08821B9109089585ED3A
:100CF0008093BC008091BC0084FDFCCF1092A808BA
:100D000008954091EC05262F30E0240F311D21324B
:100D10003105DCF42091A8082430C9F4FC0180E0FE
:100D200090E0861758F43091EC052191DC01A65330
:100D3000BA4FA30FB11D2C930196F3CF8091EC0510
:100D4000680F6093EC0580E0089581E0089582E0EB
:100D50000895CF92DF92EF92FF920F931F93CF935C
:100D6000DF937C01262F972F8A0180915E088823CC
:100D700091F0C62FD72F6E01C40ED51ECC15DD0500
:100D800069F06991D701ED91FC910190F081E02D1E
:100D9000C7011995F3CF642F822FB3DFC801DF910C
:100DA000CF911F910F91FF90EF90DF90CF9008951A
:100DB000CF93DF931F92CDB7DEB7698320915E0892
:100DC0002223D1F020918108203240F021E030E050
:100DD000FC013383228380E090E014C080915F089F
:100DE000E82FF0E0E05AF74F998190838F5F80936E
:100DF0005F088093810804C061E0CE01019681DF25
:100E000081E090E00F90DF91CF91089508950895CB
:100E10000895CF92DF92EF92FF920F931F93CF939B
:100E2000DF93CDB7DEB72C970FB6F894DEBF0FBEB9
:100E3000CDBF2C960FB6F894DEBF0FBECDBFDF91AD
:100E4000CF911F910F91FF90EF90DF90CF90089579
:100E5000CF93DF9300D000D0CDB7DEB726960FB684
:100E6000F894DEBF0FBECDBFDF91CF910895CF9331
:100E7000DF9300D000D0CDB7DEB726960FB6F8943A
:100E8000DEBF0FBECDBFDF91CF91089508950895C5
:100E9000EF92FF920F931F93CF93DF93CDB7DEB7FF
:100EA00029970FB6F894DEBF0FBECDBF29960FB6B7
:100EB000F894DEBF0FBECDBFDF91CF911F910F9190
:100EC000FF90EF900895DC0114968D919C911597F9
:100ED000009739F0DC01ED91FC910480F581E02D63
:100EE000199408956F927F928F929F92AF92BF92C2
:100EF000CF92DF92EF92FF920F931F93CF93DF93E6
:100F0000CDB7DEB72C970FB6F894DEBF0FBECDBFBE
:100F10005C01622E2983732E3A83842E4B83952E97
:100F20005C836D837E83CF82D886E986FA860B87C1
:100F30001C87FC0184819581FC0120813181F901AC
:100F4000048515859301A401F8011995D50114961E
:100F50008D919C911597DC01ED91FC910284F385B4
:100F6000E02D2F81388549855A856B857C852C96A7
:100F70000FB6F894DEBF0FBECDBFDF91CF911F91AA
:100F80000F91FF90EF90DF90CF90BF90AF909F9028
:100F90008F907F906F901994CF92DF92EF92FF9293
:100FA0000F931F93CF93DF9300D000D0CDB7DEB760
:100FB000E22E2983F32E3A83042F4B83152F5C8373
:100FC0006D837E83FC0184819581FC0120813181C8
:100FD000F901C484D5849701A801F60126960FB6BD
:100FE000F894DEBF0FBECDBFDF91CF911F910F915F
:100FF000FF90EF90DF90CF901994CF92DF92EF9215
:10100000FF920F931F93CF93DF9300D000D0CDB703
:10101000DEB7E22E2983F32E3A83042F4B83152F5C
:101020005C836D837E83FC0184819581FC0120813A
:101030003181F901C284D3849701A801F601269673
:101040000FB6F894DEBF0FBECDBFDF91CF911F91D9
:101050000F91FF90EF90DF90CF9019940C94FF3E8A
:101060000C94FF3E0C94FF3E0C94FF3EEF92FF92D7
:101070000F931F93CF93DF93CDB7DEB7C557D10939
:101080000FB6F894DEBF0FBECDBFAE96EFAEAE97F3
:10109000AF96FFAEAF97E0960FAFE097E1961FAF28
:1010A000E197E2962FAFE297E3963FAFE397E4969E
:1010B0004FAFE497E5965FAFE597E6966FAFE6979B
:1010C00080911B0690911C060E94701D0E94FF3E9D
:1010D00088E0FE01E359FF4FDE01AB59BF4F01909D
:1010E0000D928A95E1F7AD968FADAD978F93AC9643
:1010F0008FADAC978F93A7968FADA7971F928F93C5
:10110000A6968FADA6971F928F93E6968FADE69722
:101110001F928F9385E194E09F938F93CE01019668
:101120009F938F930E94A13B0FB6F894DEBF0FBE32
:10113000CDBFCB58DF4F0FB6F894DEBF0FBECDBF8B
:10114000DF91CF911F910F91FF90EF900895EF9253
:10115000FF921F93CF93DF93DC011B962C912617F0
:1011600061F1162FEC016B870E94D61B81110FC015
:101170008B85882321F0CE010E94401C08C08D8100
:101180009E81009721F00E94FF3E1E821D827E01FB
:10119000BDE0EB0EF11C6796F701819191917F0103
:1011A000009741F0DC01ED91FC910190F081E02D80
:1011B000612F1995EC16FD0679F7DF91CF911F91FC
:1011C000FF90EF9008950F931F93CF93DF93CDB7C8
:1011D000DEB72C970FB6F894DEBF0FBECDBF81E00F
:1011E00080935E0888E68093800810925F081092D2
:1011F000810860E087E09DE0DBDD0E94BD2D88E096
:1012000090E00E94742D87E09DE055DD9C0133271E
:1012100094E0359527959A95E1F71AEF782F129F6C
:10122000700D112487E09DE07C8745DD9C0133270C
:1012300044E0359527954A95E1F7682F129F600D98
:10124000112487E09DE06B8736DD8F73982F929590
:101250009F70582F919F500D112487E09DE05A8771
:101260002ADD082F87E09DE026DD9C01992754E0C8
:10127000959587955A95E1F7422F189F400D1124B7
:1012800087E09DE0498717DD9C01992764E09595EB
:1012900087956A95E1F7322F189F300D112487E06A
:1012A0009DE0388708DDDC01BB2774E0B595A79584
:1012B0007A95E1F7282F1A9F200D1124388549854A
:1012C0005A856B857C85802F90E02C960FB6F8941C
:1012D000DEBF0FBECDBFDF91CF911F910F9108955B
:1012E000CF93DF931F92CDB7DEB781E080935E0886
:1012F00088E68093800810925F081092810887E04A
:101300009DE0498355DD4981642F87E09DE050DDF4
:101310000F90DF91CF910C94BD2D81E080935E08FA
:1013200088E68093800810925F081092810887E019
:101330009DE03EDD0E94BD2D81E090E00E94742D75
:1013400087E09DE0B8CCCF93DF93EC014CE16EE0F9
:10135000C7DF6AE070E080E090E00E94053062E064
:10136000CE01DBDF482F4F7B62E0CE01B9DF6AE0C0
:1013700070E080E090E00E94053081E0DF91CF9145
:101380000895CF93DF93EC0182E692E099838883FE
:1013900089859A85D8DFFE01CE010A962585368596
:1013A000232B11F0168615863296E817F907B1F748
:1013B0008D819E81009721F00E94FF3E1E821D823A
:1013C00089859A85009721F0DF91CF910C94FF3E9B
:1013D000DF91CF910895CF93DF93EC01D2DFCE015F
:1013E000DF91CF910C94FF3E1F920F920FB60F9298
:1013F00011240BB60F922F933F934F935F936F93EC
:101400007F938F939F93AF93BF93EF93FF938091BD
:10141000B900887F803609F49CC068F5883209F4E9
:101420005BC090F4803109F454C038F4882309F487
:10143000F6C0883009F44DC0F5C0883109F44CC0BD
:10144000803209F45DC0EEC0803409F468C048F40D
:10145000803309F455C0883309F0E4C08093A608AE
:10146000D8C0803509F44FC0883509F45DC0883490
:1014700009F0D8C0D6C0883909F4C7C0A8F48837A5
:1014800009F467C038F4883609F463C0803709F47A
:1014900060C0C8C0883809F4B8C0803909F45FC09A
:1014A000803809F0BFC05BC0803B09F486C038F4C7
:1014B000803A09F466C0883A09F47FC0B3C0803C22
:1014C00009F4A7C0883C09F4A4C0883B09F48AC089
:1014D000A9C08091A30810C09091A5088091A4088C
:1014E000981770F5E091A50881E08E0F8093A5080C
:1014F000F0E0EE57F74F80818093BB0085EC86C00B
:101500008093A6088EC0E091A50881E08E0F80939D
:10151000A5088091BB00F0E0EE57F74F80839091D3
:10152000A5088091A4086EC0E091A50881E08E0F07
:101530008093A5088091BB00F0E0EE57F74F8083C1
:101540008091A70881116DC081E08093A20884EA90
:1015500061C083E08093A80810921006CFCF8091DD
:101560001006803208F051C0E091100681E08E0F25
:10157000809310068091BB00F0E0E051FA4F808329
:10158000BDCF85EC8093BC001092A8088091100616
:10159000803230F4E0911006F0E0E051FA4F108212
:1015A0006091100670E0E091EE05F091EF0580EF9C
:1015B00095E019951092100635C084E08093A80834
:1015C0001092ED051092EC05E091EA05F091EB0523
:1015D00019958091EC05811105C081E08093EC059F
:1015E0001092CA05E091ED0581E08E0F8093ED0524
:1015F000F0E0E653FA4F80818093BB009091ED05B7
:101600008091EC05981708F479CF85E88093BC00A9
:1016100009C085EC8093BC001092A80803C010920A
:10162000A60865DBFF91EF91BF91AF919F918F91DC
:101630007F916F915F914F913F912F910F900BBED2
:101640000F900FBE0F901F9018950895089508955C
:101650000895FC0182818C3338F06CE30E944C3A8F
:101660002181820F8183928381818C3338F06CE3F6
:101670000E944C3A2081820F80839183808188313F
:1016800020F068E10E944C3A90830895EF92FF9217
:101690000F931F93CF93DF93CDB7DEB72D970FB680
:1016A000F894DEBF0FBECDBF8C017B010E94D61B1C
:1016B0008823A1F0D8011596ED91FC911697E114BD
:1016C000F10421F126813781C701820F931F821710
:1016D0009307E0F08E159F05C8F01BC074DD588796
:1016E0006987FC86EB867A87CE010896B2DF81E0B7
:1016F0008D87288539854A855B856C8571E0C801B1
:101700000E948E1BC8010E94F71B05C01482138221
:1017100002C0948383832D960FB6F894DEBF0FBE6C
:10172000CDBFDF91CF911F910F91FF90EF90089562
:101730009F92AF92BF92CF92DF92EF92FF920F9360
:101740001F93CF93DF93CDB7DEB7CC56D1090FB639
:10175000F894DEBF0FBECDBF8C01DC018D919C9152
:101760008F36910509F4C1C00CF58536910509F451
:1017700047C094F481309105D1F1029709F07DC200
:101780008091170690911806DC01ED91FC91028082
:10179000F381E02D199571C28736910509F445C092
:1017A000ECF18836910509F44FC067C28337910583
:1017B00009F4FAC13CF48137910509F4ECC00CF44A
:1017C000C0C093C18A37910509F40BC286399105CF
:1017D00009F053C20E9435168C0167E974E088EE67
:1017E0009AE00E94682CC8010E94412E46C20E94C5
:1017F00035169F938F931F921F921F9281E0E4C131
:1018000080911B0690911C06623018F460E070E035
:1018100003C0F8016281738139DF2FC280911B06FA
:1018200090911C060E941E1D28C261E0D8011296EC
:101830008D919C911397892B09F460E080911B0690
:1018400090911C0684DC19C280911B0690911C06A5
:10185000DC011596ED91FC9116978E010F5F1F4FDD
:101860003097C9F40E94D61B1F928F93E0911B06FC
:10187000F0911C0683851F928F931F921F921F92D7
:1018800088E68F9386E394E09F938F931F930F9343
:101890000E94A13B80C19580B380A480C180D0808C
:1018A000F680E7800E94D61B1F929F92AF92BF9254
:1018B0001F92CF921F92DF92EF92FF921F928F930F
:1018C000E0911B06F0911C0683851F928F931F9257
:1018D0001F921F9288E68F9384E494E09F938F93E6
:1018E0001F930F930E94A13B56C1653008F4C5C1F8
:1018F00071E0D80118968D919C911997892B09F464
:1019000070E0F801868197812481328139832A83AE
:101910009D838C831B82CE010196AD967FAFAD97E0
:1019200098DEAD967FADAD977E8329813A814B815C
:101930005C816D8180911506909116060E941F1A98
:101940009CC1633078F4623009F097C1D8011296D7
:101950006D917C91139780911506909116060E94C7
:10196000FD198BC1F8018481928199838A831D823C
:101970001C821B82CE0101966CDE1E8229813A8177
:101980004B815C816D8170E0809115069091160607
:101990000E947C1972C1673008F055C0653008F4A8
:1019A0006CC1FF24F394D80118968D919C911997DE
:1019B000181619060CF0F12CF80186819781248104
:1019C0003281A6963FAFA697A7962FAFA797AA9664
:1019D0009FAF8EAFAA97A8961FAEA897CE018B593E
:1019E0009F4F37DEAB96FFAEAB97D80112962C9186
:1019F000809115069091160636E0FE01EB59FF4FD7
:101A0000DE01119601900D923A95E1F7FC01E35346
:101A1000FF4F3081231708F030C1DC01E6E02E9F34
:101A2000A00DB11D1124FD013396C980DA80EB8031
:101A3000FC800D811E8113962C913181428153814E
:101A4000648175814FC0FF24F394D8011C968D9159
:101A50009C911D97181619060CF0F12CF80182853F
:101A6000938520853681A6963FAFA697A7962FAF80
:101A7000A797AA969FAF8EAFAA97A8961FAEA897D2
:101A8000CE018B599F4FE5DDAB96FFAEAB97D801EA
:101A900014968C91149712969C9199838A831D8237
:101AA0001C821B82CE010196D4DD1E82A696CFAC8D
:101AB000A697A796DFACA797A896EFACA897A9968C
:101AC000FFACA997AA960FADAA97AB961FADAB979F
:101AD00029813A814B815C816D8170E0809115068E
:101AE000909116060E947818C8C0623008F4C5C0EC
:101AF000F80162818091150690911606FC01E3536E
:101B0000FF4F20818E010F5F1F4F621778F01F92E9
:101B100081E08F931F9282E78F9381E694E09F93F9
:101B20008F931F930F930E94A13B35C00E944718CB
:101B3000A6962FAFA697A7963FAFA797A8964FAFA9
:101B4000A897A9965FAFA997AA966FAFAA97AB96E9
:101B50007FAFAB971F927F93AA968FADAA978F9373
:101B6000A9968FADA9978F93A7968FADA7971F9230
:101B70008F93A6968FADA6971F928F931F921F9259
:101B80001F9282E78F9389E694E09F938F931F9330
:101B90000F930E94A13B0FB6F894DEBF0FBECDBFDE
:101BA000C8010E940B2F69C0E0911B06F0911C0632
:101BB0000780F085E02DE353FF4F80811F928F93C4
:101BC0001F921F921F9283E78F938BE294E09F9363
:101BD0008F938E010F5F1F4F1F930F930E94A13BA6
:101BE00044C0F1DAA6962FAFA697A7963FAFA79766
:101BF000A8964FAFA897A9965FAFA997AA966FAF7F
:101C0000AA97AB967FAFAB97AC968FAFAC971F926E
:101C10007F93AA968FADAA971F928F93A9968FADA7
:101C2000A9971F928F93A8968FADA8971F928F9315
:101C3000A7968FADA7971F928F93A6968FADA69765
:101C400090E08053984F9F938F931F921F921F9203
:101C50008AE78F938DE794E09F938F938E010F5FB8
:101C60001F4F1F930F930E94A13BC8010E940B2F8F
:101C70000FB6F894DEBF0FBECDBFC459DF4F0FB60D
:101C8000F894DEBF0FBECDBFDF91CF911F910F91B2
:101C9000FF90EF90DF90CF90BF90AF909F9008950E
:101CA0000E948D3B3FB7F894809150069091510669
:101CB000A0915206B091530626B5A89B05C02F3FB0
:101CC00019F00196A11DB11D3FBFBA2FA92F982F62
:101CD0008827820F911DA11DB11DBC01CD0142E0DD
:101CE000660F771F881F991F4A95D1F708952FB760
:101CF000F89460914C0670914D0680914E0690913B
:101D00004F062FBF08951F920F920FB60F92112406
:101D10002F933F938F939F93AF93BF9380914C06E4
:101D200090914D06A0914E06B0914F0630914B0612
:101D300023E0230F2D3720F40196A11DB11D05C00E
:101D400026E8230F0296A11DB11D20934B06809318
:101D50004C0690934D06A0934E06B0934F0680918B
:101D6000500690915106A0915206B09153060196EB
:101D7000A11DB11D8093500690935106A093520669
:101D8000B0935306BF91AF919F918F913F912F9147
:101D90000F900FBE0F901F9018950F931F93CF9326
:101DA000DF93EC0188819981009729F02A813B819A
:101DB0002617370788F48B016F5F7F4F0E94A93A7F
:101DC000009761F0998388831B830A832C813D816E
:101DD000232B11F4FC01108281E001C080E0DF912F
:101DE000CF911F910F910895EF92FF920F931F9340
:101DF000CF93DF936115710511F480E022C0FB01E0
:101E000001900020E9F73197E61BF70BDC011496EF
:101E10000D911C911597309799F07B01EC010E0FF5
:101E20001F1FB801BADF882341F3288139818C81D3
:101E30009D81B701820F931F0E949A3B1D830C83E3
:101E400081E0DF91CF911F910F91FF90EF90089566
:101E5000FC01808191810C94FF3EDC01ED91FC91AD
:101E60000190F081E02D19940C94FF3E0C94FF3EFC
:101E70000C94FF3E0C94FF3E0C94FF3E0C94FF3EEE
:101E80000C94FF3E0C94FF3ECF93DF938091560657
:101E9000882399F1C0915406D091550640911002C3
:101EA0005091110260911202709113022BE536E0FD
:101EB000CE010E94DE17811102C080E01FC0409158
:101EC0005706509158066091590670915A0641156F
:101ED00051056105710579F02BE536E0CE010E94D0
:101EE000DE17882351F3109257061092580610926D
:101EF000590610925A061092560681E0DF91CF9152
:101F00000895BF92CF92DF92EF92FF920F931F93AB
:101F1000CF93DF936B017C01B42E809110029091DE
:101F20001102A0911202B09113028C159D05AE050D
:101F3000BF0509F46DC0A8DF882309F470C0C09103
:101F40005406D09155068E81882369F08881998145
:101F5000AA81BB81C816D906EA06FB0621F48F8147
:101F60009885892B89F1C882D982EA82FB828B8588
:101F7000A7019601833039F089E0220F331F441FF7
:101F8000551F8A95D1F761E1CE01A5D7882319F0B5
:101F900083E08D8331C0ABDE8B0169D78A878F3FA9
:101FA00041F4A5DE601B710B6D327140B0F38FE020
:101FB00003C08E3F29F08DE08D83CE014DD71CC02C
:101FC00018861F8281E08E830BE516E050D7F8015A
:101FD00081938F01F8E00B351F07C1F78F8198853A
:101FE0009E5F98878F832985222319F0811592405F
:101FF00038F0CE0158D704C0CE012ED780E00FC0F4
:10200000C0921002D0921102E0921202F0921302DA
:1020100080915606482F4B294093560681E0DF9168
:10202000CF911F910F91FF90EF90DF90CF90BF90D5
:1020300008954F925F926F927F928F929F92AF928C
:10204000BF92CF92DF92EF92FF920F931F93CF93A5
:10205000DF93EC016A017B0128013901423051050F
:102060006105710510F480E072C089859A85AB85A1
:10207000BC850196A11DB11D84179507A607B7075A
:1020800090F38B889C88AD88BE888F89803129F435
:10209000BB27AF2D9E2D8D2D09C0DB01CA0147E066
:1020A000B695A795979587954A95D1F7880E991E6D
:1020B000AA1EBB1E8091100290911102A0911202E3
:1020C000B091130288169906AA06BB0679F48F8987
:1020D000803199F4DD24EE24FF24C601880F991F76
:1020E000FC01E55AF94F5182408218C040E0C50119
:1020F000B40107DF8111EBCFB6CFE894C7F8DD2438
:10210000EE24FF24C601880F991F880F991FFC0138
:10211000E55AF94F4082518262827382809156065D
:102120008160809356068A89823080F08D819E81FD
:10213000AF81B885880E991EAA1EBB1E80925706D5
:1021400090925806A0925906B0925A0681E0DF910B
:10215000CF911F910F91FF90EF90DF90CF90BF90A4
:10216000AF909F908F907F906F905F904F90089569
:102170008F929F92AF92BF92CF92DF92EF92FF9297
:102180000F931F93CF93DF93FC0181859285A385E5
:10219000B4850196A11DB11D84179507A607B70741
:1021A00010F480E05BC083899489A589B689C789CA
:1021B000C03129F4852E962EA72EBB2409C04A01D2
:1021C0005B01C7E0B694A79497948794CA95D1F71A
:1021D000E9016A017B018F01BC01CD01680D791D08
:1021E0008A1D9B1D8090100290901102A0901202F7
:1021F000B0901302681579058A059B0599F4F801DA
:1022000087898031A1F4B701A60155276627772772
:10221000440F551FFA01E55AF94F80819181A0E0E2
:10222000B0E017C040E06DDE8111E9CFBACFB70151
:10223000A6014F77552766277727440F551F440F70
:10224000551FFA01E55AF94F80819181A281B3812E
:10225000BF7088839983AA83BB8381E0DF91CF918C
:102260001F910F91FF90EF90DF90CF90BF90AF90B4
:102270009F908F9008953F924F925F926F927F92BE
:102280008F929F92AF92BF92CF92DF92EF92FF9286
:102290000F931F93CF93DF93CDB7DEB72C970FB675
:1022A000F894DEBF0FBECDBF5C01DC015B968D9064
:1022B0009C905C971696CD90DD90ED90FC901997D0
:1022C000C114D104E104F10439F0BFEFCB1ADB0AE9
:1022D000EB0AFB0A312C07C0F401C080D180E280F8
:1022E000F38033243394F40181859285A385B485EA
:1022F0009C01AD012F5F3F4F4F4F5F4F29873A87BA
:102300004B875C87260137011D821E821F8218863B
:10231000F40181859285A385B4852D813E814F810D
:102320005885281739074A075B0708F060C0898578
:102330009A85AB85BC858C159D05AE05BF0550F40F
:1023400082E0C82ED12CE12CF12C92E0492E512CA8
:10235000612C712C9E012F5F3F4FB701A601C40174
:1023600007DF882309F443C089819A81AB81BC814E
:10237000892B8A2B8B2B41F0260137019FEF491ABD
:10238000590A690A790A05C0C414D504E604F70499
:1023900091F02D813E814F8158852F5F3F4F4F4FE8
:1023A0005F4F2D833E834F8358873FEFC31AD30A75
:1023B000E30AF30AADCF0FEF1FEF2FEF3FE0B301BA
:1023C000A201C40136DE882391F0D50116964D9105
:1023D0005D916D917C9119974115510561057105CC
:1023E00041F093018201C40124DE811102C080E02A
:1023F0002AC0D50116964D925D926D927C921997E6
:10240000332051F0D301C2010196A11DB11DF40189
:1024100080839183A283B383F5018789908DA18DF9
:10242000B28D892B8A2B8B2B69F4D50157964D924F
:102430005D926D927C925A9714968C911497806855
:1024400014968C9381E02C960FB6F894DEBF0FBEE5
:10245000CDBFDF91CF911F910F91FF90EF90DF9053
:10246000CF90BF90AF909F908F907F906F905F9034
:102470004F903F9008954F925F926F927F928F920C
:102480009F92AF92BF92EF92FF920F931F93CF93C1
:10249000DF9300D01F921F92CDB7DEB78C016D8302
:1024A000DC0115968C911597813009F056C0149671
:1024B0008C9181FF52C059C0038CF48DE02D25858D
:1024C00030E0275F3F4F2A013B01B1E04B1A510832
:1024D00061087108022E04C076946794579447945B
:1024E0000A94D2F7D501C4010197A109B10904C02A
:1024F000B695A795979587952A95D2F78415950552
:10250000A605B70508F06FC0F8014789508D618DA9
:10251000728D46835783608771872C013D01780156
:10252000E6E0EE0EF11CD80141145104610471047F
:1025300009F463C016964D915D916D917C91199748
:1025400097015B968D919C915C9712DEB1E04B1ADE
:102550005108610871088111E6CF81E090E0F8012F
:102560009383828380E090E049C182FF0EC0F8012E
:10257000428553856485758583889488A588B68847
:10258000481559056A057B05F1F4D8011A964D9155
:102590005D916D917C911D975B968D919C915C975F
:1025A000FC0174807A944A015B0129E0B694A794F7
:1025B000979487942A95D1F778207A01F1E0FF2249
:1025C000772011F162C081149104A104B10409F0D3
:1025D00073CF1682178210861186F8011286138631
:1025E00014861586D2CF452B462B472B09F48CCF6A
:1025F00084199509A609B70990CF1A968D929D92D4
:10260000AD92BC921D97C1CFE114F10409F03DC019
:10261000F801468157816085718541155105610535
:10262000710549F48789908DA18DB28D0097A10520
:10263000B10531F520C09E012F5F3F4F99DD882302
:1026400009F490CF89819A81AB81BC81F801238DF7
:10265000348DF9012789203129F048EF5FEF6FEFC2
:102660007FE004C048EF5FEF60E070E084179507FB
:10267000A607B70728F0C801FEDD811106C06DCF9F
:10268000F80186839783A087B187D8015B96ED9187
:10269000FC915C9716968D909D90AD90BC9019978B
:1026A000B2E08B1A9108A108B108058404C0880C17
:1026B000991CAA1CBB1C0A94D2F786859785A08911
:1026C000B189880E991EAA1EBB1E870C911CA11CE5
:1026D000B11CE114F10401F5F801428553856485CC
:1026E000758583899489A589B689481759076A072A
:1026F0007B0790F0C9DB882309F42FCF809210026A
:1027000090921102A0921202B0921302809156068A
:1027100081608093560607C041E0C501B401F1DB3A
:10272000882309F41ACFF701E55AF94F8D81808388
:10273000F80182859385A485B5850196A11DB11DFB
:1027400082879387A487B587438954896589768969
:10275000481759076A077B0738F4838B948BA58B3E
:10276000B68B848180688483D80114968C9183FD14
:1027700003C081E090E042C0F8019581992309F4FB
:10278000ECCE87FF37C0668577858089918941E0E7
:10279000B8DB882309F4E1CED8015296EC91B0E27F
:1027A000EB9F90011124D901A55AB94F109709F454
:1027B000D4CEF8018581823050F4438954896589EB
:1027C00076895C964D935D936D937C935F97F8014A
:1027D0008789908DA18DB28DF901E55AF94F938FBC
:1027E000828FB58BA48BD80114968C9114978F7718
:1027F00014968C9349DB8111BCCFAFCE0F900F9014
:102800000F900F900F90DF91CF911F910F91FF903C
:10281000EF90BF90AF909F908F907F906F905F9060
:102820004F90089508950895089508950895CF93B9
:10283000DF93EC018BEC98E00E94D427892B29F0E0
:102840008BEC98E00E94B327F5CFBE018BEC98E0AB
:102850000E94682C6FEF8BEC98E00E940C286FEFC1
:102860008BEC98E00E940C286FEF8BEC98E0DF91E6
:10287000CF910C940C28EF92FF920F931F93CF935C
:10288000DF9300D000D0CDB7DEB77C018B0161EBC8
:1028900074E0CE0101960E94D02AF7016281738113
:1028A000CE010196A1DA66EB74E0CE0101969CDAC6
:1028B00089819A81BCDFC8010E941C2F182FCE018C
:1028C0000196C6DA612F70E080E090E026960FB6A0
:1028D000F894DEBF0FBECDBFDF91CF911F910F9156
:1028E000FF90EF900895EF92FF920F931F93CF9375
:1028F000DF9300D000D0CDB7DEB77C018B0167EB52
:1029000075E0CE0101960E94D02AF701648175819D
:10291000CE01019669DA6BEB74E0CE01019664DAC0
:10292000B801CE01019660DA60EC74E0CE01019648
:102930005BDA89819A817BDF0E94C62E182FCE0137
:10294000019686DA812F26960FB6F894DEBF0FBE69
:10295000CDBFDF91CF911F910F91FF90EF90089520
:102960000F931F93CF93DF9300D000D0CDB7DEB786
:10297000FC010281138101151105A1F062EC74E0E4
:10298000CE0101960E94D02AB801CE0101962CDA20
:1029900089819A814CDF0E94C62E182FCE010196A4
:1029A00057DA01C010E0812F26960FB6F894DEBFEB
:1029B0000FBECDBFDF91CF911F910F9108958F92E0
:1029C0009F92AF92BF92EF92FF920F931F93CF937C
:1029D000DF93CDB7DEB760970FB6F894DEBF0FBEBA
:1029E000CDBF7C014A015B018E010F5F1F4F8AE062
:1029F000F80111928A95E9F767EB75E0CE010B9625
:102A00000E94D02A4AE0B801C4010E94BC3FF701ED
:102A100064817581CE010B96E7D968EC74E0CE0134
:102A20000B96E2D9B801CE010B96DED98B859C8539
:102A3000FEDE0E94C62E182FCE010B9609DA812FDA
:102A400060960FB6F894DEBF0FBECDBFDF91CF9179
:102A50001F910F91FF90EF90BF90AF909F908F903C
:102A60000895EF92FF920F931F93CF93DF9300D0BF
:102A700000D0CDB7DEB77C018B0161EB74E0CE01F5
:102A800001960E94D02AF70164817581CE010196DA
:102A9000ABD966EB74E0CE010196A6D989819A8103
:102AA000C6DEC8010E941C2F182FCE010196D0D976
:102AB000812F26960FB6F894DEBF0FBECDBFDF91F3
:102AC000CF911F910F91FF90EF9008950895EF928D
:102AD000FF920F931F93CF93DF9300D000D0CDB719
:102AE000DEB77C01062F6EEC74E0CE0101960E94E9
:102AF000D02AF70164817581CE01019675D963ED05
:102B000074E0CE01019670D9011103C06FEA74E040
:102B100002C068EA74E0CE01019666D989819A8183
:102B200086DE0E94C62E182F882311F0F701068733
:102B3000CE0101968DD9812F26960FB6F894DEBF6F
:102B40000FBECDBFDF91CF911F910F91FF90EF90FE
:102B5000089508958F929F92AF92BF92EF92FF9245
:102B60000F931F93CF93DF93CDB7DEB760970FB668
:102B7000F894DEBF0FBECDBF7C014A015B018E0120
:102B80000F5F1F4F8AE0F80111928A95E9F767EB12
:102B900075E0CE010B960E94D02A4AE0B801C4012C
:102BA0000E94BC3FF70164817581CE010B961CD950
:102BB00068EC74E0CE010B9617D9B801CE010B96E4
:102BC00013D98B859C8533DE0E94C62E182FCE012B
:102BD0000B963ED9812F60960FB6F894DEBF0FBEDC
:102BE000CDBFDF91CF911F910F91FF90EF90BF90DC
:102BF000AF909F908F900895EF92FF920F931F9345
:102C0000CF93DF9300D000D0CDB7DEB77C018B012E
:102C100061EB74E0CE0101960E94D02AF701648135
:102C20007581CE010196E0D866EB74E0CE01019685
:102C3000DBD889819A81FBDDC8010E941C2F182FE7
:102C4000CE01019605D9612F70E080E090E02696D4
:102C50000FB6F894DEBF0FBECDBFDF91CF911F91AD
:102C60000F91FF90EF9008950895CF93DF931F92F7
:102C70001F92CDB7DEB720916A0E30916B0ECE0158
:102C800001962115310519F48E569E4018C0AC01ED
:102C9000421B530BE0916C0EF0916D0E80E090E0C2
:102CA000309759F09C012E5F3F4F80819181820FB8
:102CB000931F0280F381E02DF3CF840F951F9A8339
:102CC000898389819A810F900F90DF91CF91089528
:102CD0008EBD00000DB407FEFDCF8EB50895FC013A
:102CE0008081681780F0861780F08181481758F03E
:102CF000841758F0928181E0291748F0921708F064
:102D000080E08195089581E008958FEF08950895FA
:102D1000CF92DF92EF92FF920F931F93CF93DF93A7
:102D200000D000D0CDB7DEB729833A834B835C83D4
:102D30006D837E83FC01E353FF4FC080D12C8C0157
:102D40000B5F1F4FE12CF12CEC14FD04ACF4F801E7
:102D500020813197408131976081CE010196BFDF9C
:102D6000882341F00A5F1F4F87FD06C0FFEFEF1A6F
:102D7000FF0AEACFC70102C08FEF9FEF26960FB67A
:102D8000F894DEBF0FBECDBFDF91CF911F910F91A1
:102D9000FF90EF90DF90CF90089508951F920F92CB
:102DA0000FB60F9211248F9381E080931A068F91B2
:102DB0000F900FBE0F901F901895AF92BF92CF92B9
:102DC000DF92EF92FF920F931F93CF93DF93CDB7D4
:102DD000DEB729970FB6F894DEBF0FBECDBFE982EC
:102DE000FA820B831C832D833E834F835887698728
:102DF0005C012DE0A20EB11C6C01A7E1CA0ED11C32
:102E0000F501819191915F01009781F0DC01ED91D5
:102E1000FC910280F381E02DE980FA800B811C8116
:102E20002D813E814F81588569851995AC14BD046B
:102E300039F729960FB6F894DEBF0FBECDBFDF91EC
:102E4000CF911F910F91FF90EF90DF90CF90BF90A7
:102E5000AF9008950C94FF3E61E0FC0184810E94D4
:102E6000D62F80915D08811110925D0808958FEF33
:102E70002FCF0F931F93CF93DF93EB010E94770E19
:102E80008B01F5DF8F3F49F00E94770E601B710BBD
:102E90006C177D07B0F380E001C081E0DF91CF9136
:102EA0001F910F910895CF93DF93EC018E818823BA
:102EB00079F08F8198859C012F5F3F4F38872F8352
:102EC0008230924010F4D3DFF4CFCE01C5DF1E82F2
:102ED000DF91CF910895CF92DF92FF920F931F93CE
:102EE000CF93DF9300D01F92CDB7DEB76C01F62EE3
:102EF00029833A834B835C83D6DF80915D082981E7
:102F00003A814B815C81811109C081E080935D0829
:102F10009091050D8091060D9CBD8DBD60E0F60180
:102F2000848129833A834B835C830E94D62F6CE291
:102F300071E0C6019EDF8F2D8064CADE08E110E0DB
:102F40005C814B813A812981DA01C901002E04C0DC
:102F5000B695A795979587950A94D2F729833A83D2
:102F60004B835C83B5DE0850110929813A814B817E
:102F70005C81083FFFEF1F0739F7FF2029F088E049
:102F8000F81204C087E803C085E901C08FEFA0DE16
:102F900010E06DDFF601828787FF04C01F3F11F04C
:102FA0001F5FF7CF0F900F900F900F90DF91CF9191
:102FB0001F910F91FF90DF90CF900895EF92FF92B5
:102FC0000F931F93CF93DF93EC01790141155105C6
:102FD0006105710511F482E134C08B85833039F0CD
:102FE00089E0440F551F661F771F8A95D1F79A0114
:102FF000AB0168E1CE016FDF882311F084E021C0CE
:103000008EEF66DE87018EEFF81AF80181918F014D
:103010005FDE0E151F05C9F78FEF5ADE8FEF58DE02
:1030200026DF8A878F71853029F081E18D83CE017B
:1030300013DF08C068E572E0CE011BDF811106C016
:1030400085E18D83CE0108DF80E010C020E030E014
:10305000A9016DE0CE013FDF811103C008DF8823A5
:1030600011F084E1EECFCE01F7DE81E0DF91CF9168
:103070001F910F91FF90EF9008951F920F920FB63E
:103080000F9211240F900FBE0F901F901895CF93A1
:10309000DF9300D000D0CDB7DEB7FC01E353FF4F84
:1030A0002081621738F019821A821B821D821C82CD
:1030B0001E820DC026E0269F800D911D1124FC016B
:1030C0003396DE01119601900D922A95E1F7298140
:1030D0003A814B815C816D817E8180E090E0269613
:1030E0000FB6F894DEBF0FBECDBFDF91CF9108952C
:1030F0002F923F924F925F926F927F928F929F9208
:10310000AF92BF92CF92DF92EF92FF920F931F93F5
:10311000CF93DF93CDB7DEB769970FB6F894DEBFD4
:103120000FBECDBF5C012D873E874F87588B698BC3
:103130007A8BCB8ADC8AED8AFE8A0F8B188FC501C9
:10314000E7DD6C0197FDBDC086E08C9DA0018D9DE3
:10315000500D1124C60120E030E025016DEC460E33
:10316000511C66E0D2010C9110E00150110980174A
:1031700091078CF40196D901A40FB51FAA0DBB1DB0
:10318000FD0139961396762F01900D927A95E1F70D
:103190002A5F3F4FE7CF48017501B5E0EB0EF11C08
:1031A000612C712C601671062CF5F7012081319786
:1031B000408131976081CE01439691DD811111C02C
:1031C00086E0869DD001879DB00D1124AA0DBB1D00
:1031D0001396FE01739601900D928A95E1F73801DE
:1031E00038C0F6E0EF0EF11C8F3F29F05FEF651A53
:1031F000750AD8CF380126E0209FC001219F900D8D
:10320000112420E030E046E02650310968147904AA
:103210008CF461E0861A9108D901A80FB91FAA0D94
:10322000BB1DFD0133961996542F01900D925A95AE
:10323000E1F7EACF86E0869DD001879DB00D11248D
:10324000AA0DBB1D1396FE01739601900D928A95EF
:10325000E1F7698E9C2C86E0FE013D96DE01179613
:1032600001900D928A95E1F786E0FE017396DE01EA
:10327000119601900D928A95E1F7150183EC280EC5
:10328000311CD1018D919D911D010097A9F0DC01A8
:10329000ED91FC910480F581E02D898CA92CC980E9
:1032A000DA80EB80FC800D811E812F813885498575
:1032B0005A856B857C8519952414350411F7C30153
:1032C00002C08FEF9FEF69960FB6F894DEBF0FBE76
:1032D000CDBFDF91CF911F910F91FF90EF90DF90C5
:1032E000CF90BF90AF909F908F907F906F905F90A6
:1032F0004F903F902F9008959F92AF92BF92CF92A0
:10330000DF92EF92FF920F931F93CF93DF93CDB78E
:10331000DEB72C970FB6F894DEBF0FBECDBF8C0181
:103320002F83388749875A876B877C87C801F0DCF1
:103330007C01C80183539F4F6C01F7FC26C086E0D7
:103340008E9DB0018F9D700D1124970140E050E0DB
:1033500096E0D6018C91E82FF0E031972E173F07C9
:1033600094F42F5F3F4FDA01A60FB71FA00FB11FD4
:10337000FD0139961396892F01900D928A95E1F7F8
:103380004A5F5F4FE6CF81508C939E2C86E0FE0112
:103390003796DE01119601900D928A95E1F758015A
:1033A000B3ECAB0EB11CF501819191915F010097D7
:1033B00071F0DC01ED91FC910280F381E02D092D8B
:1033C00029813A814B815C816D817E811995AC1494
:1033D000BD0449F7C7012C960FB6F894DEBF0FBEA7
:1033E000CDBFDF91CF911F910F91FF90EF90DF90B4
:1033F000CF90BF90AF909F90089577FD1DC0FC01C6
:10340000E353FF4F208130E062177307ACF426E0EE
:10341000269FD001279FB00D1124A80FB91FFD01D1
:10342000339613962C913181428153816481758149
:1034300063DF21E0892B09F420E0822F08956F9249
:103440007F928F929F92AF92BF92CF92DF92EF9234
:10345000FF920F931F93CF93DF93CDB7DEB72C97D7
:103460000FB6F894DEBF0FBECDBF2F8338874987D4
:103470005A876B877C875C012DECA20EB11CD501AD
:103480001C91103209F485C07C01812E912C3C01E5
:10349000B5E06B0E711CC12CD12CC814D90424F5D5
:1034A000F30120813197408131976081CE010796E9
:1034B00016DC811110C086E08C9DD0018D9DB00D71
:1034C0001124AE0DBF1D1396FE01379601900D928B
:1034D0008A95E1F738C0F6E06F0E711C8F3F29F036
:1034E0002FEFC21AD20AD9CF640156E0159F90017E
:1034F000112480E090E046E00697C814D9048CF4CB
:10350000A1E08A1A9108DC01A20FB31FAE0DBF1D06
:10351000FD0133961996542F01900D925A95E1F7BB
:10352000EBCF86E08C9DD0018D9DB00D1124AE0DAA
:10353000BF1D1396FE01379601900D928A95E1F713
:103540001F5FF50110831C2D86E0FE013796DE011A
:10355000119601900D928A95E1F7F3ECEF0EF11CB4
:10356000D7018D919D917D01009771F0DC01ED9166
:10357000FC910190F081E02D012F29813A814B814E
:103580005C816D817E811995EA14FB0449F7C601BF
:1035900002C08FEF9FEF2C960FB6F894DEBF0FBEE0
:1035A000CDBFDF91CF911F910F91FF90EF90DF90F2
:1035B000CF90BF90AF909F908F907F906F90089525
:1035C000EF92FF920F931F93CF93DF93EC014A8109
:1035D000453080F5FC01ED53FF4F9C0123533F4FD5
:1035E000DF01ED90FD90E114F10449F0EB010A8157
:1035F0001B81E701EA80FB800E151F05D9F0A21799
:10360000B30779F720E030E0A191B191AB2B69F4D9
:10361000220F331F280F391FF901ED53FF4F71831C
:1036200060834F5FFC01428305C02F5F3F4F253011
:10363000310551F7DF91CF911F910F91FF90EF90DE
:103640000895CF93DF9326E932E0DC0111963C9395
:103650002E93FC01339618969C012D533F4F1082F8
:10366000ED012497188214821382219618821C92ED
:1036700036961696E217F30791F7DC01A353BF4F76
:103680001C92DC0112961C9211821082FC01EB53F9
:10369000FF4F11821082329611821082329611826F
:1036A0001082329611821082DF91CF9108950F938C
:1036B0001F93CF93DF9300D000D0CDB7DEB78C013E
:1036C00069834A831D821C822B83CE0101960E944E
:1036D000290B29818A819B81F8013081231780F091
:1036E000321780F02181821758F0281758F0228174
:1036F00081E0921740F0291708F080E0819503C01F
:1037000081E001C08FEF26960FB6F894DEBF0FBEA2
:10371000CDBFDF91CF911F910F9108959F92AF92EE
:10372000BF92CF92DF92EF92FF920F931F93CF93AE
:10373000DF9300D000D0CDB7DEB77C0129833A8378
:103740004B835C836D83FC0185819681009711F02A
:103750000E94FF3E9980CA80DB80AC80BD8088E0FB
:1037600090E00E946A3E8C01FC019082C182B4828A
:10377000A382D2820E94290B81E0F80185831782FF
:103780001682F7011683058326960FB6F894DEBFDE
:103790000FBECDBFDF91CF911F910F91FF90EF90A2
:1037A000DF90CF90BF90AF909F900895CF93DF931D
:1037B000E9EEF1E08491E3EAF1E0D491EDE5F1E0A6
:1037C000C491CC2379F081110E94802FEC2FF0E07E
:1037D000EE0FFF1FEE5DFE4FA591B491EC91ED232E
:1037E00081E009F480E08170DF91CF910895CF925C
:1037F000DF92EF92FF920F931F93CF93DF93CDB79A
:10380000DEB761970FB6F894DEBF0FBECDBF6C0177
:10381000CDDF811126C061E087E00E94D62FC6016E
:10382000C5DFD6011596ED91FC91169798E0DE0163
:103830001A9601900D929A95E1F798E0FE013A965A
:10384000DE01119601900D929A95E1F7E980FA80D8
:103850000B811C812D813E814F815885682FC601C7
:10386000ACDA61960FB6F894DEBF0FBECDBFDF9124
:10387000CF911F910F91FF90EF90DF90CF9008951F
:10388000BF92CF92DF92EF92FF920F931F93CF934D
:10389000DF93CDB7DEB72D970FB6F894DEBF0FBE1E
:1038A000CDBF8C0183DF81117CC0F80185819681B9
:1038B000009729F00E94FF3EF801168215821886B3
:1038C00019861C861B861A861D860E94E308D52E43
:1038D000C62EB72E29833A834B835C836D837E8308
:1038E0008F83F80187819085009709F45AC0FC0105
:1038F000E353FF4F8081882309F453C0F801838587
:10390000882309F44EC0E12CF12CF80187819085C1
:10391000FC01E353FF4FE081F0E0EE16FF06F4F404
:103920006E2DB5DB288739874A875B876C877D8753
:10393000772341F02B2D4C2D6D2DCE010896B7DE4F
:10394000813021F0FFEFEF1AFF0ADFCF288539859C
:103950004A855B856C857D85C801E0DEF80185813F
:103960009681892BF1F4E12CF12CF8018781908567
:10397000FC01E353FF4F208130E0E216F3068CF4A4
:103980006E2D85DB288739874A875B876C877D8723
:10399000772319F0C801C2DE04C0FFEFEF1AFF0A57
:1039A000E4CF2D960FB6F894DEBF0FBECDBFDF91EA
:1039B000CF911F910F91FF90EF90DF90CF90BF902C
:1039C0000895CF92DF92EF92FF920F931F93CF93C0
:1039D000DF93CDB7DEB72C970FB6F894DEBF0FBEDE
:1039E000CDBF2C960FB6F894DEBF0FBECDBFDF91D2
:1039F000CF911F910F91FF90EF90DF90CF9040CF2C
:103A0000CF93DF9300D000D0CDB7DEB726960FB6A8
:103A1000F894DEBF0FBECDBFDF91CF9131CFCF93F2
:103A2000DF9300D000D0CDB7DEB726960FB6F8945E
:103A3000DEBF0FBECDBFDF91CF9122CFCF92DF92FD
:103A4000EF92FF920F931F93CF93DF93CDB7DEB723
:103A500061970FB6F894DEBF0FBECDBF6C01A6DE36
:103A6000882379F160E087E00E94D62F65E070E05E
:103A700080E090E00E940530C60198DED6011596E0
:103A8000ED91FC91169798E0DE011A9601900D9247
:103A90009A95E1F798E0FE013A96DE0111960190C1
:103AA0000D929A95E1F78987C601EADEE980FA80EE
:103AB0000B811C812D813E814F8158856985C6010E
:103AC0007CD961960FB6F894DEBF0FBECDBFDF91F3
:103AD000CF911F910F91FF90EF90DF90CF900895BD
:103AE0000F931F93CF93DF93CDB7DEB727970FB612
:103AF000F894DEBF0FBECDBF84E190E00E946A3E25
:103B00008C010E94E3085C836D831F927F938D81FB
:103B10001F928F938C811F928F9385ED94E09F93DA
:103B20008F931F930F930E94A13B0FB6F894DEBFB3
:103B30000FBECDBFC80127960FB6F894DEBF0FBEEB
:103B4000CDBFDF91CF911F910F910895BF92CF927A
:103B5000DF92EF92FF920F931F93CF93DF93CDB736
:103B6000DEB728970FB6F894DEBF0FBECDBF7C013D
:103B70000E94E308B42E29833A834B835C836D83D0
:103B80007E838F8367018DE0C80ED11CA7E1EA0E0A
:103B9000F11C022F10E00053184FF6018191919112
:103BA0006F01009761F0DC01ED91FC910680F781D7
:103BB000E02D2B2D432FB801388719953885CE1469
:103BC000DF0459F728960FB6F894DEBF0FBECDBFBD
:103BD000DF91CF911F910F91FF90EF90DF90CF90E9
:103BE000BF900895CF92DF92EF92FF921F93CF93F1
:103BF000DF93CDB7DEB729970FB6F894DEBF0FBEBF
:103C0000CDBF7C010E94E308162F29833A834B83A2
:103C10005C836D837E838F8367018DE0C80ED11C2A
:103C2000A7E1EA0EF11CF601819191916F010097D5
:103C300071F0DC01ED91FC910480F581E02D272FDE
:103C4000412F652F58877987199579855885CE1426
:103C5000DF0449F729960FB6F894DEBF0FBECDBF3B
:103C6000DF91CF911F91FF90EF90DF90CF9008955B
:103C7000EF92FF920F931F93CF93DF93EC014C854C
:103C8000453069F1FC013D969C01295E3F4FDF0103
:103C9000ED90FD90E114F10449F0EB010A811B81E4
:103CA000E701EA80FB800E151F05C9F0A217B307D4
:103CB00079F720E030E0A191B191AB2B59F4220FBC
:103CC000331FFC01E20FF31F768765874F5FFC010E
:103CD000448705C02F5F3F4F2530310561F7DF91E5
:103CE000CF911F910F91FF90EF9008951F93CF9365
:103CF000DF93CDB7DEB76E970FB6F894DEBF0FBE79
:103D0000CDBF162FFC0192819A8B83E08B8B24EE22
:103D100034E03D8B2C8B1F8A1E8A1B8E1A8E1D8EC3
:103D20001C8E198E188E81E08E8F20EC32E0398B3C
:103D3000288B9B8394E09C8322EF34E03E832D8389
:103D400018861F821C861B861E861D861A8619866B
:103D50008F8788ED92E09A838983CE0140960E94F6
:103D60006715882329F0612FCE0101960E946715FF
:103D70006E960FB6F894DEBF0FBECDBFDF91CF9128
:103D80001F910895AF92BF92CF92DF92EF92FF9270
:103D90000F931F93CF93DF93CDB7DEB7AA970FB6DC
:103DA000F894DEBF0FBECDBF8C010E94E308E52E64
:103DB000D62EC72E2CA33DA34EA35FA368A779A739
:103DC0008AA7D8015A96ED91FC915B97438550E004
:103DD00060E070E058968D919C9159970E94AA15C9
:103DE000F82E1F92CF921F92DF921F92EF9225ED35
:103DF00034E03F932F93FE0131966F01FF93EF93D1
:103E00000E94A13BB601D80154968D919C91559783
:103E10000E947314F822D8015A96ED91FC915B9799
:103E2000A580B6800FB6F894DEBF0FBECDBFA1143B
:103E3000B10409F477C061E0C80158DFE82ED5016C
:103E400016964D915C911797F80182818B8383E0E0
:103E50008C8384EE94E09E838D8318861F821C865B
:103E60001B861E861D861A86198681E08F8780EC48
:103E700092E09A83898360E070E0C6010E94DF14BB
:103E80008E21F822D50113968D919C91149712964C
:103E90004C91129711963C9111972C91009779F4BF
:103EA0001F924F931F923F931F922F938EEF94E098
:103EB0009F938F93DF92CF920E94A13B10C09F935C
:103EC0008F931F924F931F923F931F922F9380E1E6
:103ED00095E09F938F93DF92CF920E94A13B0FB604
:103EE000F894DEBF0FBECDBFD80112968C918F8B98
:103EF00084E0888F82EF94E09A8F898F1C8E1B8ECE
:103F000018A21F8E1AA219A21E8E1D8E81E08BA3ED
:103F100088ED92E09E8B8D8BB601CE0145960E9476
:103F2000731403C060E0C801E1DEF8226AE070E0CB
:103F300080E090E00E940530F801828D938D36DCA0
:103F4000E82ED80156960D911C9157978AE0F601FC
:103F500011928A95E9F767EB75E0CE0145960E94CC
:103F6000D02A4AE0B6018E2D90E00E94BC3FD801D5
:103F700014966D917C911597CE0145960E94F40E92
:103F800068EC74E0CE0145960E94F40EB601CE01B5
:103F900045960E94F40E8D899E890E9417140E94F6
:103FA000C62E182FCE0145960E94280F812F8F21F3
:103FB000AA960FB6F894DEBF0FBECDBFDF91CF91AA
:103FC0001F910F91FF90EF90DF90CF90BF90AF9037
:103FD00008950F931F93CF93DF93EC018EE992E046
:103FE0009983888380EB92E09F878E870E941233AB
:103FF0000A8D1B8DD8011C968C918823D1F0F80175
:10400000A801465F5F4F258536852115310551F0A2
:1040100068897989D90112962D913C91139762177D
:104020007307B9F13296E417F50769F78150F80183
:104030008487888D998D009739F0DC01ED91FC9192
:104040000280F381E02D19958C899D89009739F0C4
:10405000DC01ED91FC910280F381E02D19958E89B0
:104060009F89009739F0DC01ED91FC910280F3818A
:10407000E02D19958A899B89009771F0DC01ED91FB
:10408000FC910280F381E02DDF91CF911F910F9180
:10409000199416861586C6CFDF91CF911F910F9187
:1040A0000895CF93DF93EC018F89811105C06E894C
:1040B00070E08E859F85A1D9CE01DF91CF910C94C0
:1040C00048014F925F926F927F929F92AF92BF9200
:1040D000CF92DF92EF92FF920F931F93CF93DF93D4
:1040E000CDB7DEB765970FB6F894DEBF0FBECDBF74
:1040F0005C01FC0182818B8382E08C8383E295E00A
:104100009E838D8318861F821C861B861E861D86B5
:104110001A86198611E01F8780ECE82E82E0F82EBF
:10412000FA82E982BE01605F7F4FCE0101960E9454
:1041300031159888882309F482C0F50182818B8328
:1041400083E08C8386E295E09E838D8318861F82B0
:104150001C861B861E861D861A8619861F87FA8274
:10416000E982BE01605F7F4FCE0101960E9431154A
:104170000889882309F463C0F50182818B8385E077
:104180008C8389E295E09E838D8318861F821C862E
:104190001B861E861D861A8619861F87FA82E9826B
:1041A000BE01605F7F4FCE0101960E9431154888A5
:1041B00059886A887B88882309F441C0F501828187
:1041C0008B8385E18C8386EA93E09E838D831886BA
:1041D0001F821C861B861E861D861A8619861F87CF
:1041E00088EC92E09A838983BE01605F7F4FCE01A5
:1041F00001960E94FC15C888D988EA88FB88672B3D
:10420000682B692BE1F0988A098B5C8A4B8A1A8AA1
:10421000CE0140960E94290B71E0CD28CE28CF28F0
:1042200009F470E07D8BF501278986859785222327
:10423000F9F0288939894A895B896C8900D9C501D7
:104240000E94480165960FB6F894DEBF0FBECDBF41
:10425000DF91CF911F910F91FF90EF90DF90CF9062
:10426000BF90AF909F907F906F905F904F90089518
:10427000F501268936E0FE017096DE011196019067
:104280000D923A95E1F7FC01E353FF4F308123177C
:10429000B0F6DC01F6E02F9FA00DB11D1124FD0149
:1042A0003396C980DA80EB80FC800D811E811396E5
:1042B0002C91318142815381648175810E947818EB
:1042C000BECF2F923F924F925F926F927F928F92CA
:1042D0009F92AF92BF92CF92DF92EF92FF920F9395
:1042E0001F93CF93DF93CDB7DEB7EE970FB6F89459
:1042F000DEBF0FBECDBF5C01DC015D968D919C9150
:104300005E97009771F0FC01E353FF4F8081882393
:1043100041F090E0019765E070E00E946C3A6F5FB9
:1043200001C061E0F501848D681708F4648FD50140
:104330005C968C915C97811103C081E05C968C93B4
:10434000F501848D982FF4E08F9F900D11242BEFB1
:10435000922E990E982F990F990F980F9BAF1501D8
:10436000CE0101967C01DE015F962D0132E0832EA5
:10437000772473942BAD921608F0FDC1F501858D5D
:10438000968DFC01E353FF4F2081921608F0C1C1C6
:10439000692D0E94471829AF3AAF672E2BAB3CAB73
:1043A0004DAB5EAB6FAB78AFD5015C962C91F10154
:1043B000C288D3888EA99FA99DAF8CAFD6018C915E
:1043C0001F928F93ACE2B5E0BF93AF93FF92EF9251
:1043D0002EAF0E94A13B8FE090E00E946A3EFC015C
:1043E000D6018C91982F990F890F880F8E5F82824A
:1043F0008383F582E48217821682138612861586DD
:10440000148611861086768680EC92E091838083F4
:104410000F900F900F900F900F900F902EAD309740
:1044200021F08F010E5F1F4F02C000E010E030E06E
:104430002150310985E0829FA001839F500D1124F6
:10444000D6018C91480F511D4F5F5F4F052E000C18
:10445000660B770B0115110519F0C801029702C010
:1044600080E090E00E94DF140115110551F0C801B1
:10447000029739F0DC01ED91FC910280F381E02D8F
:10448000199584E1F20111928A95E9F71F922AADFC
:104490002F931F9229AD2F93AAEDB4E0BF93AF9352
:1044A0005F924F920E94A13BD6018C911F928F93F5
:1044B000A9E3B5E0BF93AF93FF92EF920E94A13BB7
:1044C0008FE090E00E946A3EFC01D6018C91982F0B
:1044D000990F890F880F8D5F82828383F582E48232
:1044E0001782168213861286158614861186108608
:1044F000768688ED92E0918380830FB6F894DEBFD4
:104500000FBECDBF309729F08F010E5F1F4FCF0137
:1045100004C080E090E000E010E0B2010E9473145B
:104520000115110551F0C801029739F0DC01ED9138
:10453000FC910280F381E02D1995F60180811F9294
:104540008F93A4E4B5E0BF93AF93FF92EF920E94E4
:10455000A13B8FE090E00E946A3EFC01D6018C9165
:10456000982F990F890F880F8C5F82828383F58241
:10457000E4821782168213861286158614861186A7
:104580001086768680EC92E0918380830F900F9066
:104590000F900F900F900F90309721F08F010E5FCA
:1045A0001F4F02C000E010E0ACADBDADAD0160E05A
:1045B00070E00115110519F0C801029702C080E0F2
:1045C00090E00E94DF140115110551F0C801029717
:1045D00039F0DC01ED91FC910280F381E02D199519
:1045E000F60180811F928F93AFE4B5E0BF93AF9344
:1045F000FF92EF920E94A13B8FE090E00E946A3E02
:10460000FC01D6018C91982F990F890F880F8B5F31
:1046100082828383F582E482178216821386128651
:104620001586148611861086768688EC92E0918332
:1046300080830F900F900F900F900F900F903097F6
:1046400021F08F010E5F1F4F02C000E010E0462DE9
:1046500050E060E070E00115110519F0C801029703
:1046600002C080E090E00E94AA150115110551F0EA
:10467000C801029739F0DC01ED91FC910280F381D1
:10468000E02D1995F60180811F928F93AEE5B5E07C
:10469000BF93AF93FF92EF920E94A13B8FE090E017
:1046A0000E946A3EFC01D6018C918A5D82828383DE
:1046B000F582E48217821682138612861586148686
:1046C00011861086768688ED92E0918380830F9024
:1046D0000F900F900F900F900F90309729F08F014F
:1046E0000E5F1F4FCF0104C080E090E000E010E0BB
:1046F00060E00E94671501151105C1F1C80102971C
:10470000A9F1DC01ED91FC910280F381E02D199576
:104710002DC0F10102891389D8018C911F928F93CA
:10472000AEE5B5E0BF93AF93FF92EF920E94A13B3D
:10473000D8018C918A5D89A28AA3FCA2EBA21EA259
:104740001DA21AA619A61CA61BA618A61FA27DA606
:10475000E8EDF2E0F8A3EF8F61E0C2010E94671577
:104760000F900F900F900F900F900F909394F2E096
:104770002F0E311CFFCD81E0EE960FB6F894DEBF10
:104780000FBECDBFDF91CF911F910F91FF90EF90A2
:10479000DF90CF90BF90AF909F908F907F906F9061
:1047A0005F904F903F902F9008958BCDCF92DF92E6
:1047B000EF92FF920F931F93CF93DF93CDB7DEB7A6
:1047C00069970FB6F894DEBF0FBECDBF8C01462FA0
:1047D000FC01858D968D009789F0FC01E353FF4F16
:1047E0002081222359F030E0C901019765E070E093
:1047F0000E946C3AFF24F394F60E02C0FF24F39457
:10480000F41608F441E0F801848D481709F44BC010
:10481000448F1F92FF921F924F9384E695E09F93DF
:104820008F936E01F0E1CF0ED11CDF92CF920E94E8
:10483000A13BF80182818B8381E28C838AE695E03B
:104840009E838D8318861F821C861B861E861D866E
:104850001A86198681E08F8788ED92E09A83898392
:10486000B601CE0101960E947314E82E61E0F801B2
:10487000848D813009F460E0F801878D90A10E9459
:104880006715E82261E0F801848D8F1101C060E0B6
:10489000F80181A192A10E946715E8220FB6F89451
:1048A000DEBF0FBECDBFC8010CDD8E2169960FB6ED
:1048B000F894DEBF0FBECDBFDF91CF911F910F9156
:1048C000FF90EF90DF90CF900895FC01648D6150D0
:1048D0006DCFFC01648D6F5F69CF61E067CF22EF20
:1048E00032E0DC0111963C932E931E968D919C91A3
:1048F0001F97009739F0DC01ED91FC910280F38164
:10490000E02D1994089581E00895CF93DF93EC0191
:1049100080EE92E0998388830E9412338889998976
:10492000009739F0DC01ED91FC910280F381E02DDC
:1049300019958A899B89009749F0DC01ED91FC91DA
:104940000280F381E02DDF91CF911994DF91CF9117
:104950000895CF92DF92EF92FF920F931F93CF9320
:10496000DF93EC018CEF92E0998388838CE093E0F5
:104970009F878E878E010E5E1F4F6E018CE1C80EE1
:10498000D11CD801ED90FC90E114F10479F0F7010D
:1049900081819281009739F0DC01ED91FC910280D8
:1049A000F381E02D1995C7010E94FF3EF801119295
:1049B00011928F01EC15FD0521F70E941233AD8D88
:1049C000BE8D12962C911297222311F18D010D5359
:1049D0001F4F80E090E0F801419151918F01411506
:1049E000510509F45CC068897989FA0142815381D3
:1049F0006417750709F053C0880F991F8A0F9B1F12
:104A0000FC01ED53FF4F11821082215012962C931E
:104A10008FA198A5009739F0DC01ED91FC910280FF
:104A2000F381E02D199518A61FA28F8D98A10097EC
:104A300039F0DC01ED91FC910280F381E02D1995B4
:104A400018A21F8E89A19AA1009739F0DC01ED917F
:104A5000FC910280F381E02D19951AA219A28BA175
:104A60009CA1009739F0DC01ED91FC910280F3816B
:104A7000E02D19951CA21BA28DA19EA10097A9F063
:104A8000DC01ED91FC910280F381E02DDF91CF916B
:104A90001F910F91FF90EF90DF90CF9019940196A6
:104AA0008530910509F097CFB3CFDF91CF911F915A
:104AB0000F91FF90EF90DF90CF900895CF93DF9309
:104AC000EC010DDFCE01DF91CF910C94FF3ECF932F
:104AD000DF93EC011ADFCE01DF91CF910C94FF3E02
:104AE0007F928F929F92AF92BF92CF92DF92EF927E
:104AF000FF920F931F93CF93DF93CDB7DEB76F97DE
:104B00000FB6F894DEBF0FBECDBF7C01DC0112965C
:104B1000CC908FE090E00E946A3E8C01FC01C28242
:104B200080E1838383E295E09583848317821682F4
:104B300013861286158614861186108681E0868774
:104B400080EC92E091838083BE016C5E7F4FC80150
:104B50000E943115D82E0115110541F0D801ED91B3
:104B6000FC910280F381E02DC80119958FE090E05F
:104B70000E946A3E8C01FC01C28281E1838386E24D
:104B800095E0958384831782168213861286158694
:104B900014861186108681E0868780EC92E09183EE
:104BA0008083BE01685E7F4FC8010E943115D82204
:104BB0000115110541F0D801ED91FC910280F381BE
:104BC000E02DC80119958FE090E00E946A3E8C01AB
:104BD000FC01C28282E1838389E295E0958384832C
:104BE0001782168213861286158614861186108601
:104BF00081E0868780EC92E091838083BE01645ED1
:104C00007F4FC8010E943115D8220115110541F0CE
:104C1000D801ED91FC910280F381E02DC801199536
:104C20008FE090E00E946A3E8C01FC01C28283E129
:104C3000838385E795E095838483178216821386A4
:104C40001286158614861186108681E0868780EC90
:104C500092E091838083BE01605F7F4FC8010E9414
:104C60003115D8220115110541F0D801ED91FC91C3
:104C70000280F381E02DC80119958FE090E00E9439
:104C80006A3E8C01FC01C28284E1838389E795E05E
:104C9000958384831782168213861286158614865E
:104CA0001186108681E0868780EC92E09183808374
:104CB000BE01645F7F4FC8010E943115D8220115E3
:104CC000110541F0D801ED91FC910280F381E02DB6
:104CD000C80119958FE090E00E946A3E8C01FC01AA
:104CE000C28285E183838DE795E095838483178273
:104CF000168213861286158614861186108681E028
:104D0000868780EC92E091838083BE01685F7F4F4D
:104D1000C8010E943115D8220115110541F0D801B2
:104D2000ED91FC910280F381E02DC8011995DD2001
:104D300009F48CC078848C84B8889C88A88C0C8DED
:104D40001D8D003DB7E01B0710F0005D1740F70117
:104D5000C684D784C6010E94D61B811177C081E02A
:104D600080935E0888E68093800810925F08109216
:104D7000810860E087E09DE00E94D8061AE0872D58
:104D8000612F0E944C3A982F880F980F990F692F26
:104D9000670D87E09DE00E94D806882D612F0E9454
:104DA0004C3A682F660F860F682F660F680D87E0F4
:104DB0009DE00E94D8062B2D2F7B822F612F0E9411
:104DC0004C3A682F660F680F660F620F87E09DE010
:104DD0000E94D80660E087E09DE00E94D806892DF9
:104DE000612F0E944C3A982F880F980F990F692FC6
:104DF000690D87E09DE00E94D8068A2D612F0E94F0
:104E00004C3A682F660F860F682F660F6A0D87E091
:104E10009DE00E94D806802F612F0E944C3A682F97
:104E2000880F680F660F600F87E09DE00E94D8062C
:104E3000A4D60E94E30840931906C6010E94401CB4
:104E4000C6010E94F21DC6010E94A61DC7010E9454
:104E500048016F960FB6F894DEBF0FBECDBFDF914D
:104E6000CF911F910F91FF90EF90DF90CF90BF9067
:104E7000AF909F908F907F900895CF93DF93EC0138
:104E80001A821B8281E895E09D838C831F821E829B
:104E9000198618868DE29FE09B878A87DD87CC87FD
:104EA00082EF92E0998388838FE090E00E946A3ECF
:104EB000FC01128282E0838386E094E09583848300
:104EC000178216821186108681E086878AEE92E02C
:104ED00091838083FF87EE8788E491E093878287C0
:104EE000D587C4870E94123382E00E9454338E8596
:104EF0009F85009709F0029690931E0680931D06E9
:104F00001092200610921F06DF91CF910895089508
:104F1000CF92DF92EF92FF920F931F93CF93DF9385
:104F20006C017A018B01C0E0D0E0CE15DF0589F07D
:104F3000D8016D918D01D601ED91FC910190F08128
:104F4000E02DC6011995892B11F47E0102C021962E
:104F5000ECCFC701DF91CF911F910F91FF90EF90A0
:104F6000DF90CF900895FC01918D828D981759F0B4
:104F7000828DDF01A80FB11D5D968C91928D9F5F90
:104F8000928F90E008958FEF9FEF0895FC01918D2F
:104F9000828D981731F0828DE80FF11D858D90E09C
:104FA00008958FEF9FEF0895FC01918D828D981BDE
:104FB000892F90E008958BEC98E0F6DF21E0892BB3
:104FC00009F420E0822F089588EE9AE0EDDF21E0D9
:104FD000892B09F420E0822F0895FC01848DDF01E4
:104FE000A80FB11DA35EBE4F2C91848D90E0019659
:104FF000848FA689B7892C93A089B1898C9180640C
:105000008C93938D848D981306C00288F389E02DCC
:1050100080818F7D80830895EF92FF920F931F937D
:10502000CF93DF93EC0181E0888F9B8D8C8D98135B
:1050300005C0E889F989808185FD21C0F62E0B8D98
:1050400010E00F5F1F4FE02E8C8DE8120BC00FB6E3
:1050500007FCFACFE889F989808185FFF5CFCE0179
:10506000BCDFF2CF8B8DFE01E80FF11DE35EFE4F3A
:10507000F0820B8FEA89FB898081806207C0EE890C
:10508000FF896083E889F98980818064808381E079
:1050900090E0DF91CF911F910F91FF90EF900895D5
:1050A000CF93DF93EC01888D8823C1F0EA89FB89D7
:1050B000808185FD05C0A889B9898C9186FD0EC0C7
:1050C0000FB607FCF5CF808185FFF2CFA889B9899B
:1050D0008C9185FFEDCFCE0180DFE8CFDF91CF91BE
:1050E000089580E090E0892B19F06EDF811120C0D7
:1050F00080E090E0892B19F05EDF81111CC080E018
:1051000090E0892B41F080E090E0892B21F00E9413
:105110000000811113C080E090E0892BA1F080E0B5
:1051200090E0892B81F00E94000081110AC008954F
:105130000E940000DDCF0E940000E1CF0E9400002D
:10514000EACF0C94000008950C94FF3EAF92BF92FA
:10515000CF92DF92EF92FF920F931F93CF93DF9343
:105160001F92CDB7DEB75C017B018B016C0184E03F
:10517000C80ED11CF80161918F01C50169830E949D
:10518000E53F6981681719F0C5010E94ED3FFFEF07
:10519000AF1ABF0AAC14BD0469F7C7010F90DF91C5
:1051A000CF911F910F91FF90EF90DF90CF90BF9024
:1051B000AF900895AF92BF92CF92DF92EF92FF929D
:1051C0000F931F93CF93DF93CDB7DEB7E6970FB65C
:1051D000F894DEBF0FBECDBF7B016E0127E3C20E88
:1051E000D11C8E010D5C1F4F5B01A01AB10AC501D5
:1051F000800F911F0E94E53FF80181938F01EC150C
:10520000FD05A9F765E070E080E090E0FED68EA98C
:105210008F938DA98F938CA98F938BA98F93FF92D6
:10522000EF928EE895E09F938F93CE0101969F9326
:105230008F930E94A13B6BA97CA98DA99EA90FB653
:10524000F894DEBF0FBECDBFE6960FB6F894DEBF72
:105250000FBECDBFDF91CF911F910F91FF90EF90C7
:10526000DF90CF90BF90AF900895CF93DF93EC0184
:1052700063E680E090E00E94ED3F65E070E080E052
:1052800090E0C3D6E881F9810480F581E02D60E0EB
:10529000CE011995E881F9810190F081E02D60E05F
:1052A000CE01DF91CF911994FF920F931F93CF936B
:1052B000DF93CDB7DEB72A970FB6F894DEBF0FBEE7
:1052C000CDBF8C012D833E834F8358876987872FFD
:1052D0007A8768857985811103C040E050E002C07B
:1052E00040E157E2FD80D80112968C9112971396F7
:1052F000ED91FC91149732969E81292F30E0B4E60F
:10530000FB9E200D311D1124240F351F3A83298364
:105310007C836B83BE016F5F7F4F9F0144E0849F5E
:10532000200D311D1124C90111DF65E070E080E01E
:1053300090E06BD6D801ED91FC91119712966C918B
:105340006F5F0190F081E02DC801199581E02A96E8
:105350000FB6F894DEBF0FBECDBFDF91CF911F9186
:105360000F91FF900895EF92FF920F931F93CF93A9
:10537000DF93CDB7DEB760970FB6F894DEBF0FBEF0
:10538000CDBF8C012B873C874D875E876F87788BDD
:10539000F12CF8018281F816D0F4D801ED91FC913E
:1053A0000684F785E02D6F2DC801199529833A836E
:1053B0004B835C836D837E839C858D855B85251304
:1053C00004C0391302C0481721F0F394E2CF80E003
:1053D00035C0F801238134812E5F3F4FC901A4E01D
:1053E000FA9E800D911D11247C01019681F3D80154
:1053F00012969C919150B901B4E09B9F600D711D74
:105400001124C801D7DE6F83788789879A87BE0108
:10541000695F7F4FC7019ADE65E070E080E090E051
:10542000F4D5D801ED91FC91119712966C916150D1
:105430000190F081E02DC801199581E060960FB6CA
:10544000F894DEBF0FBECDBFDF91CF911F910F91BA
:10545000FF90EF9008951F93CF93DF93EC01162FE9
:105460008B819C8101960E94ED3F65E070E080E0B9
:1054700090E0CBD51A83DF91CF911F9108950F93C0
:105480001F93CF938C01FC018381948101960E942C
:10549000E53FC82F65E070E080E090E0B6D5F80108
:1054A000C2838C2FCF911F910F910895CF93FC0150
:1054B000838194810E94E53FC82F65E070E080E021
:1054C00090E0A3D581E0C11101C080E0CF910895A3
:1054D000FC01838194810E94ED3F65E070E080E0F3
:1054E00090E093C5CF92DF92EF92FF921F93CF93FC
:1054F000DF93CDB7DEB72C970FB6F894DEBF0FBEA3
:10550000CDBFFC01238134812E5F3F4FA901E4E030
:105510006E9F400D511D1124BA014CDE6B017C01C0
:105520009B0111E06031F7E27F0710F410E006C044
:10553000CB0160E177E20E94583A9C01C90164E620
:1055400070E00E94583A698344E6649F2019112450
:105550002A83FD82EC821B82CE0101960E94290BD8
:105560001E8386E0FE013196DE01179601900D92B2
:105570008A95E1F72F81388549855A856B857C8529
:1055800080E090E02C960FB6F894DEBF0FBECDBF42
:10559000DF91CF911F91FF90EF90DF90CF90089512
:1055A000EF92FF920F931F93CF93DF93EC01198239
:1055B00018821B821A821D821C826115710549F1B5
:1055C0008B01FB0101900020E9F731977F01E61A7A
:1055D000F70AB7010E94CD0E2881398181110DC0D3
:1055E0002115310519F0C9010E94FF3E1982188268
:1055F0001D821C821B821A820CC0FD82EC82B801C3
:10560000C901DF91CF911F910F91FF90EF900C9402
:105610009A3BDF91CF911F910F91FF90EF900895EA
:105620001F920F920FB60F9211240BB60F922F9369
:105630003F934F935F936F937F938F939F93AF931A
:10564000BF93EF93FF93E0910E02F0910F02199533
:10565000FF91EF91BF91AF919F918F917F916F914A
:105660005F914F913F912F910F900BBE0F900FBE06
:105670000F901F9018951F920F920FB60F92112442
:105680000BB60F922F933F934F935F936F937F933C
:105690008F939F93AF93BF93EF93FF93E0910C028F
:1056A000F0910D021995FF91EF91BF91AF919F91EC
:1056B0008F917F916F915F914F913F912F910F90BB
:1056C0000BBE0F900FBE0F901F9018951F920F9258
:1056D0000FB60F9211240BB60F922F933F934F9357
:1056E0005F936F937F938F939F93AF93BF93EF934A
:1056F000FF93E0910202F09103021995FF91EF915F
:10570000BF91AF919F918F917F916F915F914F91D9
:105710003F912F910F900BBE0F900FBE0F901F90D7
:1057200018951F920F920FB60F9211240BB60F927D
:105730002F933F934F935F936F937F938F939F9399
:10574000AF93BF93EF93FF93E0910002F0910102BA
:105750001995FF91EF91BF91AF919F918F917F919B
:105760006F915F914F913F912F910F900BBE0F90D2
:105770000FBE0F901F9018951F920F920FB60F92A9
:1057800011240BB60F922F933F934F935F936F9318
:105790007F938F939F93AF93BF93EF93FF93E0918A
:1057A0000A02F0910B021995FF91EF91BF91AF9111
:1057B0009F918F917F916F915F914F913F912F9129
:1057C0000F900BBE0F900FBE0F901F9018951F9259
:1057D0000F920FB60F9211240BB60F922F933F9397
:1057E0004F935F936F937F938F939F93AF93BF93E9
:1057F000EF93FF93E0910802F09109021995FF9150
:10580000EF91BF91AF919F918F917F916F915F9138
:105810004F913F912F910F900BBE0F900FBE0F90A5
:105820001F9018951F920F920FB60F9211240BB66E
:105830000F922F933F934F935F936F937F938F9329
:105840009F93AF93BF93EF93FF93E0910602F09184
:1058500007021995FF91EF91BF91AF919F918F91A1
:105860007F916F915F914F913F912F910F900BBE60
:105870000F900FBE0F901F9018951F920F920FB6AA
:105880000F9211240BB60F922F933F934F935F9378
:105890006F937F938F939F93AF93BF93EF93FF93F8
:1058A000E0910402F09105021995FF91EF91BF91EB
:1058B000AF919F918F917F916F915F914F913F91A8
:1058C0002F910F900BBE0F900FBE0F901F90189549
:1058D0006115710579F0FB0101900020E9F731971E
:1058E000AF01461B570BDC01ED91FC910280F38167
:1058F000E02D199480E090E008951F920F920FB66A
:105900000F9211240BB60F922F933F934F935F93F7
:105910006F937F938F939F93AF93BF93EF93FF9377
:105920008BEC98E05ADBFF91EF91BF91AF919F9183
:105930008F917F916F915F914F913F912F910F9038
:105940000BBE0F900FBE0F901F9018951F920F92D5
:105950000FB60F9211240BB60F922F938F939F9334
:10596000EF93FF93E091DB08F091DC088081E091F8
:10597000E108F091E20882FD11C090818091E40875
:105980008F5F2091E508821751F0E091E408F0E084
:10599000E553F74F958F8093E40801C08081FF9114
:1059A000EF919F918F912F910F900BBE0F900FBE93
:1059B0000F901F9018951F920F920FB60F921124FF
:1059C0000BB60F922F933F934F935F936F937F93F9
:1059D0008F939F93AF93BF93EF93FF9388EE9AE0DB
:1059E000FCDAFF91EF91BF91AF919F918F917F91E1
:1059F0006F915F914F913F912F910F900BBE0F9040
:105A00000FBE0F901F9018951F920F920FB60F9216
:105A100011240BB60F922F938F939F93EF93FF93C5
:105A2000E091F80AF091F90A8081E091FE0AF09184
:105A3000FF0A82FD11C090818091010B8F5F209140
:105A4000020B821751F0E091010BF0E0E851F54FA5
:105A5000958F8093010B01C08081FF91EF919F9101
:105A60008F912F910F900BBE0F900FBE0F901F9034
:105A7000189508950F931F930E94770E6093D30893
:105A80007093D4088093D5089093D608E091CB0802
:105A9000F091CC080680F781E02D8BEC98E0199509
:105AA00097FF1FC00E94770E0091D3081091D40871
:105AB0002091D5083091D608DC01CB01801B910BD9
:105AC000A20BB30B0091CF081091D0082091D10800
:105AD0003091D20880179107A207B307B8F28FEF71
:105AE0009FEF1F910F9108959091A8089111FCCFFD
:105AF000813208F080E291E09093A8089093A70883
:105B00002FEF2093A6081092A508280F2093A40831
:105B10009093A3089091A308906D9093A3089091FF
:105B2000A208913061F41092A2089091A30890937A
:105B3000BB009091BC0093FDF8CF95EC01C095EEB1
:105B40009093BC009091A8089130E1F39091A50842
:105B5000981710F48091A508A2E8B8E02BEA38E085
:105B6000F9019E2F921B981718F49D919193F9CFEC
:105B70001092AA088093A908089520918108909115
:105B80008008213208F04AC08091A8088111FCCF1A
:105B900032E03093A80831E03093A7083FEF30930C
:105BA000A6081092A5082093A408A0E6B8E042E851
:105BB00058E0FA013E2F341B321718F43D9131930F
:105BC000F9CF1092A3082091A308990F922B9093DC
:105BD000A3089091A208913061F41092A2089091CC
:105BE000A3089093BB009091BC0093FDF8CF95EC77
:105BF00001C095EE9093BC009091A8089230E1F31B
:105C00009091A6089F3F79F08091A608803241F0DC
:105C10008091A608803331F084E005C081E003C0A4
:105C200082E001C083E010925F0810928108109218
:105C30005E080895FC01A089B18982E08C93A48557
:105C4000B5851C92A685B78580E18C93108EA489BA
:105C5000B58986E08C93A289B3898C9180618C93FD
:105C6000A289B3898C9188608C93A289B3898C9125
:105C700080688C930288F389E02D80818F7D8083FA
:105C800008958F929F92AF92BF92CF92DF92EF9240
:105C9000FF920F931F93CF93DF93CDB7DEB7A197FA
:105CA0000FB6F894DEBF0FBECDBF6C01990FEE08A2
:105CB000FF08F7FE32C0E091E80AF091E90A01908E
:105CC000F081E02D6DE288EE9AE019958C01222793
:105CD0003327A9012C193D094E095F0919A2CE01EC
:105CE00081967C019AE0892E912CA12CB12CCA01BD
:105CF000B901A50194010E947F3A605DF7016293AA
:105D00007F01211531054105510589F7BF0188EE55
:105D10009AE0DEDD080F191F1FC0A701960119A226
:105D20008E010F5D1F4F8AE0C82ED12CE12CF12C83
:105D3000CA01B901A70196010E947F3A605DF8018E
:105D400062938F01211531054105510589F7BF0186
:105D500088EE9AE0BDDD8C0165EB75E088EE9AE097
:105D6000B7DD800F911FA1960FB6F894DEBF0FBE6E
:105D7000CDBFDF91CF911F910F91FF90EF90DF90FA
:105D8000CF90BF90AF909F908F900895EF92FF9229
:105D90000F931F93CF93DF9300D01F92CDB7DEB741
:105DA00019821A821B821C8284E690E0A0E0B0E097
:105DB0008093CF089093D008A093D108B093D208D5
:105DC0008E010F5F1F4F7E0185E0E80EF11C52DE51
:105DD00097FF04C08981813091F407C0F801819355
:105DE0008F01EE15FF0599F7F5CF8A818F3F39F4C2
:105DF0008B818F3F21F481E09C819F3F09F080E0FF
:105E00000F900F900F900F90DF91CF911F910F91F6
:105E1000FF90EF900895CF93DF93BC0188EE9AE056
:105E200057DDEC0165EB75E088EE9AE051DD8C0FF3
:105E30009D1FDF91CF910895CF92DF92EF92FF9255
:105E40000F931F93CF93DF93CDB7DEB728970FB68D
:105E5000F894DEBF0FBECDBFFE01319628E0DF0112
:105E60001D922A95E9F7009711F480E03AC08C0161
:105E700084E690E0A0E0B0E08093CF089093D00853
:105E8000A093D108B093D2087F01C12CD12CF2DDB0
:105E900097FDEBCFF70181937F01FFEFCF1ADF0A68
:105EA00088E0C816D10499F789818137F1F68E818F
:105EB0008F3FD9F68F818F3FC1F688858F3FA9F636
:105EC0004B8150E0542F44278A81482B052E000C2B
:105ED000660B770BD8014D935D936D937C9313976D
:105EE00081E028960FB6F894DEBF0FBECDBFDF91DC
:105EF000CF911F910F91FF90EF90DF90CF90089579
:105F000090E0FC013197E231F10508F04EC088279E
:105F1000EE58FF4F8F4F0C94A13A809180008F77FD
:105F200003C0809180008F7D8093800008958091D0
:105F30008000877FF9CF84B58F7702C084B58F7DCD
:105F400084BD08958091B0008F7703C08091B00028
:105F50008F7D8093B0000895809190008F7707C067
:105F6000809190008F7D03C080919000877F809307
:105F7000900008958091A0008F7707C08091A000C5
:105F80008F7D03C08091A000877F8093A00008953B
:105F9000809120018F7707C0809120018F7D03C001
:105FA00080912001877F8093200108951F93CF93D4
:105FB000DF93282F30E0F901EE51FE4F8491F90173
:105FC000E456FE4FD491F901EA5AFE4FC491CC2316
:105FD000C1F0162F811194DFEC2FF0E0EE0FFF1FC0
:105FE000E45CFE4FA591B4918FB7F894111105C0F0
:105FF0009C91ED2FE095E92302C0EC91ED2BEC9301
:106000008FBFDF91CF911F9108958F929F92AF9292
:10601000BF92CF92DF92EF92FF926B017C010E94C0
:10602000520E4B015C01C114D104E104F104F1F002
:106030000E94520EDC01CB0188199909AA09BB09FB
:10604000883E9340A105B10570F321E0C21AD10842
:10605000E108F10888EE880E83E0981EA11CB11CAF
:10606000C114D104E104F10419F7DDCFFF90EF90E2
:10607000DF90CF90BF90AF909F908F9008959F92A8
:10608000AF92BF92CF92DF92EF92FF920F931F9346
:10609000CF93DF93CDB7DEB728970FB6F894DEBF66
:1060A0000FBECDBF8C010E94E308A22E932EB52E09
:1060B0006B0129833A834B835C836D83DE828F83FC
:1060C000D8011296EC908FE090E048870E946A3EDB
:1060D0008C01FC01E28280E1838383E295E0958379
:1060E000848317821682138612861586148611867B
:1060F000108681E0868780EC92E0918380834885DA
:1061000050E060E070E0C8010E94DF14F82E011535
:10611000110541F0D801ED91FC910280F381E02D51
:10612000C80119958FE090E00E946A3E8C01FC0145
:10613000E28281E1838386E295E0958384831782FE
:10614000168213861286158614861186108681E0C3
:10615000868780EC92E091838083492D50E060E057
:1061600070E0C8010E94DF14F8220115110541F00A
:10617000D801ED91FC910280F381E02DC8011995C1
:106180008FE090E00E946A3E8C01FC01E28282E195
:10619000838389E295E09583848317821682138630
:1061A0001286158614861186108681E0868780EC1B
:1061B00092E0918380834A2D50E04053584F052E42
:1061C000000C660B770BC8010E94DF14F822011542
:1061D000110541F0D801ED91FC910280F381E02D91
:1061E000C80119958FE090E00E946A3E8C01FC0185
:1061F000E28283E1838385E795E095838483178238
:10620000168213861286158614861186108681E002
:10621000868780EC92E0918380834B2D50E060E094
:1062200070E0C8010E94DF14F8220115110541F049
:10623000D801ED91FC910280F381E02DC801199500
:106240008FE090E00E946A3E8C01FC01E28284E1D2
:10625000838389E795E0958384831782168213866A
:106260001286158614861186108681E0868780EC5A
:1062700092E0918380834C2D50E060E070E0C80193
:106280000E94DF14F8220115110541F0D801ED91AB
:10629000FC910280F381E02DC80119958FE090E018
:1062A0000E946A3E8C01FC01E28285E183838DE7D6
:1062B00095E095838483178216821386128615864D
:1062C00014861186108681E0868780EC92E09183A7
:1062D00080834D2D50E060E070E0C8010E94DF1423
:1062E000F8220115110541F0D801ED91FC910280D1
:1062F000F381E02DC80119958F2D28960FB6F894DB
:10630000DEBF0FBECDBFDF91CF911F910F91FF90E8
:10631000EF90DF90CF90BF90AF909F9008950C9436
:10632000FF3ECF92DF92EF92FF920F931F93CF9396
:10633000DF9300D01F92CDB7DEB78C01BE016F5F37
:106340007F4FFC01808D918D0E94FC15C980DA8001
:10635000EB80FC80672B682B692B59F061E0CD281E
:10636000CE28CF2809F460E0F801828D938D0E9439
:10637000A7080F900F900F900F90DF91CF911F9172
:106380000F91FF90EF90DF90CF900895EF92FF92E2
:106390000F931F93CF93DF93CDB7DEB72A970FB636
:1063A000F894DEBF0FBECDBF8C01FC01E688F788F4
:1063B00061EB74E0CE010196F3D8F7016481758139
:1063C000CE0101960E94F40E66EB74E0CE010196B8
:1063D0000E94F40E89819A810E941714CE010796BB
:1063E0002BDDF82ECE0101960E94280F4F81588593
:1063F00069857A85FF2071F0F801828D938D452B98
:10640000462B472B29F060E070E00E94460B02C04B
:106410000E941E1D2A960FB6F894DEBF0FBECDBF98
:10642000DF91CF911F910F91FF90EF900895089504
:10643000CF92DF92EF92FF920F931F93CF93DF9350
:10644000CDB7DEB765970FB6F894DEBF0FBECDBFF0
:106450008C01FC018281898389E18A8388EB95E044
:106460009C838B831E821D821A8619861C861B863E
:1064700018861F82BE01605F7F4FCE0101960E9489
:106480003B1421E0C888D988EA88FB88CD28CE282B
:10649000CF2809F420E0F801278B672B682B692BA4
:1064A00011F480E0B0C0EE24E394622F6E25F80171
:1064B000828993890E946715F80187898111A3C099
:1064C0008281898387E18A838FEB95E09C838B832C
:1064D0001E821D821A8619861C861B8618861F82BC
:1064E000BE01605F7F4FCE0101960E943B14288958
:1064F000F801268B672B682B692B99F2622F868512
:1065000097850E944718288B398B4A8B5B8B6C8B45
:106510007D8BF80182818B8382E08C8383E295E01E
:106520009E838D8318861F821C861B861E861D8671
:106530001A861986EF8680ECC82E82E0D82EDA8281
:10654000C982422F50E060E070E0CE0101960E94C7
:10655000DF14F82E4989F80182818B8383E08C83D4
:1065600086E295E09E838D8318861F821C861B869B
:106570001E861D861A861986EF86DA82C98250E049
:1065800060E070E0CE0101960E94DF14F8224B8992
:106590005C89F80182818B8385E08C8389E295E0B8
:1065A0009E838D8318861F821C861B861E861D86F1
:1065B0001A861986EF86DA82C98260E070E0CE0121
:1065C00001960E94DF14F8224D89F80182818B83A5
:1065D00085E18C8386EA93E09E838D8318861F82F3
:1065E0001C861B861E861D861A861986EF8688ECF9
:1065F00092E09A83898350E060E070E0CE010196DA
:106600000E94AA158F2165960FB6F894DEBF0FBEC3
:10661000CDBFDF91CF911F910F91FF90EF90DF9051
:10662000CF900895EDE1F6E01192119286E0EB3300
:10663000F807D1F71092690E0895CF93DF93EC011C
:106640008EE793E099838883EDDF8C899D8900979D
:1066500039F0DC01ED91FC910280F381E02D199578
:1066600088899989009739F0DC01ED91FC910280CD
:10667000F381E02D19958A899B89009749F0DC0107
:10668000ED91FC910280F381E02DDF91CF9119947F
:10669000DF91CF910895CF93DF93EC01CEDFCE0150
:1066A000DF91CF910C94FF3ECF93DF931F92CDB734
:1066B000DEB79091690E992319F08983B3DF898140
:1066C0008093690E0F90DF91CF9108950895CF9335
:1066D000DF93CDB7DEB7A7970FB6F894DEBF0FBE36
:1066E000CDBF789484B5826084BD84B5816084BD5B
:1066F00085B5826085BD85B5816085BD80916E0060
:10670000816080936E001092810080918100826090
:1067100080938100809181008160809381008091CD
:1067200080008160809380008091B10084608093BC
:10673000B1008091B00081608093B00080919100A1
:10674000826080939100809191008160809391009C
:10675000809190008160809390008091A100826080
:106760008093A1008091A10081608093A10080911D
:10677000A00081608093A0008091210182608093BD
:10678000210180912101816080932101809120016C
:1067900081608093200180917A00846080937A00E8
:1067A00080917A00826080937A0080917A00816083
:1067B00080937A0080917A00806880937A001092AA
:1067C000C10088EE9AE036DA0EE110E064E670E08F
:1067D00080E090E01ADC01501109C1F71092AA087C
:1067E0001092A90810925F08109281081092A808D0
:1067F00081E08093A7081092A20861E084E1D6DBD3
:1068000061E085E1D3DB8091B9008E7F8093B90090
:106810008091B9008D7F8093B90088E48093B8009F
:1068200085E48093BC0085E090E00E946A3E8C0184
:10683000DC0112961C92129782E392E08D939C9356
:1068400080E090E00E94E53FF82E65E070E080E097
:1068500090E0DBDBB3E6FB1619F0C8010E94352996
:1068600081E090E0F80194838383C8010E943F2A6D
:1068700010931806009317068EEC90E00E946A3E73
:106880007C010E94211BF0921606E0921506E1148D
:10689000F10439F48EEC90E00E946A3E7C010E9483
:1068A000211B5701FDECAF0EB11CD501CC90D12CB2
:1068B000F8018281D816A0F4D801ED91FC910684EC
:1068C000F785E02D6D2DC80119952F8F38A349A3A9
:1068D0005AA36BA37CA3C7010E941F1AD394E8CFCD
:1068E000CC2079F10190F081E02D0190F081E02D34
:1068F000E114F10421F460E0C801199522C0D5012A
:106900006C91C8011995C12CD12CD5018C9190E0C6
:10691000C816D906B4F4D801ED91FC918284938411
:106920006C2DC7010E944718298F3A8F4B8F5C8FBF
:106930006D8F7E8FC801F4011995FFEFCF1ADF0A22
:10694000E4CF87E190E00E946A3E8C0180911506B9
:10695000909116062091140230911502A9014F5F03
:106960005F4F5093150240931402F8013383228342
:1069700022E632E03183208310921A0690878783C3
:10698000B8010E94E01AC8010E94401CD8011B9661
:106990001C92E3EAF1E02491EDE5F1E08491882393
:1069A00099F090E0880F991FFC01E85FFE4FA591D8
:1069B000B491FC01E45CFE4F859194918FB7F894FB
:1069C000EC91E22BEC938FBFF801148616821582AE
:1069D00084E090E00E946A3EDC011D921D921D92AF
:1069E0001C921397F801928781875A9A5298818551
:1069F00092850E94A3098EEC96E190930102809308
:106A0000000280916A008C7F826080936A00EC9A19
:106A1000D8011996ED90FC901A974DE16EE0C701F0
:106A20000E94700940E867E0C7010E94700940E8D1
:106A300068E0C7010E94700940E869E0C7010E9450
:106A4000700940E86AE0C7010E9470090E94E308EB
:106A50002A8B3B8B4C8B5D8B6E8B7F8B888F40930F
:106A60001906F80116861586108A1786128A118A69
:106A7000148A138A168A158A10931C0600931B0623
:106A800082E090E00E946A3E7C0180E792E0D701BC
:106A90008D939C93109314060093130680E190E06D
:106AA0000E946A3E8C010E943D27109312060093BB
:106AB000110662E370E080E090E0A7DA8BEC98E0EA
:106AC000B9D887EB95E00E94171482EA94E00E94FF
:106AD00017145CD9182F8AEA94E00E94171456D92B
:106AE000112309F429C2882309F426C2F092400632
:106AF000E0923F0680911B0690911C060E94701D3B
:106B00008C0161E070E080E090E07FDAC8010E94D3
:106B1000FF3E80901B0690901C0667E17DE0C4015B
:106B20000E94381EA0901506B090160663E17DE025
:106B3000C5010E94E01A86E090E00E946A3E7C0156
:106B4000C0901706D09018068091160290911702F7
:106B50009C012F5F3F4F3093170220931602F701DD
:106B60009383828386E892E091838083D582C48276
:106B7000F0923E06E0923D0686E090E00E946A3E7A
:106B80008C0180911402909115029C012F5F3F4F60
:106B90003093150220931402D80113969C938E9380
:106BA000129788E792E011969C938E931596DC924B
:106BB000CE92149710933C0600933B06B701C40194
:106BC0000E94381EB801C5010E94E01AD601ED915D
:106BD000FC910680F781E02DC6011995682F809100
:106BE0001B0690911C060E94A7080EE311E08BEC97
:106BF00098E00E94D427181619060CF04CC06AE0E1
:106C000070E080E090E001DA8BEC98E00E94B3271E
:106C1000F82EB5E68B13EBCF8BEC98E00E94D427CF
:106C200006972CF3F092410652E4E52E56E0F52E3D
:106C30008BEC98E00E94B327F70181937F01F8E481
:106C4000EF16F6E0FF06A1F7109248068091450680
:106C50008F3F69F6809146068F3F49F6809147063F
:106C60008F3F29F64091440650E060E070E080914B
:106C7000430690914206EDE1F6E0A191B1911097A3
:106C800009F4B5CF2C912913F8CF11962C911197B7
:106C90002813F3CF59C1E0901B06F0901C06809199
:106CA0001A06882309F440C010921A060E94E308CD
:106CB000D42E2B873C87DD865E876F87788B898B08
:106CC000C7016EA35DA37FA30E94D61BD7011596B3
:106CD000ED91FC9116974EA15DA17FA1882371F0E3
:106CE000868197810196978386832381348121153C
:106CF000310571F08217930758F049C1309741F080
:106D0000272F652FCF010E94571B882309F443C109
:106D1000C7010E94F21D809119068D1529F0C70147
:106D20000E94A61DD0921906F701E184F2846FE05B
:106D3000C7010E948D09482F4E7F6FE0C7010E9456
:106D400070093DE0F32E4AE0E42E88EE9AE00E94BE
:106D5000D427892B09F4EDC088EE9AE00E94B3276E
:106D6000E0911F0EEC3F18F010931C0E54C08823C6
:106D700031F08E3321F08D3011F08A3081F5809121
:106D80001B0E882309F447C080911A0E811143C05D
:106D900010921C0E10931A0E10921B0E80911D0E55
:106DA00090911E0E0197A1F4AE2FB0E0A55EB24FF8
:106DB0000C93A1E0AE0FB0E0A55EB24FFC9283E071
:106DC0008E0F80931F0EEE5FF0E0E55EF24FE082E3
:106DD000E0911F0EF0E0E55EF24F10821CC08C3394
:106DE00071F410921C0E10931B0E10921A0E20912B
:106DF0001D0E30911E0E2130310569F404C09091B2
:106E00001B0E992341F091E09E0F90931F0EF0E02E
:106E1000E55EF24F808380911A0E882309F483C0C7
:106E200020911F0E90E080E0921788F4E92FF0E0A7
:106E3000E55EF24F3081432F4F7D39F0393029F034
:106E40008F5F9F5F9213FDCFEFCF9F5FEDCF8823C2
:106E500009F458C090E0880F991F3CD7982EA92EAE
:106E600020E0B12C60E080911F0EB816A0F4EB2D4D
:106E7000F0E0E55EF24F8081893069F0982F9F7DC8
:106E800051F091E0920FE1E0F0E0EC0FFD1FE20F16
:106E9000F11D80832BC0222321F1E1E0F0E0EC0F13
:106EA000FD1FE20FF11D108288248394860EC92CE9
:106EB000DA2CC60ED11CC60ED11CCE0101960E9442
:106EC000973FD6018D939C93292D3A2D280D311D86
:106ED000280D311DF9013297808191810E94412E48
:106EE000682D80911F0EB81620F490E0B394292FDE
:106EF000BACF662339F0892D9A2D0E94980B892DDF
:106F00009A2D7DD7EBE1FDE01192BEE0EA31FB075F
:106F1000D9F710921A0E80911C0E80931B0E1092BE
:106F20001C0E10921F0E61E070E080E090E06DD8C2
:106F30000CCF0E9471285BCE8091110690911206B1
:106F400002960E94B014D2CD413051056105710501
:106F500061F41496ED91FC911597309709F447CEA2
:106F600016968D919C91179710C0452B462B472B59
:106F700009F03DCE1896ED91FC911997309709F4E0
:106F800036CE1A968D919C911B97199530CEC701DC
:106F90000E941E1DBDCEC7010E94F71BB9CECF9324
:106FA000DF93EC010E94E91FCE01DF91CF9127C74B
:106FB0000E97F5CF0E970C94E91F8F92CF92DF9228
:106FC000EF92FF920F931F93CF93DF93CDB7DEB76E
:106FD0002C970FB6F894DEBF0FBECDBF9C01882D55
:106FE00065E05AD261E0680FC9010E972C960FB682
:106FF000F894DEBF0FBECDBFDF91CF911F910F91EF
:10700000FF90EF90DF90CF908F900C94D6238F92CB
:10701000CF92DF92EF92FF920F931F93CF93DF9364
:10702000CDB7DEB72C970FB6F894DEBF0FBECDBF3D
:107030009C01882D65E030D261E0680FC9012C9673
:107040000FB6F894DEBF0FBECDBFDF91CF911F9179
:107050000F91FF90EF90DF90CF908F900C94D623FC
:107060000F93CF93DF9300D000D0CDB7DEB79C0154
:10707000002319F08FEF800F01C080E065E00CD293
:1070800061E0680FC90126960FB6F894DEBF0FBE07
:10709000CDBFDF91CF910F910C94D6230F93CF9357
:1070A000DF9300D000D0CDB7DEB70E97D9DF26969C
:1070B0000FB6F894DEBF0FBECDBFDF91CF910F9119
:1070C00008950F93CF93DF9300D000D0CDB7DEB7F4
:1070D0009C01802F65E0E0D161E0680FC9010E9747
:1070E00026960FB6F894DEBF0FBECDBFDF91CF91CD
:1070F0000F910C94D6230F93CF93DF9300D000D041
:10710000CDB7DEB79C01802F65E0C6D161E0680F86
:10711000C90126960FB6F894DEBF0FBECDBFDF9132
:10712000CF910F910C94D6230E970C94A924CF9352
:10713000DF93EC010E94A924CE01DF91CF915FC6BD
:107140000E97F5CF1092CE081092CD0888EE93E0FE
:10715000A0E0B0E08093CF089093D008A093D1082E
:10716000B093D2082AE133E03093CC082093CB08C7
:107170004DEC50E05093D8084093D7084CEC50E0C9
:107180005093DA084093D90848EC50E05093DC085B
:107190004093DB0849EC50E05093DE084093DD0853
:1071A0004AEC50E05093E0084093DF084EEC50E08A
:1071B0005093E2084093E1081092E4081092E50829
:1071C0001092E6081092E7081092EB0A1092EA0A71
:1071D0008093EC0A9093ED0AA093EE0AB093EF0A25
:1071E0003093E90A2093E80A25EC30E03093F50A61
:1071F0002093F40A24EC30E03093F70A2093F60A47
:1072000020EC30E03093F90A2093F80A21EC30E0CA
:107210003093FB0A2093FA0A22EC30E03093FD0A07
:107220002093FC0A26EC30E03093FF0A2093FE0AFC
:107230001092010B1092020B1092030B1092040B90
:107240001092250E1092260E1092290E10922B0EDF
:1072500042E050E060E070E040932C0E50932D0E21
:1072600060932E0E70932F0E1092430E10924D0EBF
:1072700010924C0E2AE233E030934B0E20934A0ECC
:1072800010924F0E20E52093050D1092060D1092DE
:107290000A0D1092090D80930B0D90930C0DA09385
:1072A0000D0DB0930E0D82E393E09093080D809343
:1072B000070DEBE1FDE011928EE0EA31F807D9F716
:1072C00010921A0E80911C0E80931B0E10921C0EB1
:1072D00010921F0E10921E0E10921D0E809116021B
:1072E000909117029C012F5F3F4F3093170220931C
:1072F000160290931A0D8093190D8EE693E09093E9
:10730000180D8093170D80911402909115029C0125
:107310002F5F3F4F30931502209314029093160D68
:107320008093150D80E593E09093140D8093130DD9
:107330000895EF92FF920F931F93CF93DF93CDB7F2
:10734000DEB729970FB6F894DEBF0FBECDBFE98236
:10735000FA820B831C832D833E834F835887698772
:107360000E97DC01ED91FC910190F081E02D2996C2
:107370000FB6F894DEBF0FBECDBFDF91CF911F9146
:107380000F91FF90EF901994EF92FF920F931F933C
:10739000CF93DF93CDB7DEB729970FB6F894DEBF52
:1073A0000FBECDBFE982FA820B831C832D833E83FF
:1073B0004F8358876987DC01ED91FC910190F08142
:1073C000E02D29960FB6F894DEBF0FBECDBFDF913A
:1073D000CF911F910F91FF90EF901994DC01ED91E7
:1073E000FC910190F081E02D19940E97F7CF08954C
:1073F0000895EF92FF920F931F93CF93DF93CDB732
:10740000DEB72D970FB6F894DEBF0FBECDBF8C014F
:10741000DC015A968D919C915B972D874C876B87E9
:107420000E94D61B2D854C856B85882349F0D80199
:10743000ED91FC910190F081E02DC80119951DC0DE
:107440001F922F931F924F931F926F9385ED94E09D
:107450009F938F93FE0131967F01FF93EF9371D13C
:10746000B701D80154968D919C9155970E94731441
:107470000FB6F894DEBF0FBECDBF2D960FB6F894B1
:10748000DEBF0FBECDBFDF91CF911F910F91FF9057
:10749000EF9008950E97ADCF991B79E004C0991F26
:1074A000961708F0961B881F7A95C9F7809508955E
:1074B000AA1BBB1B51E107C0AA1FBB1FA617B7071A
:1074C00010F0A61BB70B881F991F5A95A9F7809536
:1074D0009095BC01CD01089597FB072E16F40094FA
:1074E00006D077FD08D0E4DF07FC05D03EF4909588
:1074F00081959F4F0895709561957F4F0895A1E202
:107500001A2EAA1BBB1BFD010DC0AA1FBB1FEE1F1D
:10751000FF1FA217B307E407F50720F0A21BB30B68
:10752000E40BF50B661F771F881F991F1A9469F7E4
:1075300060957095809590959B01AC01BD01CF0140
:107540000895EE0FFF1F881F8BBF0790F691E02D67
:1075500019946F927F928F929F92AF92BF92CF9227
:10756000DF92EF92FF920F931F93CF93DF93EC0183
:10757000009781F4CB01DF91CF911F910F91FF9084
:10758000EF90DF90CF90BF90AF909F908F907F90C3
:107590006F90A0C3FC01E60FF71F9C012250310938
:1075A000E217F30708F4A8C0D9010D911C911197B7
:1075B00006171707A8F00530110508F49BC0C8018D
:1075C00004978617970708F495C002501109061B07
:1075D000170B019311936D937C93CF0110D48AC044
:1075E0005B01A01AB10A4C01800E911EA0916C0E95
:1075F000B0916D0E40E050E0E12CF12C109709F4B1
:107600004AC0A815B905D1F56D907C90119763011A
:1076100082E0C80ED11CCA14DB0480F1A3014A1910
:107620005B096A0182E0C80ED11C1296BC901297C9
:107630001396AC91B5E0CB16D10440F0B282A3838F
:1076400051834083D9016D937C930AC00E5F1F4F15
:10765000C301800F911FF90191838083EB2DFA2FD5
:10766000E114F10431F0D7011396FC93EE931297D5
:1076700041C0F0936D0EE0936C0E3CC08D919C91D7
:1076800011974817590708F4AC017D0112960D9027
:10769000BC91A02DB3CF80916A0E90916B0E88158E
:1076A0009905E1F446175707C8F4809118029091A4
:1076B0001902009741F48DB79EB740911C0250917A
:1076C0001D02841B950BE817F907B0F4F0936B0EBD
:1076D000E0936A0EF901718360830CC0CB01FAD28A
:1076E0007C01009749F0A801BE011BD0CE0187D3D1
:1076F000C70104C0CE0102C080E090E0DF91CF91CD
:107700001F910F91FF90EF90DF90CF90BF90AF90BF
:107710009F908F907F906F90089581E090E0F89413
:107720006AC4FB01DC0102C001900D92415050403F
:10773000D8F70895FB01DC0101900D920020E1F7DC
:1077400008950F931F93CF93DF93CDB7DEB72E9796
:107750000FB6F894DEBF0FBECDBF0E891F8986E03D
:107760008C831A8309838FEF9FE79E838D83AE01FD
:10777000465E5F4F688D798DCE01019611D02F81C5
:107780003885F801E20FF31F10822E960FB6F89499
:10779000DEBF0FBECDBFDF91CF911F910F91089536
:1077A0002F923F924F925F926F927F928F929F9211
:1077B000AF92BF92CF92DF92EF92FF920F931F93FF
:1077C000CF93DF93CDB7DEB72C970FB6F894DEBF1B
:1077D0000FBECDBF7C016B018A01FC0117821682AE
:1077E000838181FFB0C1CE0101964C01F7019381E5
:1077F000F60193FD859193FF81916F01882309F430
:107800009EC1853239F493FD859193FF81916F017B
:10781000853221F4B70190E0C7D1E8CF512C312C4B
:1078200020E02032A0F48B3269F030F4803259F03D
:10783000833269F420612CC08D3239F0803339F401
:10784000216026C02260246023C0286021C027FD5B
:1078500027C030ED380F3A3078F426FF06C0FAE042
:107860005F9E300D1124532E13C08AE0389E300DD8
:107870001124332E20620CC08E3221F426FD5FC10C
:10788000206406C08C3611F4206802C0883641F4AA
:10789000F60193FD859193FF81916F018111C1CF15
:1078A000982F9F7D9554933028F40C5F1F4FFFE372
:1078B000F9830DC0833631F0833771F0833509F0D9
:1078C00057C021C0F801808189830E5F1F4F442477
:1078D0004394512C540114C03801F2E06F0E711C16
:1078E000F801A080B18026FF03C0652D70E002C0C2
:1078F0006FEF7FEFC5012C874CD12C0183012C85C4
:107900002F77222E16C03801F2E06F0E711CF8019D
:10791000A080B18026FF03C0652D70E002C06FEF2C
:107920007FEFC5012C872AD12C012C852068222EBF
:10793000830123FC19C0832D90E048165906A0F45A
:10794000B70180E290E030D13A94F5CFF50127FC01
:10795000859127FE81915F01B70190E025D131101B
:107960003A94F1E04F1A51084114510479F7DEC0FE
:10797000843611F0893631F5F80127FF07C06081A0
:107980007181828193810C5F1F4F08C0608171817A
:10799000072E000C880B990B0E5F1F4F2F76722E4F
:1079A00097FF09C090958095709561957F4F8F4F97
:1079B0009F4F2068722E2AE030E0A4012DD1A82E1E
:1079C000A81843C0853729F42F7EB22E2AE030E074
:1079D00025C0F22FF97FBF2E8F36C1F018F48835FD
:1079E00079F0ADC0803719F0883721F0A8C02F2F6B
:1079F0002061B22EB4FE0DC08B2D8460B82E09C05C
:107A000024FF0AC09F2F9660B92E06C028E030E000
:107A100005C020E130E002C020E132E0F801B7FE0D
:107A200007C060817181828193810C5F1F4F06C006
:107A30006081718180E090E00E5F1F4FA401ECD067
:107A4000A82EA818FB2DFF777F2E76FE0BC0372DB2
:107A50003E7FA51450F474FE0AC072FC08C0372D96
:107A60003E7E05C0BA2C372D03C0BA2C01C0B52C00
:107A700034FF0DC0FE01EA0DF11D8081803311F449
:107A8000397E09C032FF06C0B394B39404C0832F7B
:107A9000867809F0B39433FD12C030FF06C05A2C2B
:107AA000B31418F4530C5B18B32CB31460F4B7017F
:107AB00080E290E03C8778D0B3943C85F6CFB31455
:107AC00010F43B1801C0312C34FF11C0B70180E322
:107AD00090E03C8769D03C8532FF16C031FD03C081
:107AE00088E790E002C088E590E0B7010CC0832FE2
:107AF000867851F031FF02C08BE201C080E237FD91
:107B00008DE2B70190E050D0A51430F4B70180E3C6
:107B100090E04AD05A94F8CFAA94F401EA0DF11DEE
:107B20008081B70190E040D0A110F6CF332009F456
:107B30005DCEB70180E290E037D03A94F7CFF701FD
:107B40008681978102C08FEF9FEF2C960FB6F89435
:107B5000DEBF0FBECDBFDF91CF911F910F91FF9080
:107B6000EF90DF90CF90BF90AF909F908F907F90DD
:107B70006F905F904F903F902F900895FC0105907B
:107B8000615070400110D8F7809590958E0F9F1F1F
:107B90000895FC016150704001900110D8F7809564
:107BA00090958E0F9F1F08950F931F93CF93DF9390
:107BB000FB01238121FD03C08FEF9FEF28C022FF2F
:107BC00016C046815781248135814217530744F4FA
:107BD000A081B1819D012F5F3F4F318320838C9322
:107BE000268137812F5F3F4F3783268310C0EB01FB
:107BF000092F182F0084F185E02D1995892BE1F6C6
:107C00008E819F8101969F838E83812F902FDF919C
:107C1000CF911F910F910895FA01AA27283051F1B1
:107C2000203181F1E8946F936E7F6E5F7F4F8F4FAD
:107C30009F4FAF4FB1E03ED0B4E03CD0670F781F0C
:107C4000891F9A1FA11D680F791F8A1F911DA11DF1
:107C50006A0F711D811D911DA11D20D009F468942A
:107C60003F912AE0269F11243019305D3193DEF6D2
:107C7000CF010895462F4770405D4193B3E00FD088
:107C8000C9F7F6CF462F4F70405D4A3318F0495D73
:107C900031FD4052419302D0A9F7EACFB4E0A69556
:107CA0009795879577956795BA95C9F70097610578
:107CB000710508959B01AC010A2E069457954795CE
:107CC00037952795BA95C9F7620F731F841F951FC3
:107CD000A01D0895CF93DF938230910510F482E0C8
:107CE00090E0E0916C0EF0916D0E20E030E0C0E08D
:107CF000D0E0309711F14081518148175907C0F009
:107D00004817590761F482819381209719F09B836A
:107D10008A832BC090936D0E80936C0E26C0211524
:107D2000310519F04217530718F49A01BE01DF011B
:107D3000EF010280F381E02DDCCF2115310509F13F
:107D4000281B390B2430310590F412968D919C91AB
:107D500013976115710521F0FB019383828304C0A1
:107D600090936D0E80936C0EFD01329644C0FD0120
:107D7000E20FF31F81939193225031092D933C938D
:107D80003AC020916A0E30916B0E232B41F4209162
:107D90001A0230911B0230936B0E20936A0E2091D1
:107DA0001802309119022115310541F42DB73EB763
:107DB00040911C0250911D02241B350BE0916A0E6C
:107DC000F0916B0EE217F307A0F42E1B3F0B281760
:107DD000390778F0AC014E5F5F4F2417350748F044
:107DE0004E0F5F1F50936B0E40936A0E81939193D9
:107DF00002C0E0E0F0E0CF01DF91CF9108950F9352
:107E00001F93CF93DF93009709F48CC0FC01329746
:107E10001382128200916C0E10916D0E01151105E6
:107E200081F420813181820F931F20916A0E30915D
:107E30006B0E2817390779F5F0936B0EE0936A0EF5
:107E400071C0D80140E050E0AE17BF0750F4129661
:107E50002D913C911397AD012115310509F1D901FF
:107E6000F3CF9D01DA013383228360817181860F14
:107E7000971F8217930769F4EC0128813981260F37
:107E8000371F2E5F3F4F318320838A819B819383ED
:107E90008283452B29F4F0936D0EE0936C0E42C063
:107EA0001396FC93EE931297ED01499159919E011F
:107EB000240F351FE217F30771F480819181840F3D
:107EC000951F029611969C938E93828193811396AF
:107ED0009C938E931297E0E0F0E0D80112968D917A
:107EE0009C911397009719F0F8018C01F6CF8D91B2
:107EF0009C9198012E5F3F4F820F931F20916A0E35
:107F000030916B0E2817390769F4309729F41092D5
:107F10006D0E10926C0E02C01382128210936B0EC3
:107F200000936A0EDF91CF911F910F910895FC018C
:107F300088279927E89421912032E9F3293010F01D
:107F40002E30C8F32B3239F02D3231F4689403C04F
:107F50000BD0820F911D219120532A30C8F31EF4BB
:107F6000909581959F4F08957AE0979F902D879FD8
:107F7000802D910D11240895BB27FB015527AA27B9
:107F8000880F991FAA1FA41710F0A41B83955051A6
:107F9000B9F7A05DAA3308F0A95DA193009779F71E
:107FA000B111B1931192CB0100C0DC01FC01672F2C
:107FB00071917723E1F7329704C07C916D937083C0
:107FC0006291AE17BF07C8F30895F999FECF92BD2D
:107FD00081BDF89A992780B50895262FF999FECF8B
:107FE0001FBA92BD81BD20BD0FB6F894FA9AF99AD6
:107FF0000FBE0196089511E0C5E1D1E000E005C093
:10800000802FFE019EDA2196011DC631D10780E046
:088010000807B1F7F894FFCF57
:1080180087278727872787278727872787278727E8
:10802800FFFFFFFF0100010000006E0E800000004E
:10803800000066153C0F0000000016143A0F0000FF
:1080480000002B2A3529682A562A3F2A5429B329A1
:10805800722A392DA42800000000500E500E500E30
:10806800500E500E500E500E500E00000000000032
:1080780000000F1D001DE11CC109EB0900000000F4
:1080880017328F3100000000FD07CC077207250B5F
:108098002E08000000006307480747074607260B1D
:1080A800300800000000CD162A1700000000C21E8C
:1080B800E91FCF37EE39C439F939F839F2FF000032
:1080C800F53999394A3AF739DA37D83700000000D4
:1080D8001514340F00000000A915400F000000001F
:1080E80014143E0F000000001314380F00000000A5
:1080F8003F3085246725000000003416420F000039
:10810800000083246F245E25000000006D24A9244C
:1081180097387B3830380738F2FF000061384E381E
:10812800DD379438A038000000000C288827D427B1
:10813800B327C6275028000000003B1288270000FC
:108148000000D806A9066F065B064C064B06000021
:108158000000500E500E500E0000000000000000FD
:10816800370728070907280B340800000000500EBD
:10817800500E500E500E00000000000000000807CE
:10818800360807070607270B3208000000001832D8
:108198001D334B336D61696E506167652E6E65786E
:1081A80074506167654964006D61696E5061676507
:1081B8000073616174006330006274300062746E31
:1081C80054696D65724C697374006C69737450619D
:1081D80067650062746E59656E690062746E5265F7
:1081E800660062746E5067476572690062746E500B
:1081F80067496C6572690062746E476572690070E0
:10820800616765320062746E4B61796465740062FF
:10821800746E53696C0062300073616174506167F9
:1082280065006231002825642920253032753A25F9
:10823800303275202D2D20257520003C25752025F0
:10824800752025753E003C2575202575202575204F
:1082580025753E003C25752025752025752025753A
:108268002025752025752025752025752025753E26
:10827800003C25752025753E003C25752025752078
:1082880025752025752025752025753E003C25750A
:108298002025752025752025752025752025752014
:1082A80025752025753E0046726565206D656D2033
:1082B8003A00626B636D643D310070616765203020
:1082C8000067657420002E76616C002E7478743D0A
:1082D80022007061676520002E76616C3D0076692A
:1082E8007320002C00253032753A253032753A2536
:1082F8003032750063616C69736D615A616D616ECE
:1083080069006E65787443616C69736D610025302E
:1083180032753A253032753A25303275282D2900C4
:10832800253032753A253032753A25303275282590
:108338007529006E30006E31006E32006E756D6208
:1083480065724974656D257500736161744974655A
:108358006D257500737572654974656D25750061C5
:108368006B7469666C696B4974656D25750076690F
:108378007325750025752F257500706167654E7525
:108388006D626572006E3133006E3134006E3135C6
:10839800007374617274696E675061676500526535
:1083A800616420446F737961204B6179697420613D
:1083B80074203A2025642056616C75653A5B2575F2
:1083C8002C25755D000D0A006E65774F6E65006996
:0A83D80074656D496E64657800005D
:00000001FF
