:1000000007C1000035C1000033C1000031C100004C
:100010002FC100002DC100002BC1000029C100002C
:1000200027C1000025C1000023C1000021C100003C
:100030001FC100001DC100001BC1000019C100004C
:1000400017C1000015C1000013C1000011C100005C
:100050000FC100000DC100000BC1000073C60000FD
:1000600007C1000040C7000015C7000001C1000023
:10007000FFC00000FDC00000FBC00000F9C0000090
:10008000F7C00000F5C00000F3C00000F1C00000A0
:10009000EFC00000EDC00000EBC00000E9C00000B0
:1000A000E7C00000E5C00000E3C00000E1C00000C0
:1000B000DFC00000DDC00000DBC00000D9C00000D0
:1000C000D7C00000D5C00000D3C00000AEC60000FD
:1000D00083C60000CDC00000CBC00000C9C0000036
:1000E000C7C0000087018A0179017D018101C1013A
:1000F0008E01920198019C01A001A601AA01AE0106
:10010000C101B401B801BC0100000A0B02090C0DC9
:100110000E080703040100000000000000000000BA
:1001200000000000000000000000000000000000CF
:10013000000000001211100000000000000000008C
:1001400000000000000000000000000000000000AF
:100150002200250028002B002E003100340002016F
:100160000000050108010B01000021002400270008
:100170002A002D00300033000101000004010701B6
:100180000A0105050505070508080808020202021C
:100190000A0A080804040404010101010101010123
:1001A0000303030303030303040707070C0C0C0CEE
:1001B0000C0C0C0C020202020606060606060606D7
:1001C0000B0B0B0B0B0B0B0B010210202008081064
:1001D00020401020408002010201080402010102B7
:1001E0000408102040808040201008040201800490
:1001F00002018040201008040201080402010102EB
:100200000408102040800102040810204080A80744
:1002100011241FBECFEFD1E2DEBFCDBF00E00CBF87
:1002200013E0A0E0B2E0E0EBF3E200E00BBF02C0BD
:1002300007900D92AC34B107D9F727E0ACE4B3E0F6
:1002400001C01D92A23CB207E1F711E0C8E0D1E085
:1002500000E006C021970109802FFE010E949D0A3F
:10026000C730D10780E00807A9F7F1D60C94D61162
:10027000C7CE90E0FC01E853FE4F2491FC01EE57FD
:10028000FE4F8491882399F090E0880F991FFC011C
:10029000E859FE4FA591B491FC01E25BFE4F8591B8
:1002A00094918FB7F894EC91E22BEC938FBF089563
:1002B000362F90E0FC01E85FFE4F4491FC01E853CB
:1002C000FE4F2491FC01EE57FE4F9491992309F4BF
:1002D0006BC0442309F455C050E0FA013197E23174
:1002E000F10508F04EC08827EE58FF4F8F4F0C9451
:1002F0009D0A809180008F7707C0809180008F7D5C
:1003000003C080918000877F809380003AC084B5CD
:100310008F7702C084B58F7D84BD33C08091B000DB
:100320008F7703C08091B0008F7D8093B00029C08B
:10033000809190008F7707C0809190008F7D03C0DF
:1003400080919000877F809390001BC08091A000D7
:100350008F7707C08091A0008F7D03C08091A0009F
:10036000877F8093A0000DC0809120018F7707C008
:10037000809120018F7D03C080912001877F809331
:100380002001E92FF0E0EE0FFF1FE25BFE4FA59189
:10039000B4918FB7F894EC91311103C020952E23BE
:1003A00001C02E2B2C938FBF08953FB7F8948091F6
:1003B000580390915903A0915A03B0915B0326B55D
:1003C000A89B05C02F3F19F00196A11DB11D3FBF8D
:1003D000BA2FA92F982F8827820F911DA11DB11D1B
:1003E000BC01CD0142E0660F771F881F991F4A9517
:1003F000D1F708958F929F92AF92BF92CF92DF92E2
:10040000EF92FF926B017C01D0DF4B015C01C114C4
:10041000D104E104F104E9F0C8DFDC01CB01881963
:100420009909AA09BB09883E9340A105B10578F353
:1004300021E0C21AD108E108F10888EE880E83E0B5
:10044000981EA11CB11CC114D104E104F10421F7D0
:10045000DECFFF90EF90DF90CF90BF90AF909F9056
:100460008F900895CF92DF92EF92FF920F931F9398
:10047000CF93DF936C017A018B01C0E0D0E0CE1501
:10048000DF0589F0D8016D918D01D601ED91FC91C8
:100490000190F081E02DC6011995892B11F47E01A0
:1004A00002C02196ECCFC701DF91CF911F910F9130
:1004B000FF90EF90DF90CF900895FC01918D828D99
:1004C000981759F0828DDF01A80FB11D5D968C91B0
:1004D000928D9F5F928F90E008958FEF9FEF089528
:1004E000FC01918D828D981731F0828DE80FF11DFE
:1004F000858D90E008958FEF9FEF0895FC01918D19
:10050000828D981B892F90E008958AE693E0F6DFAC
:1005100021E0892B09F420E0822F089587E895E0F7
:10052000EDDF21E0892B09F420E0822F0895FC0102
:10053000848DDF01A80FB11DA35EBE4F2C91848D69
:1005400090E00196848FA689B7892C93A089B18900
:100550008C9180648C93938D848D981306C002884F
:10056000F389E02D80818F7D80830895EF92FF9243
:100570000F931F93CF93DF93EC0181E0888F9B8DC6
:100580008C8D981305C0E889F989808185FD21C08B
:10059000F62E0B8D10E00F5F1F4FE02E8C8DE812B2
:1005A0000BC00FB607FCFACFE889F989808185FF77
:1005B000F5CFCE01BCDFF2CF8B8DFE01E80FF11D30
:1005C000E35EFE4FF0820B8FEA89FB8980818062B7
:1005D00007C0EE89FF896083E889F989808180649A
:1005E000808381E090E0DF91CF911F910F91FF9088
:1005F000EF900895CF93DF93EC01888D8823C1F0AD
:10060000EA89FB89808185FD05C0A889B9898C911B
:1006100086FD0EC00FB607FCF5CF808185FFF2CFB7
:10062000A889B9898C9185FFEDCFCE0180DFE8CF15
:10063000DF91CF91089580E090E0892B19F06EDF73
:10064000811120C080E090E0892B41F080E090E0B3
:10065000892B21F00E940000811117C080E090E0FA
:10066000892B19F052DF811113C080E090E0892BB3
:10067000A1F080E090E0892B81F00E9400008111C0
:100680000AC008950E940000DDCF0E940000E6CF5E
:100690000E940000EACF0C94000008958EBD000077
:1006A0000DB407FEFDCF8EB508950F931F93CF9322
:1006B000DF9360E08091BD07FBDD80E0EFDF80E04D
:1006C000EDDF80935F0380E0E9DF082F10E0102F5B
:1006D000002780E0E3DF082BC8019695879590936B
:1006E0005D0380935C0380E0D9DFC82FD0E0DC2F6E
:1006F000CC2780E0D3DFC82BD695C795D093610374
:10070000C093600380E0CADFC82FD0E0DC2FCC2785
:1007100080E0C4DFC82BD0936303C093620380E002
:10072000BDDF80935E0361E08091BD07C1DD012BD9
:1007300021F080915E03882399F0C091650360E009
:100740008091BD07B5DD80E8A9DF8C2F826CA6DF24
:1007500061E08091BD07DF91CF911F910F91A8CDEE
:10076000DF91CF911F910F9108950E94B70D6115F0
:10077000710579F0FB0101900020E9F73197AF0195
:10078000461B570BDC01ED91FC910280F381E02DBB
:10079000199480E090E008958F929F92AF92BF925B
:1007A0000F931F93CF93DF93CDB7DEB7A1970FB60B
:1007B000F894DEBF0FBECDBF19A2423008F44AE064
:1007C0008E010F5D1F4F842E912CA12CB12CA50101
:1007D000940191D6E62FB901CA0101501109EA30FE
:1007E00014F4E05D01C0E95CD801EC93232B242BC9
:1007F000252B69F7B80187E895E0B9DFA1960FB618
:10080000F894DEBF0FBECDBFDF91CF911F910F9146
:10081000BF90AF909F908F900895CF93DF93BC01CE
:1008200087E895E0A4DFEC0166E172E087E895E0F7
:100830009EDF8C0F9D1FDF91CF910895EF92FF9265
:100840000F931F93CF93DF9300D01F92CDB7DEB7E6
:1008500019821A821B821C8284E690E0A0E0B0E03C
:1008600080936E0390936F03A0937003B093710312
:10087000CE0101967C018E010B5F1F4F2FB7F894BC
:100880008091660390916703A0916803B09169031A
:100890002FBF8093720390937303A0937403B0935C
:1008A0007503E0916A03F0916B030680F781E02DF8
:1008B0008AE693E0199597FD0AC0F70181937F01BD
:1008C000E017F107D9F689818130A1F525C02FB74E
:1008D000F8948091660390916703A0916803B091AA
:1008E00069032FBF409172035091730360917403A9
:1008F00070917503841B950BA60BB70B40916E038B
:1009000050916F0360917003709171038417950784
:10091000A607B70730F2D7CF8A818F3F59F48B8172
:100920008F3F41F48C818F3F29F489E192E075DF9C
:1009300081E004C083E392E070DF80E00F900F90CD
:100940000F900F90DF91CF911F910F91FF90EF903B
:1009500008954F925F926F927F928F929F92AF9283
:10096000BF92CF92DF92EF92FF926B017C01B42E87
:100970009B01AC01E7D6882319F06EE472E025C034
:1009800026013701E89477F82FEF3FEF4FE75FE755
:10099000C301B201D7D681110DC02FEF3FEF4FE752
:1009A0005FE7C301B2010E94BD1018161CF462E596
:1009B00072E00BC02FEF3FEF4FE75FE4C701B601D6
:1009C000BDD618168CF466E572E087E895E0FF90D6
:1009D000EF90DF90CF90BF90AF909F908F907F90DF
:1009E0006F905F904F90C3CE2FEF3FEF4FE75FECDC
:1009F000C701B6010E94BD1087FDE5CF20E030E0C1
:100A0000A901C701B6010E94BD1087FF11C0E09186
:100A10008705F09188050190F081E02D6DE287E86F
:100A200095E019954C01F7FAF094F7F8F09402C0AC
:100A3000812C912CA12C60E070E080E09FE3AB144E
:100A400039F020E030E040E251E4E4D5A394F7CF60
:100A50009B01AC01C701B60179D52B013C0142D6FF
:100A60006B017C010E94C1109B01AC01C301B2016A
:100A70006CD52B013C014AE0C701B6018DDE7C013B
:100A8000E80CF91CBB2039F066E972E087E895E0D4
:100A90006EDEE80EF91EDB2CDD2009F120E030E0EF
:100AA00040E251E4C301B2010E9422112B013C013A
:100AB00019D64B01A12CB12C4AE0C501B4016CDE62
:100AC000E80EF91EC501B4010E94C1109B01AC01E2
:100AD000C301B2013AD52B013C01DA94DDCFC70145
:100AE000FF90EF90DF90CF90BF90AF909F908F904E
:100AF0007F906F905F904F900895CF93DF93EC01BC
:100B00008AE693E0FBDC892B21F08AE693E0D5DCD2
:100B1000F7CFBE018AE693E02ADE6FEF8AE693E024
:100B200025DD6FEF8AE693E021DD6FEF8AE693E043
:100B3000DF91CF911BCD0F931F93CF93DF93EC01E8
:100B400088819981009729F02A813B8126173707F0
:100B500080F48B016F5F7F4F26D7009761F09983F8
:100B600088831B830A832C813D81232B11F4FC0194
:100B7000108281E001C080E0DF91CF911F910F9141
:100B80000895EF92FF920F931F93CF93DF93611518
:100B9000710511F480E021C0FB0101900020E9F70C
:100BA0003197E61BF70BDC0114960D911C911597FC
:100BB000309791F07B01EC010E0F1F1FB801BBDFD6
:100BC000882341F3288139818C819D81B701820F6F
:100BD000931FDAD71D830C8381E0DF91CF911F91A2
:100BE0000F91FF90EF900895EF92FF920F931F9354
:100BF000CF93DF93EC01198218821B821A821D8227
:100C00001C826115710531F18B01FB0101900020FF
:100C1000E9F731977F01E61AF70AB7018CDF2881DF
:100C2000398181110CC02115310511F0C90123D67C
:100C3000198218821D821C821B821A820BC0FD82BF
:100C4000EC82B801C901DF91CF911F910F91FF9004
:100C5000EF909AC7DF91CF911F910F91FF90EF9086
:100C60000895AF92BF92CF92DF92EF92FF920F93CF
:100C70001F93CF93DF93CDB7DEB760970FB6F8948D
:100C8000DEBF0FBECDBF6B017C015A0120E030E01A
:100C900040E251E40E94221125D52AE030E040E0F4
:100CA00050E029D49F938F937F936F93C701B60130
:100CB00019D59F938F937F936F938AE592E09F93CB
:100CC0008F938E010F5F1F4F1F930F9364D768E1BF
:100CD00072E0CE010B9688DFF50162817381CE014F
:100CE0000B964FDF62E672E0CE010B964ADFB80149
:100CF000CE010B9646DF67E672E0CE010B9641DF30
:100D00008B859C85FADE9ADD8B859C85B4D564E65F
:100D100070E080E090E06EDB0FB6F894DEBF0FBEAF
:100D2000CDBF60960FB6F894DEBF0FBECDBFDF918A
:100D3000CF911F910F91FF90EF90DF90CF90BF90D8
:100D4000AF9008951F920F920FB60F9211242F9318
:100D50003F938F939F93AF93BF938091660390913E
:100D60006703A0916803B09169033091570323E0B2
:100D7000230F2D3720F40196A11DB11D05C026E8D3
:100D8000230F0296A11DB11D209357038093660384
:100D900090936703A0936803B0936903809158030D
:100DA00090915903A0915A03B0915B030196A11D44
:100DB000B11D8093580390935903A0935A03B093A5
:100DC0005B03BF91AF919F918F913F912F910F90B6
:100DD0000FBE0F901F9018951F920F920FB60F9293
:100DE00011240BB60F922F933F934F935F936F9302
:100DF0007F938F939F93AF93BF93EF93FF938AE675
:100E000093E095DBFF91EF91BF91AF919F918F910F
:100E10007F916F915F914F913F912F910F900BBEFA
:100E20000F900FBE0F901F9018951F920F920FB644
:100E30000F9211240BB60F922F938F939F93EF93E2
:100E4000FF93E0917A03F0917B038081E09180032E
:100E5000F091810382FD11C09081809183038F5FA7
:100E600020918403821751F0E0918303F0E0E6596A
:100E7000FC4F958F8093830301C08081FF91EF9198
:100E80009F918F912F910F900BBE0F900FBE0F90DF
:100E90001F9018951F920F920FB60F9211240BB648
:100EA0000F922F933F934F935F936F937F938F9303
:100EB0009F93AF93BF93EF93FF9387E895E037DB62
:100EC000FF91EF91BF91AF919F918F917F916F9122
:100ED0005F914F913F912F910F900BBE0F900FBEDE
:100EE0000F901F9018951F920F920FB60F9211241A
:100EF0000BB60F922F938F939F93EF93FF93E091F5
:100F00009705F09198058081E0919D05F0919E05EF
:100F100082FD11C090818091A0058F5F2091A10575
:100F2000821751F0E091A005F0E0E957FA4F958F54
:100F30008093A00501C08081FF91EF919F918F91D7
:100F40002F910F900BBE0F900FBE0F901F90189512
:100F5000EAE6F3E01382128248EE53E060E070E0CC
:100F600044835583668377838AE092E0918380830C
:100F700025ED30E03587248724ED30E0378726875C
:100F800020ED30E0318B208B21ED30E0338B228B54
:100F900022ED30E0358B248B26ED30E0378B268B2D
:100FA000118E128E138E148EE7E8F5E013821282F2
:100FB00044835583668377839183808385EC90E0B7
:100FC0009587848784EC90E09787868780EC90E013
:100FD000918B808B81EC90E0938B828B82EC90E004
:100FE000958B848B86EC90E0978B868B118E128E7E
:100FF000138E148E89E08093BD0761E059D98AE091
:101000008093BC0761E054D9E0EBF7E0108281E007
:10101000818389E692E0938382831582148211860C
:1010200010861386128617821682E4EAF7E0108291
:1010300082E081838CE692E093838283158214821E
:101040001186108613861286178216820895CF9312
:10105000DF93CDB7DEB760970FB6F894DEBF0FBE53
:10106000CDBF789484B5826084BD84B5816084BD31
:1010700085B5826085BD85B5816085BD80916E0036
:10108000816080936E001092810080918100826067
:1010900080938100809181008160809381008091A4
:1010A00080008160809380008091B1008460809393
:1010B000B1008091B00081608093B0008091910078
:1010C0008260809391008091910081608093910073
:1010D000809190008160809390008091A100826057
:1010E0008093A1008091A10081608093A1008091F4
:1010F000A00081608093A000809121018260809394
:101100002101809121018160809321018091200142
:1011100081608093200180917A00846080937A00BE
:1011200080917A00826080937A0080917A00816059
:1011300080937A0080917A00806880937A00109280
:10114000C1001FB7F89480914C03811120C0E7EBD8
:10115000F1E08491EDEFF1E09491E82FF0E0EE0FF3
:10116000FF1FE859FE4FA591B491EC91E92319F4C2
:1011700061E085E39DD885E37CD88CB580618CBD2A
:101180008CB580648CBD84E374D883E372D880917D
:101190004C038F5F80934C031FBF8CB583608CBD65
:1011A0008DB58E7F8DBD8CB5837F84608CBD89E0CD
:1011B00060D8E0919705F091980512E01083E091D6
:1011C0009305F09194051082E0919505F0919605B4
:1011D00080E1808310929F05E0919B05F0919C0532
:1011E00096E09083E0919905F0919A058081806165
:1011F0008083E0919905F0919A05808188608083D1
:10120000E0919905F0919A05808180688083E09152
:101210009905F0919A0580818F7D8083E0917A0312
:10122000F0917B031083E0917603F09177031082B5
:10123000E0917803F09179038FEC80831092820320
:10124000E0917E03F0917F039083E0917C03F09125
:101250007D03808180618083E0917C03F0917D0338
:10126000808188608083E0917C03F0917D038081A0
:1012700080688083E0917C03F0917D0380818F7D85
:10128000808388E192E039DC8FE692E036DCD6DAC2
:1012900087E792E032DCD2DA8EE792E0BEDA68E8E5
:1012A00073E180E090E0A6D81092650360E0809141
:1012B000BD070E94580180E8F1D982ECEFD961E0C6
:1012C0008091BD070E9458011093640368EB7BE096
:1012D00080E090E08FD8E9D960915C0370915D0364
:1012E00080E090E04ED76093510370935203809357
:1012F00053039093540342E02CDB66E172E087E8ED
:1013000095E035DA68E972E087E895E030DA6091D7
:10131000510370915203809153039091540342E022
:1013200018DB80EA92E079DA609151037091520300
:10133000809153039091540340EB57E092DC60910D
:10134000510370915203809153039091540344EAE6
:1013500057E087DC80915E038111B8CF8CE5A82E21
:1013600083E0B82E8E010F5F1F4F60ED77E080E0C5
:1013700090E040D8B0925603A092550396D9809140
:101380005E0381118AC060915C0370915D0380E00F
:1013900090E0F7D620ED3CEC4CEC5DE353D76B01CD
:1013A0007C0126E636E646E65FE3609151037091E4
:1013B0005203809153039091540344D79B01AC0195
:1013C000C701B601C3D06B017C01609351037093D8
:1013D0005203809353039093540320E030E64FE090
:1013E00056E4CBD6181664F020E73BE640E05DE318
:1013F000C701B60127D72BE83BE840E853E40BC010
:101400002CE23DE141E05DE3C701B6011BD720EAD4
:1014100032E541E853E499D044EA57E022DC40EB5E
:1014200057E0C701B6011DDCC0904D03D0904E03BC
:10143000E0904F03F0905003D701C6010196A11D23
:10144000B11D80934D0390934E03A0934F03B0932F
:1014500050038AE0F80111928A95E9F768E172E099
:10146000CE010B96C1DB4AE0B801C6015DD665EA44
:1014700072E0CE010B9685DB68EA72E0CE010B9636
:1014800080DBB801CE010B967CDB8B859C8535DB40
:10149000D5D98B859C85EFD12CC06EEA72E087E8A8
:1014A00095E065D960915E0370E080E090E04AE0ED
:1014B00073D980915E0387FF03C084EC92E018C06B
:1014C00086FF03C08BED92E013C085FF03C081EF60
:1014D00092E00EC084FF03C087E093E009C083FD63
:1014E000FBCF82FF03C083E193E002C08CE293E074
:1014F00094D9A1D83ACFA1E21A2EAA1BBB1BFD0199
:101500000DC0AA1FBB1FEE1FFF1FA217B307E407E2
:10151000F50720F0A21BB30BE40BF50B661F771F3A
:10152000881F991F1A9469F760957095809590951A
:101530009B01AC01BD01CF010895EE0FFF1F881F75
:101540008BBF0790F691E02D19945058BB27AA271E
:101550000ED0F2C6E3D630F0E8D620F031F49F3F4B
:1015600011F41EF4D8C60EF4E095E7FBCEC6E92FC1
:10157000F4D680F3BA17620773078407950718F04B
:1015800071F49EF50CC70EF4E0950B2EBA2FA02D2A
:101590000B01B90190010C01CA01A0011124FF2720
:1015A000591B99F0593F50F4503E68F11A16F0401B
:1015B000A22F232F342F4427585FF3CF469537951A
:1015C0002795A795F0405395C9F77EF41F16BA0BDF
:1015D000620B730B840BBAF09150A1F0FF0FBB1F8D
:1015E000661F771F881FC2F70EC0BA0F621F731FD6
:1015F000841F48F4879577956795B795F7959E3F33
:1016000008F0B3CF9395880F08F09927EE0F9795C0
:10161000879508950CD090C688D640F07FD630F0DC
:1016200021F45F3F19F071C65111BAC674C695D640
:1016300098F39923C9F35523B1F3951B550BBB2799
:10164000AA2762177307840738F09F5F5F4F220F46
:10165000331F441FAA1FA9F333D00E2E3AF0E0E83F
:1016600030D091505040E695001CCAF729D0FE2F8B
:1016700027D0660F771F881FBB1F2617370748071D
:10168000AB07B0E809F0BB0B802DBF01FF279358D3
:101690005F4F2AF09E3F510568F037C681C65F3F15
:1016A000ECF3983EDCF3869577956795B795F795BB
:1016B0009F5FC9F7880F911D9695879597F90895B3
:1016C000E1E0660F771F881FBB1F6217730784074F
:1016D000BA0720F0621B730B840BBA0BEE1F88F75E
:1016E000E095089542D688F09F5790F0B92F99273A
:1016F000B751A0F0D1F0660F771F881F991F1AF01D
:10170000BA95C9F712C0B13081F049D6B1E0089559
:1017100046C6672F782F8827B85F39F0B93FCCF3DA
:10172000869577956795B395D9F73EF49095809512
:10173000709561957F4F8F4F9F4F08955FD508F447
:101740008FEF08955BD5880B990B0895CF93DF93A6
:101750008230910510F482E090E0E091C007F091B2
:10176000C10720E030E0C0E0D0E0309711F14081C7
:10177000518148175907C0F04817590761F4828111
:101780009381209719F09B838A832BC09093C10784
:101790008093C00726C02115310519F04217530761
:1017A00018F49A01BE01DF01EF010280F381E02D00
:1017B000DCCF2115310509F1281B390B2430310507
:1017C00090F412968D919C9113976115710521F0FB
:1017D000FB019383828304C09093C1078093C00769
:1017E000FD01329644C0FD01E20FF31F81939193F6
:1017F000225031092D933C933AC02091BE0730917D
:10180000BF07232B41F42091020230910302309351
:10181000BF072093BE0720910002309101022115DD
:10182000310541F42DB73EB74091040250910502B5
:10183000241B350BE091BE07F091BF07E217F307B9
:10184000A0F42E1B3F0B2817390778F0AC014E5F30
:101850005F4F2417350748F04E0F5F1F5093BF07A7
:101860004093BE078193919302C0E0E0F0E0CF0186
:10187000DF91CF9108950F931F93CF93DF9300973C
:1018800009F48CC0FC013297138212820091C007C8
:101890001091C1070115110581F420813181820F5A
:1018A000931F2091BE073091BF072817390779F59C
:1018B000F093BF07E093BE0771C0D80140E050E04D
:1018C000AE17BF0750F412962D913C911397AD01BE
:1018D0002115310509F1D901F3CF9D01DA013383D7
:1018E000228360817181860F971F8217930769F4A5
:1018F000EC0128813981260F371F2E5F3F4F31833E
:1019000020838A819B8193838283452B29F4F093E2
:10191000C107E093C00742C01396FC93EE93129761
:10192000ED01499159919E01240F351FE217F307EC
:1019300071F480819181840F951F029611969C937A
:101940008E938281938113969C938E931297E0E0FD
:10195000F0E0D80112968D919C911397009719F0A1
:10196000F8018C01F6CF8D919C9198012E5F3F4F2D
:10197000820F931F2091BE073091BF0728173907A8
:1019800069F4309729F41092C1071092C00702C081
:10199000138212821093BF070093BE07DF91CF918D
:1019A0001F910F9108956F927F928F929F92AF92A5
:1019B000BF92CF92DF92EF92FF920F931F93CF933C
:1019C000DF93EC01009781F4CB01DF91CF911F9160
:1019D0000F91FF90EF90DF90CF90BF90AF909F90CE
:1019E0008F907F906F90B2CEFC01E60FF71F9C01A5
:1019F00022503109E217F30708F4A8C0D9010D916C
:101A00001C91119706171707A8F00530110508F467
:101A10009BC0C80104978617970708F495C0025029
:101A20001109061B170B019311936D937C93CF0142
:101A300022DF8AC05B01A01AB10A4C01800E911E00
:101A4000A091C007B091C10740E050E0E12CF12C1B
:101A5000109709F44AC0A815B905D1F56D907C908E
:101A60001197630182E0C80ED11CCA14DB0480F117
:101A7000A3014A195B096A0182E0C80ED11C1296C3
:101A8000BC9012971396AC91B5E0CB16D10440F000
:101A9000B282A38351834083D9016D937C930AC0A2
:101AA0000E5F1F4FC301800F911FF9019183808347
:101AB000EB2DFA2FE114F10431F0D7011396FC93CA
:101AC000EE93129741C0F093C107E093C0073CC06A
:101AD0008D919C9111974817590708F4AC017D012D
:101AE00012960D90BC91A02DB3CF8091BE0790911E
:101AF000BF0788159905E1F446175707C8F4809188
:101B0000000290910102009741F48DB79EB7409179
:101B1000040250910502841B950BE817F907B0F4F5
:101B2000F093BF07E093BE07F901718360830CC097
:101B3000CB010CDE7C01009749F0A801BE011BD04F
:101B4000CE0199DEC70104C0CE0102C080E090E062
:101B5000DF91CF911F910F91FF90EF90DF90CF9089
:101B6000BF90AF909F908F907F906F90089581E08D
:101B700090E0F8941BC4FB01DC0102C001900D92BF
:101B800041505040D8F70895FB01DC0101900D92BF
:101B90000020E1F708950F931F93CF93DF93CDB704
:101BA000DEB72E970FB6F894DEBF0FBECDBF0E89FD
:101BB0001F8986E08C831A8309838FEF9FE79E83BA
:101BC0008D83AE01465E5F4F688D798DCE010196A3
:101BD00011D02F813885F801E20FF31F10822E9665
:101BE0000FB6F894DEBF0FBECDBFDF91CF911F912E
:101BF0000F9108952F923F924F925F926F927F9232
:101C00008F929F92AF92BF92CF92DF92EF92FF920C
:101C10000F931F93CF93DF93CDB7DEB72C970FB6FB
:101C2000F894DEBF0FBECDBF7C016B018A01FC01C1
:101C300017821682838181FFB0C1CE0101964C01CB
:101C4000F7019381F60193FD859193FF81916F01D7
:101C5000882309F49EC1853239F493FD859193FF61
:101C600081916F01853221F4B70190E0C7D1E8CFAF
:101C7000512C312C20E02032A0F48B3269F030F46A
:101C8000803259F0833269F420612CC08D3239F0F2
:101C9000803339F4216026C02260246023C028608C
:101CA00021C027FD27C030ED380F3A3078F426FFE9
:101CB00006C0FAE05F9E300D1124532E13C08AE057
:101CC000389E300D1124332E20620CC08E3221F448
:101CD00026FD5FC1206406C08C3611F4206802C066
:101CE000883641F4F60193FD859193FF81916F0150
:101CF0008111C1CF982F9F7D9554933028F40C5FAC
:101D00001F4FFFE3F9830DC0833631F0833771F045
:101D1000833509F057C021C0F801808189830E5FA7
:101D20001F4F44244394512C540114C03801F2E055
:101D30006F0E711CF801A080B18026FF03C0652DD5
:101D400070E002C06FEF7FEFC5012C874CD12C01F2
:101D500083012C852F77222E16C03801F2E06F0EFA
:101D6000711CF801A080B18026FF03C0652D70E0D2
:101D700002C06FEF7FEFC5012C872AD12C012C8583
:101D80002068222E830123FC19C0832D90E0481681
:101D90005906A0F4B70180E290E030D13A94F5CF33
:101DA000F50127FC859127FE81915F01B70190E045
:101DB00025D131103A94F1E04F1A510841145104E1
:101DC00079F7DEC0843611F0893631F5F80127FF46
:101DD00007C060817181828193810C5F1F4F08C0B1
:101DE00060817181072E000C880B990B0E5F1F4FCD
:101DF0002F76722E97FF09C090958095709561950A
:101E00007F4F8F4F9F4F2068722E2AE030E0A40151
:101E10002DD1A82EA81843C0853729F42F7EB22EC5
:101E20002AE030E025C0F22FF97FBF2E8F36C1F0B7
:101E300018F4883579F0ADC0803719F0883721F073
:101E4000A8C02F2F2061B22EB4FE0DC08B2D846050
:101E5000B82E09C024FF0AC09F2F9660B92E06C075
:101E600028E030E005C020E130E002C020E132E0AF
:101E7000F801B7FE07C060817181828193810C5F98
:101E80001F4F06C06081718180E090E00E5F1F4FA0
:101E9000A401ECD0A82EA818FB2DFF777F2E76FE8C
:101EA0000BC0372D3E7FA51450F474FE0AC072FC9F
:101EB00008C0372D3E7E05C0BA2C372D03C0BA2C82
:101EC00001C0B52C34FF0DC0FE01EA0DF11D80816B
:101ED000803311F4397E09C032FF06C0B394B39445
:101EE00004C0832F867809F0B39433FD12C030FF0D
:101EF00006C05A2CB31418F4530C5B18B32CB3144B
:101F000060F4B70180E290E03C8778D0B3943C85E0
:101F1000F6CFB31410F43B1801C0312C34FF11C0BC
:101F2000B70180E390E03C8769D03C8532FF16C062
:101F300031FD03C088E790E002C088E590E0B7017A
:101F40000CC0832F867851F031FF02C08BE201C0B4
:101F500080E237FD8DE2B70190E050D0A51430F457
:101F6000B70180E390E04AD05A94F8CFAA94F401E4
:101F7000EA0DF11D8081B70190E040D0A110F6CFAD
:101F8000332009F45DCEB70180E290E037D03A9477
:101F9000F7CFF7018681978102C08FEF9FEF2C96D4
:101FA0000FB6F894DEBF0FBECDBFDF91CF911F916A
:101FB0000F91FF90EF90DF90CF90BF90AF909F90E8
:101FC0008F907F906F905F904F903F902F900895EB
:101FD000FC010590615070400110D8F780959095F4
:101FE0008E0F9F1F0895FC016150704001900110F9
:101FF000D8F7809590958E0F9F1F08950F931F938C
:10200000CF93DF93FB01238121FD03C08FEF9FEF6F
:1020100028C022FF16C0468157812481358142178E
:10202000530744F4A081B1819D012F5F3F4F31835D
:1020300020838C93268137812F5F3F4F3783268300
:1020400010C0EB01092F182F0084F185E02D1995A0
:10205000892BE1F68E819F8101969F838E83812F4C
:10206000902FDF91CF911F910F910895FA01AA2728
:10207000283051F1203181F1E8946F936E7F6E5FCB
:102080007F4F8F4F9F4FAF4FB1E03ED0B4E03CD079
:10209000670F781F891F9A1FA11D680F791F8A1F5C
:1020A000911DA11D6A0F711D811D911DA11D20D0C3
:1020B00009F468943F912AE0269F11243019305D7D
:1020C0003193DEF6CF010895462F4770405D41936E
:1020D000B3E00FD0C9F7F6CF462F4F70405D4A33BB
:1020E00018F0495D31FD4052419302D0A9F7EACF83
:1020F000B4E0A6959795879577956795BA95C9F7B2
:1021000000976105710508959B01AC010A2E0694A4
:102110005795479537952795BA95C9F7620F731F5D
:10212000841F951FA01D0895BB27FB015527AA27D3
:10213000880F991FAA1FA41710F0A41B8395505154
:10214000B9F7A05DAA3308F0A95DA193009779F7CC
:10215000B111B1931192CB0100C0DC01FC01672FDA
:1021600071917723E1F7329704C07C916D9370836E
:102170006291AE17BF07C8F3089540D008F481E01C
:102180000895E89409C097FB3EF49095809570956A
:1021900061957F4F8F4F9F4F9923A9F0F92F96E9B3
:1021A000BB279395F695879577956795B795F11128
:1021B000F8CFFAF4BB0F11F460FF1BC06F5F7F4FC5
:1021C0008F4F9F4F16C0882311F096E911C07723D7
:1021D00021F09EE8872F762F05C0662371F096E8E0
:1021E000862F70E060E02AF09A95660F771F881FAF
:1021F000DAF7880F9695879597F90895990F000853
:10220000550FAA0BE0E8FEEF16161706E807F907C8
:10221000C0F012161306E407F50798F0621B730B63
:10222000840B950B39F40A2661F0232B242B252BE4
:1022300021F408950A2609F4A140A6958FEF811D87
:10224000811D08950BD078C069D028F06ED018F0A9
:10225000952309F05AC05FC01124A2C07ED0A0F31C
:10226000959FD1F3950F50E0551F629FF001729F2B
:10227000BB27F00DB11D639FAA27F00DB11DAA1F4A
:10228000649F6627B00DA11D661F829F2227B00D97
:10229000A11D621F739FB00DA11D621F839FA00D22
:1022A000611D221F749F3327A00D611D231F849F72
:1022B000600D211D822F762F6A2F11249F575040C9
:1022C0008AF0E1F088234AF0EE0FFF1FBB1F661F64
:1022D000771F881F91505040A9F79E3F510570F01D
:1022E00014C05EC05F3FECF3983EDCF386957795B3
:1022F0006795B795F795E7959F5FC1F7FE2B880F18
:10230000911D9695879597F9089597F99F6780E8AD
:1023100070E060E008959FEF80EC089500240A9437
:102320001616170618060906089500240A941216B0
:102330001306140605060895092E0394000C11F4E3
:10234000882352F0BB0F40F4BF2B11F460FF04C090
:102350006F5F7F4F8F4F9F4F089557FD9058440FE9
:10236000551F59F05F3F71F04795880F97FB991FF4
:1023700061F09F3F79F087950895121613061406B1
:10238000551FF2CF4695F1DF08C01616170618063E
:10239000991FF1CF86957105610508940895E89419
:1023A000BB2766277727CB0197F90895F894FFCFCD
:1023B0000000C207800000000000B60232027E0268
:1023C0005D027002FA020D0A00726563765265744E
:1023D000436F6D6D616E6446696E697368656420F4
:1023E0006F6B0072656376526574436F6D6D616EDD
:1023F0006446696E697368656420657272006E6117
:102400006E00696E66006F766600256C752E256C11
:1024100075002E7478743D220074300074310062AF
:102420006B636D643D3100706167652030005374EB
:10243000617274696E6720696E2035207365636F01
:102440006E64732E2E2E2E0052727464203D200076
:10245000206F686D006E30002E76616C3D00525426
:1024600044204661756C742C2072656769737465CD
:10247000723A2000525444204869676820546872B8
:102480006573686F6C64204D657400525444204C31
:102490006F77205468726573686F6C64204D657443
:1024A00000524546696E2D203E20302E383520786A
:1024B00020566269617300464F5243452D206F706C
:1024C000656E004F7665722F556E64657220766F6B
:1024D0006C74616765206661756C7400556E6B6E17
:1024E0006F776E206661756C742C20636865636B12
:0C24F00020636F6E6E656374696F6E0090
:00000001FF
