:100000000C945D000C9485000C9485000C94850084
:100010000C9485000C9485000C9485000C9485004C
:100020000C9485000C9485000C9485000C9485003C
:100030000C9485000C9485000C9485000C9485002C
:100040000C9466060C9485000C94FF020C94D90263
:100050000C9485000C9485000C9485000C9485000C
:100060000C9430030C94850000000008000201008D
:100070000003040700000000000000000000000072
:10008000250028002B0000000000240027002A0083
:10009000040404040404040402020202020203032E
:1000A0000303030301020408102040800102040836
:1000B00010200102040810203D0A11241FBECFEFBA
:1000C000D8E0DEBFCDBF12E0A0E0B1E0EAE4FCE1A1
:1000D00002C005900D92AA38B107D9F725E0AAE829
:1000E000B2E001C01D92A536B207E1F710E0CDE500
:1000F000D0E004C02197FE010E94AF0ACC35D107A1
:10010000C9F70E94B0060C94230E0C940000CF9205
:10011000DF92EF92FF920F931F93CF93DF936C01C7
:100120007A018B01C0E0D0E0CE15DF0589F0D8015F
:100130006D918D01D601ED91FC910190F081E02D42
:10014000C6010995892B11F47E0102C02196ECCFDE
:10015000C701DF91CF911F910F91FF90EF90DF903A
:10016000CF900895FC01918D828D981759F0828D62
:10017000DF01A80FB11D5D968C91928D9F5F928FCC
:1001800090E008958FEF9FEF0895FC01918D828D8F
:10019000981731F0828DE80FF11D858D90E008955C
:1001A0008FEF9FEF0895FC01918D828D981B892F11
:1001B00090E0089585E293E00E94D30021E0892B2E
:1001C00009F420E0822F0895FC01848DDF01A80F3F
:1001D000B11DA35EBE4F2C91848D90E00196848F5B
:1001E000A689B7892C93A089B1898C9180648C935E
:1001F000938D848D981306C00288F389E02D808149
:100200008F7D80830895EF92FF920F931F93CF937A
:10021000DF93EC0181E0888F9B8D8C8D981305C056
:10022000E889F989808185FD22C0F62E0B8D10E0CA
:100230000F5F1F4FE02E8C8DE8120CC00FB607FC2D
:10024000FACFE889F989808185FFF5CFCE010E9438
:10025000E400F1CF8B8DFE01E80FF11DE35EFE4F50
:10026000F0820B8FEA89FB898081806207C0EE896A
:10027000FF896083E889F98980818064808381E0D7
:1002800090E0DF91CF911F910F91FF90EF90089533
:10029000CF93DF93EC01888D8823C9F0EA89FB892D
:1002A000808185FD05C0A889B9898C9186FD0FC024
:1002B0000FB607FCF5CF808185FFF2CFA889B989F9
:1002C0008C9185FFEDCFCE010E94E400E7CFDF9156
:1002D000CF91089580E090E0892B29F00E94DA0008
:1002E00081110C94000008958EBD00000DB407FE2E
:1002F000FDCF8EB50895089581E090E030911D0303
:1003000020911C03321710F480E090E091958195C4
:100310009109089580911D0390911C03891730F471
:100320008F5F80931D0380E090E008958FEF9FEF33
:10033000089580911C0390E020911D03821B910978
:10034000089585ED8093BC008091BC0084FDFCCFB6
:100350001092190308954091AC02262F30E0240F2B
:10036000311D21323105DCF4209119032430C9F408
:10037000FC0180E090E0861758F43091AC022191A6
:10038000DC01A657BD4FA30FB11D2C930196F3CFEF
:100390008091AC02680F6093AC0280E0089581E028
:1003A000089582E00895CF92DF92EF92FF920F932B
:1003B0001F93CF93DF937C01262F972F8A01809183
:1003C000F502882391F0C62FD72F6E01C40ED51EDB
:1003D000CC15DD0571F06991D701ED91FC9101908B
:1003E000F081E02DC7010995F3CF642F822F0E9481
:1003F000AB01C801DF91CF911F910F91FF90EF905A
:10040000DF90CF900895CF93DF931F92CDB7DEB7E3
:1004100069832091F5022223D1F020911A03203222
:1004200040F021E030E0FC013383228380E090E063
:1004300015C080911B03E82FF0E0EA50FD4F998131
:1004400090838F5F80931B0380931A0305C061E044
:10045000CE0101960E94AB0181E090E00F90DF9108
:10046000CF910895CF93FC01C48121E02093F50240
:10047000C093160310921B0310921A038385682BF6
:1004800082E495E00E94030280911A03813208F011
:1004900046C0909119039111FCCF92E090931903FB
:1004A00091E0909318039FEF9093F4021092F3025F
:1004B0008093F202A6EFB2E022ED32E0F9019E2F26
:1004C000921B981718F49D919193F9CF1092D10235
:1004D0008091D102CC0FC82BC093D1028091170319
:1004E000813061F4109217038091D1028093BB0098
:1004F0008091BC0083FDF8CF85EC01C085EE809330
:10050000BC00809119038230E1F38091F4028F3FA7
:1005100031F08091F402803211F08091F402109257
:100520001B0310921A031092F502CF9108950F93B6
:100530001F93CF938C01C62F0E9432026C2F6460F0
:10054000C8010E9432026C2F6B7FC8010E943202E8
:1005500083EC90E00197F1F7CF911F910F910895EF
:10056000FF920F931F93CF93DF931F92CDB7DEB708
:100570008C01F62E962F907F692F642BC80149833A
:100580000E94970280E1F89EB00111244981642BFA
:10059000C8010F90DF91CF911F910F91FF900C94A4
:1005A000970241E00E94B00281E090E008950E942D
:1005B0001E0E1F920F920FB60F9211242F933F938E
:1005C0004F935F936F937F938F939F93AF93BF935B
:1005D000EF93FF9385E293E00E94E400FF91EF9197
:1005E000BF91AF919F918F917F916F915F914F914B
:1005F0003F912F910F900FBE0F901F9018951F9253
:100600000F920FB60F9211242F938F939F93EF9316
:10061000FF93E0913503F09136038081E0913B0335
:10062000F0913C0382FD11C0908180913E038F5F69
:1006300020913F03821751F0E0913E03F0E0EB5D23
:10064000FC4F958F80933E0301C08081FF91EF9115
:100650009F918F912F910F900FBE0F901F90189523
:100660001F920F920FB60F9211242F933F934F9327
:100670005F936F937F938F939F93AF93BF93EF930A
:10068000FF938091B900887F803609F49CC068F59B
:10069000883209F45BC090F4803109F454C038F416
:1006A000882309F4F6C0883009F44DC0F6C08831BB
:1006B00009F44CC0803209F45DC0EFC0803409F405
:1006C00068C048F4803309F455C0883309F0E5C0A8
:1006D0008093F402D8C0803509F44FC0883509F4FE
:1006E0005DC0883409F0D9C0D6C0883909F4C7C0C4
:1006F000A8F4883709F467C038F4883609F463C071
:10070000803709F460C0C9C0883809F4B8C080399E
:1007100009F45FC0803809F0C0C05BC0803B09F4B9
:1007200086C038F4803A09F466C0883A09F47FC07C
:10073000B4C0803C09F4A7C0883C09F4A4C0883B3D
:1007400009F48AC0AAC08091D10210C09091F3022E
:100750008091F202981770F5E091F30281E08E0F1C
:100760008093F302F0E0EE52FD4F80818093BB0056
:1007700085EC86C08093F4028EC0E091F30281E0A4
:100780008E0F8093F3028091BB00F0E0EE52FD4F9C
:1007900080839091F3028091F2026EC0E091F302A7
:1007A00081E08E0F8093F3028091BB00F0E0EE5267
:1007B000FD4F80838091180381116DC081E080938B
:1007C000170384EA61C083E0809319031092D0027A
:1007D000CFCF8091D002803208F051C0E091D0029A
:1007E00081E08E0F8093D0028091BB00F0E0E05555
:1007F000FD4F8083BDCF85EC8093BC001092190320
:100800008091D002803230F4E091D002F0E0E055E7
:10081000FD4F10826091D00270E0E091AE02F09145
:10082000AF0280EB92E009951092D00236C084E0CE
:10083000809319031092AD021092AC02E091AA02CB
:10084000F091AB0209958091AC02811105C081E065
:100850008093AC0210928A02E091AD0281E08E0F8B
:100860008093AD02F0E0E657FD4F80818093BB009E
:100870009091AD028091AC02981708F479CF85E889
:100880008093BC000AC085EC8093BC0010921903D1
:1008900004C01092F4020E94A101FF91EF91BF9158
:1008A000AF919F918F917F916F915F914F913F9108
:1008B0002F910F900FBE0F901F9018953FB7F8948F
:1008C00080915B0590915C05A0915D05B0915E05FE
:1008D00026B5A89B05C02F3F19F00196A11DB11D9B
:1008E0003FBFBA2FA92F982F8827820F911DA11DD6
:1008F000B11DBC01CD0142E0660F771F881F991F13
:100900004A95D1F70895009769F0FC010190002005
:10091000E9F73197AF01481B590BBC0185E293E021
:100920000C94870080E090E00895CF93DF930E94BD
:100930008304EC0189E792E00E9483048C0F9D1FE1
:10094000DF91CF9108958F929F92AF92BF920F93B4
:100950001F93CF93DF93CDB7DEB7A1970FB6F8946F
:10096000DEBF0FBECDBF19A2423008F44AE08E01AF
:100970000F5D1F4F842E912CA12CB12CA501940149
:100980000E948D0AE62FB901CA0101501109EA300F
:1009900014F4E05D01C0E95CD801EC93232B242B17
:1009A000252B61F7C8010E948304A1960FB6F89425
:1009B000DEBF0FBECDBFDF91CF911F910F91BF90D2
:1009C000AF909F908F9008954F925F926F927F9219
:1009D0008F929F92AF92BF92CF92DF92EF92FF924F
:1009E0006B017C01B42E9B01AC010E94EC0C8823AE
:1009F00019F08CE792E027C026013701E89477F8D8
:100A00002FEF3FEF4FE75FE7C301B2010E94EC0C0D
:100A100081110DC02FEF3FEF4FE75FE7C301B20138
:100A20000E94220B18161CF480E892E00CC02FEFF5
:100A30003FEF4FE75FE4C701B6010E947A0C18163A
:100A400084F484E892E0FF90EF90DF90CF90BF9025
:100A5000AF909F908F907F906F905F904F900C948D
:100A600083042FEF3FEF4FE75FECC701B6010E9411
:100A7000220B87FDE6CF20E030E0A901C701B601D7
:100A80000E94220B87FF11C0E0912503F0912603FD
:100A90000190F081E02D6DE285E293E009954C0133
:100AA000F7FAF094F7F8F09402C0812C912CA12C65
:100AB00060E070E080E09FE3AB1441F020E030E0C4
:100AC00040E251E40E94270BA394F6CF9B01AC01B6
:100AD000C701B6010E94B60A2B013C010E94990B86
:100AE0006B017C010E94C80B9B01AC01C301B201E8
:100AF0000E94B50A2B013C014AE0C701B6010E94E1
:100B0000A3047C01E80CF91CBB2031F088E892E0DA
:100B10000E948304E80EF91EDB2CDD2021F120E089
:100B200030E040E251E4C301B2010E947F0C2B018E
:100B30003C010E94990B4B01A12CB12C4AE0C5014C
:100B4000B4010E94A304E80EF91EC501B4010E947D
:100B5000C80B9B01AC01C301B2010E94B50A2B0175
:100B60003C01DA94DACFC701FF90EF90DF90CF908D
:100B7000BF90AF909F908F907F906F905F904F90BD
:100B8000089590E0FC01EC55FF4F2491FC01E057E3
:100B9000FF4F8491882399F090E0880F991FFC0102
:100BA000EA57FF4FA591B491FC01E458FF4F85919E
:100BB00094918FB7F894EC91E22BEC938FBF08954A
:100BC00090E0FC01E859FF4F3491FC01EC55FF4FD8
:100BD0002491FC01E057FF4FE491EE2309F43BC060
:100BE000332339F1333091F038F43130A9F0323019
:100BF00001F584B58F7D12C0373091F03830A1F007
:100C00003430B9F4809180008F7D03C080918000E2
:100C10008F77809380000DC084B58F7784BD09C025
:100C20008091B0008F7703C08091B0008F7D80935A
:100C3000B000F0E0EE0FFF1FE458FF4FA591B49114
:100C40008FB7F894EC91611103C020952E2301C059
:100C50002E2B2C938FBF08958F929F92AF92BF92AD
:100C6000CF92DF92EF92FF926B017C010E945E04B3
:100C70004B015C01C114D104E104F104F1F00E94C4
:100C80005E04DC01CB0188199909AA09BB09883ED9
:100C90009340A105B10570F321E0C21AD108E10823
:100CA000F10888EE880E83E0981EA11CB11CC114C7
:100CB000D104E104F10419F7DDCFFF90EF90DF904C
:100CC000CF90BF90AF909F908F9008951F920F92FA
:100CD0000FB60F9211242F933F938F939F93AF934F
:100CE000BF938091210390912203A0912303B0919F
:100CF000240330915A0523E0230F2D3720F4019669
:100D0000A11DB11D05C026E8230F0296A11DB11D2E
:100D100020935A058093210390932203A0932303E9
:100D2000B093240380915B0590915C05A0915D05D3
:100D3000B0915E050196A11DB11D80935B05909356
:100D40005C05A0935D05B0935E05BF91AF919F9147
:100D50008F913F912F910F900FBE0F901F9018957C
:100D6000CF93DF93CDB7DEB7C856D1090FB6F8944D
:100D7000DEBF0FBECDBF789484B5826084BD84B5DC
:100D8000816084BD85B5826085BD85B5816085BD86
:100D900080916E00816080936E001092810080913E
:100DA00081008260809381008091810081608093C6
:100DB0008100809180008160809380008091B100EB
:100DC00084608093B1008091B00081608093B00016
:100DD00080917A00846080937A0080917A008260AA
:100DE00080937A0080917A00816080937A0080916C
:100DF0007A00806880937A001092C100E0913503F8
:100E0000F091360382E08083E0913103F091320368
:100E10001082E0913303F091340380E180831092DB
:100E20003D03E0913903F0913A0386E08083E0913D
:100E30003703F0913803808180618083E09137032C
:100E4000F0913803808188608083E0913703F091CE
:100E50003803808180688083E0913703F091380304
:100E600080818F7D808382E991E00E9495041092B9
:100E70001D0310921C0310921B0310921A03109270
:100E8000190381E0809318031092170361E082E157
:100E90000E94E00561E083E10E94E0058091B900D5
:100EA0008E7F8093B9008091B9008D7F8093B900C7
:100EB00088E48093B80085E48093BC0010925305C9
:100EC00080915705823018F098E0909353059091E7
:100ED0005805992339F0813029F4809153058460B5
:100EE0008093530562E370E080E090E00E942C065E
:100EF000609159058EE495E00E94320268EE73E03D
:100F000080E090E00E942C0660E38EE495E00E9471
:100F100097020BE416E4C8010197F1F760E38EE451
:100F200095E00E949702C8010197F1F760E38EE413
:100F300095E00E94970283E592E00197F1F760E265
:100F40008EE495E00E94970260915305606240E054
:100F50008EE495E00E94B00284E08093540540E066
:100F60006CE08EE495E00E94B00240E061E08EE427
:100F700095E00E94B0020BE31FE1C8010197F1F771
:100F800082E08093550540E066E08EE495E00E94A3
:100F9000B00240E062E08EE495E00E94B002C80139
:100FA0000197F1F788E08093590560E08EE495E0C1
:100FB0000E94320240E061E08EE495E00E94B002BF
:100FC000C8010197F1F740E062E08EE495E00E94ED
:100FD000B002C8010197F1F78FE090E00E94F10C98
:100FE0008C018AE00E94C1058AE0F801808361E0FB
:100FF0000E94E005F8011182128213821482FFB66A
:10100000F89480911E03811124C0EAE9F0E08491F4
:10101000EEEAF0E09491E82FF0E0EE0FFF1FEA57C0
:10102000FF4FA591B491EC91E92321F461E08AE0AE
:101030000E94E0058AE00E94C1058CB580618CBDEC
:101040008CB580648CBD8DE00E94C1058BE00E9450
:10105000C10580911E038F5F80931E03FFBE8CB578
:101060008C7F82608CBD8DB581608DBD8CB58C60B0
:101070008CBDF801168660E080810E94E00580E862
:101080000E94740182EC0E94740161E0F801808189
:101090000E94E00582E0F801858710932003009309
:1010A0001F0364E670E080E090E00E942C068FE968
:1010B00091E00E94950470E5272EE4E13E2E009118
:1010C0001F03109120038FB7F89480902103909014
:1010D0002203A0902303B09024038FBFF8018181E5
:1010E0009281A381B481A5019401281B390B4A0B7D
:1010F0005B0BDA01C901883E9340A105B10508F4F4
:10110000B9C160E080810E94E00580E00E94740126
:1011100080E00E947401F801808780E00E947401E1
:10112000C82ED12CDC2CCC2480E00E947401C82A6B
:10113000C60196958795F8019683858380E00E9485
:101140007401E82EF12CFE2CEE2480E00E94740144
:10115000E82AF694E794F801F286E18680E00E949E
:101160007401E82EF12CFE2CEE2480E00E94740124
:10117000E82AF801F486E38680E00E947401F80111
:10118000878361E080810E94E005CD2821F0F8018D
:101190008781882391F0F801F68460E080810E94C5
:1011A000E00580E80E9474018F2D826C0E9474011A
:1011B00061E0F80180810E94E005F801818292825D
:1011C000A382B482E0911F03F0912003E580F680B2
:1011D000178105858AEA91E00E949504E0911F033A
:1011E000F09120038781811119C101500230E8F488
:1011F00088EB91E00E948304E0911F03F0912003AB
:101200006581768180E090E00E94C80B20E030E0AC
:101210004AE755E40E947F0C20E030E040E058E3CC
:101220000E947F0C42E00E94E40480EC91E00E9466
:10123000950485EC91E00E948304B70180E090E082
:101240000E94C80B20E030E040E05DE30E947F0C8C
:1012500020E030E040E853E40E94B50A42E00E94FA
:10126000E4048DEC91E00E948304E0911F03F0916F
:1012700020036581768180E090E00E94C80B20E029
:1012800030E04AE755E40E947F0C20E030E040E087
:1012900058E30E947F0C6B017C01E6E0F1E0DE0187
:1012A0001196822D01900D928A95E1F7E6E5F1E025
:1012B000DE01AF5ABF4F832D01900D928A95E1F761
:1012C0009E012F5F3F4F4901A12CB12C0A2DF40143
:1012D00041905190619071904F01A3019201C7011B
:1012E000B6010E94220B81110FC0E1E5F0E0EC0F86
:1012F000FD1FEA0DFB1D6081062E000C770B880B8D
:10130000990B0E94CA0B84C0A3019201C701B601C8
:101310000E94220B87FD09C0FFEFAF1ABF0A24E12C
:10132000A216B10499F604E103C0AA2009F46CC026
:1013300010E0380131E0631A7108E1E5F0E0EC0FEC
:10134000FD1FE60DF71D6081062E000C770B880B44
:10135000990B0E94CA0B4B015C01660C771C660C52
:10136000771CE1E0F0E0EC0FFD1FE60DF71D40807B
:10137000518062807380E1E5F0E0EC0FFD1FE00F2B
:10138000F11F6081062E000C770B880B990B0E94D1
:10139000CA0BA50194010E94B50AA9966CAF7DAF56
:1013A0008EAF9FAFA997A3019201C701B6010E941A
:1013B000B50A6B017C01000F111F000F111FE1E046
:1013C000F0E0EC0FFD1FE00FF11FA301920160811F
:1013D0007181828193810E94B50A9B01AC01C70192
:1013E000B6010E94270B9B01AC01A9966CAD7DADA7
:1013F0008EAD9FADA9970E947F0C9B01AC01C501EA
:10140000B4010E94B60A04C06DEC7CEC80EA91EC59
:1014100042E00E94E40484ED91E02AC08BED91E06B
:101420000E948304812F90E0A0E0B0E04AE0BC017C
:10143000CD010E94A30417FF03C081EF91E018C003
:1014400016FF03C088E092E013C015FF03C08EE1D1
:1014500092E00EC014FF03C084E392E009C013FDC4
:10146000FBCF12FF03C080E492E002C089E592E066
:101470000E9495040E946A0122CEE5E2F3E0138205
:10148000128288EE93E0A0E0B0E084839583A68387
:10149000B7832EE631E03183208325EC30E03587B9
:1014A000248724EC30E03787268720EC30E0318B2E
:1014B000208B21EC30E0338B228B22EC30E0358B1B
:1014C000248B26EC30E0378B268B118E128E138EF8
:1014D000148EEFE5F5E026E5208321E02183E2E4A8
:1014E000F5E01382128284839583A683B7838EE707
:1014F00091E091838083EEE4F5E0138212828EE81E
:1015000091E09183808387E2848384E1808784E013
:101510008187128688E083870895A1E21A2EAA1B8C
:10152000BB1BFD010DC0AA1FBB1FEE1FFF1FA21793
:10153000B307E407F50720F0A21BB30BE40BF50B90
:10154000661F771F881F991F1A9469F76095709519
:10155000809590959B01AC01BD01CF010895EE0FE0
:10156000FF1F0590F491E02D09945058BB27AA273E
:101570000E94CD0A0C94400C0E94320C38F00E945C
:10158000390C20F039F49F3F19F426F40C942F0CF9
:101590000EF4E095E7FB0C94290CE92F0E94510C06
:1015A00058F3BA17620773078407950720F079F498
:1015B000A6F50C94730C0EF4E0950B2EBA2FA02D0B
:1015C0000B01B90190010C01CA01A0011124FF27F0
:1015D000591B99F0593F50F4503E68F11A16F040EB
:1015E000A22F232F342F4427585FF3CF46953795EA
:1015F0002795A795F0405395C9F77EF41F16BA0BAF
:10160000620B730B840BBAF09150A1F0FF0FBB1F5C
:10161000661F771F881FC2F70EC0BA0F621F731FA5
:10162000841F48F4879577956795B795F7959E3F02
:1016300008F0B0CF9395880F08F09927EE0F979593
:10164000879508950E94050C08F481E008950E9492
:101650003B0B0C94400C0E94390C58F00E94320C49
:1016600040F029F45F3F29F00C94290C51110C949F
:10167000740C0C942F0C0E94510C68F39923B1F355
:10168000552391F3951B550BBB27AA2762177307A8
:10169000840738F09F5F5F4F220F331F441FAA1F3C
:1016A000A9F335D00E2E3AF0E0E832D091505040F8
:1016B000E695001CCAF72BD0FE2F29D0660F771FA6
:1016C000881FBB1F261737074807AB07B0E809F08C
:1016D000BB0B802DBF01FF2793585F4F3AF09E3F11
:1016E000510578F00C94290C0C94740C5F3FE4F3D2
:1016F000983ED4F3869577956795B795F7959F5F54
:10170000C9F7880F911D9695879597F90895E1E09F
:10171000660F771F881FBB1F621773078407BA07FE
:1017200020F0621B730B840BBA0BEE1F88F7E09559
:1017300008950E94590C88F09F5798F0B92F992767
:10174000B751B0F0E1F0660F771F881F991F1AF0AC
:10175000BA95C9F714C0B13091F00E94730CB1E092
:1017600008950C94730C672F782F8827B85F39F091
:10177000B93FCCF3869577956795B395D9F73EF445
:1017800090958095709561957F4F8F4F9F4F0895ED
:10179000E89409C097FB3EF490958095709561950B
:1017A0007F4F8F4F9F4F9923A9F0F92F96E9BB27C1
:1017B0009395F695879577956795B795F111F8CF3D
:1017C000FAF4BB0F11F460FF1BC06F5F7F4F8F4FA8
:1017D0009F4F16C0882311F096E911C0772321F09E
:1017E0009EE8872F762F05C0662371F096E8862F36
:1017F00070E060E02AF09A95660F771F881FDAF78D
:10180000880F9695879597F90895990F0008550FB9
:10181000AA0BE0E8FEEF16161706E807F907C0F076
:1018200012161306E407F50798F0621B730B840B7E
:10183000950B39F40A2661F0232B242B252B21F458
:1018400008950A2609F4A140A6958FEF811D811DF8
:10185000089597F99F6780E870E060E008959FEF32
:1018600080EC089500240A94161617061806090637
:10187000089500240A941216130614060506089506
:10188000092E0394000C11F4882352F0BB0F40F48E
:10189000BF2B11F460FF04C06F5F7F4F8F4F9F4FCE
:1018A000089557FD9058440F551F59F05F3F71F050
:1018B0004795880F97FB991F61F09F3F79F08795B7
:1018C0000895121613061406551FF2CF4695F1DF40
:1018D00008C0161617061806991FF1CF86957105D0
:1018E000610508940895E894BB2766277727CB0104
:1018F00097F908950E94050C08F48FEF08950E944F
:10190000920C0C94400C0E94320C38F00E94390C5E
:1019100020F0952311F00C94290C0C942F0C112419
:101920000C94740C0E94510C70F3959FC1F3950FA9
:1019300050E0551F629FF001729FBB27F00DB11D53
:10194000639FAA27F00DB11DAA1F649F6627B00DE3
:10195000A11D661F829F2227B00DA11D621F739FCC
:10196000B00DA11D621F839FA00D611D221F749FDA
:101970003327A00D611D231F849F600D211D822F21
:10198000762F6A2F11249F5750409AF0F1F0882348
:101990004AF0EE0FFF1FBB1F661F771F881F915075
:1019A0005040A9F79E3F510580F00C94290C0C94EF
:1019B000740C5F3FE4F3983ED4F386957795679572
:1019C000B795F795E7959F5FC1F7FE2B880F911D9F
:1019D0009695879597F908950E94050C880B990BA9
:1019E0000895CF93DF938230910510F482E090E068
:1019F000E0916305F091640520E030E0C0E0D0E0C4
:101A0000309711F14081518148175907C0F04817AC
:101A1000590761F482819381209719F09B838A830F
:101A20002BC0909364058093630526C02115310572
:101A300019F04217530718F49A01BE01DF01EF01B4
:101A40000280F381E02DDCCF2115310509F1281B3F
:101A5000390B2430310590F412968D919C91139797
:101A60006115710521F0FB019383828304C090937B
:101A7000640580936305FD01329644C0FD01E20FC9
:101A8000F31F81939193225031092D933C933AC0D7
:101A90002091610530916205232B41F420910201D0
:101AA000309103013093620520936105209100017C
:101AB000309101012115310541F42DB73EB7409118
:101AC000040150910501241B350BE0916105F09153
:101AD0006205E217F307A0F42E1B3F0B2817390706
:101AE00078F0AC014E5F5F4F2417350748F04E0F7A
:101AF0005F1F50936205409361058193919302C0EB
:101B0000E0E0F0E0CF01DF91CF9108950F931F93B4
:101B1000CF93DF93009709F48CC0FC0132971382B6
:101B2000128200916305109164050115110581F47D
:101B300020813181820F931F2091610530916205D0
:101B40002817390779F5F0936205E093610571C0B4
:101B5000D80140E050E0AE17BF0750F412962D9127
:101B60003C911397AD012115310509F1D901F3CF4E
:101B70009D01DA013383228360817181860F971F73
:101B80008217930769F4EC0128813981260F371FEA
:101B90002E5F3F4F318320838A819B819383828391
:101BA000452B29F4F0936405E093630542C0139636
:101BB000FC93EE931297ED01499159919E01240FE8
:101BC000351FE217F30771F480819181840F951F0F
:101BD000029611969C938E938281938113969C9387
:101BE0008E931297E0E0F0E0D80112968D919C91CF
:101BF0001397009719F0F8018C01F6CF8D919C9105
:101C000098012E5F3F4F820F931F20916105309105
:101C100062052817390769F4309729F41092640592
:101C20001092630502C01382128210936205009322
:101C30006105DF91CF911F910F91089581E090E0B0
:0A1C4000F8940C94230EF894FFCFE3
:101C4A00000065058000666666440A377044291CF0
:101C5A0075440A17764448117744850B7844C305BE
:101C6A00794400007A449AF97A4433F37B44CDEC00
:101C7A007C4466E67D4400E07E449A69804400E044
:101C8A00814400508444CDBC864466968B4400400F
:101C9A0095446696B644ECF6FBFCFDFEFF00010295
:101CAA00030405070A0F141E32780000000003011E
:101CBA008700D300B200C5004801000000000302FB
:101CCA00D30199018A017C017B0100000000D10245
:101CDA008700536574757020426567696E73007377
:101CEA006574757020656E647300525444205365A0
:101CFA006E736F7220303A0052727464203D200075
:101D0A00206F686D0054727464203D2000092054CD
:101D1A00203A20002064656720430052544420463C
:101D2A0061756C742C2072656769737465723A20E8
:101D3A000052544420486967682054687265736881
:101D4A006F6C64204D657400525444204C6F7720A8
:101D5A005468726573686F6C64204D6574005245EF
:101D6A0046696E2D203E20302E3835207820566266
:101D7A0069617300464F5243452D206F70656E00AE
:101D8A004F7665722F556E64657220766F6C74613A
:101D9A006765206661756C7400556E6B6E6F776E41
:101DAA00206661756C742C20636865636B20636FB1
:101DBA006E6E656374696F6E000D0A006E616E0067
:0A1DCA00696E66006F7666002E0059
:00000001FF
