:1000000007C100003DC5000010C50000E3C40000AA
:10001000B6C4000089C400005CC400002FC4000006
:1000200002C4000025C1000023C1000021C100005E
:100030001FC100001DC100001BC1000019C100004C
:1000400017C1000015C1000013C1000011C100005C
:100050000FC100000DC100000BC100009AC30000D9
:1000600007C10000BFC5000094C5000001C1000029
:10007000FFC00000FDC00000FBC00000F9C0000090
:10008000F7C00000F5C00000F3C00000F1C00000A0
:10009000EFC00000EDC00000EBC00000E9C00000B0
:1000A000E7C00000E5C00000E3C00000E1C00000C0
:1000B000DFC00000DDC00000DBC00000D9C00000D0
:1000C000D7C00000D5C00000D3C00000D1C00000E0
:1000D000CFC00000CDC0000027C50000FCC4000058
:1000E000C7C0000068016B015A015E016201A201F4
:1000F0006F01730179017D01810187018B018F01FE
:10010000A201950199019D01000021002400270012
:100110002A002D0030003300010100000401070116
:100120000A0100002200250028002B002E003100CB
:10013000340002010000050108010B010505050559
:10014000070508080808020202020A0A080804044F
:10015000040401010101010101010303030303037D
:100160000303040707070C0C0C0C0C0C0C0C02020C
:10017000020206060606060606060B0B0B0B0B0B09
:100180000B0B010210202008081020401020408096
:10019000020102010804020101020408102040804B
:1001A00080402010080402018004020180402010D9
:1001B0000804020108040201010204081020408022
:1001C000010204081020408000000A0B02090C0DF7
:1001D0000E080703040100000000000000000000FA
:1001E000000000000000000000000000000000000F
:1001F00000000000121110000000000000000000CC
:1002000000000000000000000000000000002706C1
:1002100011241FBECFEFD1E2DEBFCDBF00E00CBF87
:1002200012E0A0E0B2E0EAE8F7E100E00BBF02C0B4
:1002300007900D92A837B107D9F727E0A8E7B2E0F9
:1002400001C01D92A030B207E1F711E0C8E0D1E093
:1002500000E006C021970109802FFE010E949D0940
:10026000C730D10780E00807A9F777D50C94C30BF6
:10027000C7CE362F90E0FC01E853FE4F4491FC01BD
:10028000EE57FE4F2491FC01E45CFE4F94919923BC
:1002900009F46BC0442309F455C050E0FA013197CA
:1002A000E231F10508F04EC08827EE58FF4F8F4F1E
:1002B0000C949D09809180008F7707C08091800009
:1002C0008F7D03C080918000877F809380003AC03B
:1002D00084B58F7702C084B58F7D84BD33C0809193
:1002E000B0008F7703C08091B0008F7D8093B00005
:1002F00029C0809190008F7707C0809190008F7DFA
:1003000003C080919000877F809390001BC08091F4
:10031000A0008F7707C08091A0008F7D03C08091DF
:10032000A000877F8093A0000DC0809120018F776F
:1003300007C0809120018F7D03C080912001877FBD
:1003400080932001E92FF0E0EE0FFF1FEE5DFE4FDE
:10035000A591B4918FB7F894EC91311103C0209519
:100360002E2301C02E2B2C938FBF0895CF93DF93A4
:1003700090E0FC01EE57FE4F2491FC01E45CFE4F3F
:100380008491882361F190E0880F991FFC01E85F58
:10039000FE4FC591D491FC01EE5DFE4FA591B49145
:1003A000611109C09FB7F8948881209582238883C2
:1003B000EC912E230BC0623061F49FB7F894388122
:1003C000822F809583238883EC912E2B2C939FBFC3
:1003D00006C08FB7F894E8812E2B28838FBFDF915A
:1003E000CF9108953FB7F89480919E0290919F021B
:1003F000A091A002B091A10226B5A89B05C02F3FF5
:1004000019F00196A11DB11D3FBFBA2FA92F982F3A
:100410008827820F911DA11DB11DBC01CD0142E0B5
:10042000660F771F881F991F4A95D1F708958F92FD
:100430009F92AF92BF92CF92DF92EF92FF926B01A9
:100440007C01D0DF4B015C01C114D104E104F10453
:10045000E9F0C8DFDC01CB0188199909AA09BB09B9
:10046000883E9340A105B10578F321E0C21AD10876
:10047000E108F10888EE880E83E0981EA11CB11CEB
:10048000C114D104E104F10421F7DECFFF90EF9015
:10049000DF90CF90BF90AF909F908F900895109273
:1004A00011021092100208950895CF92DF92EF92F8
:1004B000FF920F931F93CF93DF936C017A018B010F
:1004C000C0E0D0E0CE15DF0589F0D8016D918D0137
:1004D000D601ED91FC910190F081E02DC6011995B6
:1004E000892B11F47E0102C02196ECCFC701DF9168
:1004F000CF911F910F91FF90EF90DF90CF900895D3
:10050000FC01918D828D981759F0828DDF01A80F23
:10051000B11D5D968C91928D9F5F928F90E00895B2
:100520008FEF9FEF0895FC01918D828D981731F028
:10053000828DE80FF11D858D90E008958FEF9FEF7C
:100540000895FC01918D828D981B892F90E008956C
:1005500082EA92E0F6DF21E0892B09F420E0822F85
:1005600008958FEB94E0EDDF21E0892B09F420E082
:10057000822F0895FC01848DDF01A80FB11DA35EB9
:10058000BE4F2C91848D90E00196848FA689B78907
:100590002C93A089B1898C9180648C93938D848DE8
:1005A000981306C00288F389E02D80818F7D8083B7
:1005B0000895EF92FF920F931F93CF93DF93EC0177
:1005C00081E0888F9B8D8C8D981305C0E889F9890F
:1005D000808185FD21C0F62E0B8D10E00F5F1F4F2F
:1005E000E02E8C8DE8120BC00FB607FCFACFE8891D
:1005F000F989808185FFF5CFCE01BCDFF2CF8B8DED
:10060000FE01E80FF11DE35EFE4FF0820B8FEA89D9
:10061000FB898081806207C0EE89FF896083E88959
:10062000F98980818064808381E090E0DF91CF91BF
:100630001F910F91FF90EF900895CF93DF93EC01FE
:10064000888D8823C1F0EA89FB89808185FD05C0FA
:10065000A889B9898C9186FD0EC00FB607FCF5CF2D
:10066000808185FFF2CFA889B9898C9185FFEDCF74
:10067000CE0180DFE8CFDF91CF91089580E090E058
:10068000892B19F06EDF811120C080E090E0892B6A
:1006900041F080E090E0892B21F00E940000811160
:1006A00017C080E090E0892B41F080E090E0892B3A
:1006B00021F00E94000081110EC080E090E0892BA3
:1006C00079F046DF81110AC008950E940000DDCF55
:1006D0000E940000E6CF0E940000EFCF0C940000C3
:1006E00008958EBD00000DB407FEFDCF8EB50895B0
:1006F000009761F0FC0101900020E9F73197AF010C
:10070000481B590BBC018FEB94E0CFCE80E090E00A
:1007100008958F929F92AF92BF920F931F93CF93A2
:10072000DF93CDB7DEB7A1970FB6F894DEBF0FBE4B
:10073000CDBF19A2423008F44AE08E010F5D1F4F71
:10074000842E912CA12CB12CA5019401D4D5E62F97
:10075000B901CA0101501109EA3014F4E05D01C089
:10076000E95CD801EC93232B242B252B69F7C801D6
:10077000BFDFA1960FB6F894DEBF0FBECDBFDF91ED
:10078000CF911F910F91BF90AF909F908F90089540
:10079000DDD61F920F920FB60F9211242F933F9325
:1007A0008F939F93AF93BF9380919A0290919B02F6
:1007B000A0919C02B0919D023091990223E0230FF9
:1007C0002D3720F40196A11DB11D05C026E8230F89
:1007D0000296A11DB11D2093990280939A029093D5
:1007E0009B02A0939C02B0939D0280919E029091E7
:1007F0009F02A091A002B091A1020196A11DB11D7E
:1008000080939E0290939F02A093A002B093A102B6
:10081000BF91AF919F918F913F912F910F900FBEFC
:100820000F901F9018951F920F920FB60F921124E0
:100830000BB60F922F933F934F935F936F937F93DA
:100840008F939F93AF93BF93EF93FF93E0910E022B
:10085000F0910F021995FF91EF91BF91AF919F9188
:100860008F917F916F915F914F913F912F910F9059
:100870000BBE0F900FBE0F901F9018951F920F92F6
:100880000FB60F9211240BB60F922F933F934F93F5
:100890005F936F937F938F939F93AF93BF93EF93E8
:1008A000FF93E0910C02F0910D021995FF91EF91E9
:1008B000BF91AF919F918F917F916F915F914F9178
:1008C0003F912F910F900BBE0F900FBE0F901F9076
:1008D00018951F920F920FB60F9211240BB60F921C
:1008E0002F933F934F935F936F937F938F939F9338
:1008F000AF93BF93EF93FF93E0910202F091030255
:100900001995FF91EF91BF91AF919F918F917F9139
:100910006F915F914F913F912F910F900BBE0F9070
:100920000FBE0F901F9018951F920F920FB60F9247
:1009300011240BB60F922F933F934F935F936F93B6
:100940007F938F939F93AF93BF93EF93FF93E09128
:100950000002F09101021995FF91EF91BF91AF91C3
:100960009F918F917F916F915F914F913F912F91C7
:100970000F900BBE0F900FBE0F901F9018951F92F7
:100980000F920FB60F9211240BB60F922F933F9335
:100990004F935F936F937F938F939F93AF93BF9387
:1009A000EF93FF93E0910A02F0910B021995FF91EA
:1009B000EF91BF91AF919F918F917F916F915F91D7
:1009C0004F913F912F910F900BBE0F900FBE0F9044
:1009D0001F9018951F920F920FB60F9211240BB60D
:1009E0000F922F933F934F935F936F937F938F93C8
:1009F0009F93AF93BF93EF93FF93E0910802F09121
:100A000009021995FF91EF91BF91AF919F918F913D
:100A10007F916F915F914F913F912F910F900BBEFE
:100A20000F900FBE0F901F9018951F920F920FB648
:100A30000F9211240BB60F922F933F934F935F9316
:100A40006F937F938F939F93AF93BF93EF93FF9396
:100A5000E0910602F09107021995FF91EF91BF9185
:100A6000AF919F918F917F916F915F914F913F9146
:100A70002F910F900BBE0F900FBE0F901F901895E7
:100A80001F920F920FB60F9211240BB60F922F9355
:100A90003F934F935F936F937F938F939F93AF9306
:100AA000BF93EF93FF93E0910402F0910502199533
:100AB000FF91EF91BF91AF919F918F917F916F9136
:100AC0005F914F913F912F910F900BBE0F900FBEF2
:100AD0000F901F9018951F920F920FB60F9211242E
:100AE0000BB60F922F933F934F935F936F937F9328
:100AF0008F939F93AF93BF93EF93FF9382EA92E01C
:100B000039DDFF91EF91BF91AF919F918F917F91CF
:100B10006F915F914F913F912F910F900BBE0F906E
:100B20000FBE0F901F9018951F920F920FB60F9245
:100B300011240BB60F922F938F939F93EF93FF93F4
:100B4000E091B202F091B3028081E091B802F0919D
:100B5000B90282FD11C090818091BB028F5F20910C
:100B6000BC02821751F0E091BB02F0E0EE55FD4F60
:100B7000958F8093BB0201C08081FF91EF919F917F
:100B80008F912F910F900BBE0F900FBE0F901F9063
:100B900018951F920F920FB60F9211240BB60F9259
:100BA0002F933F934F935F936F937F938F939F9375
:100BB000AF93BF93EF93FF938FEB94E0DBDCFF9158
:100BC000EF91BF91AF919F918F917F916F915F91C5
:100BD0004F913F912F910F900BBE0F900FBE0F9032
:100BE0001F9018951F920F920FB60F9211240BB6FB
:100BF0000F922F938F939F93EF93FF93E091CF04E6
:100C0000F091D0048081E091D504F091D60482FD6A
:100C100011C090818091D8048F5F2091D9048217F0
:100C200051F0E091D804F0E0E154FB4F958F8093B0
:100C3000D80401C08081FF91EF919F918F912F91F6
:100C40000F900BBE0F900FBE0F901F901895E2EA09
:100C5000F2E01382128248EE53E060E070E04483D9
:100C600055836683778386E192E09183808325E3D1
:100C700031E03587248724E331E03787268720E376
:100C800031E0318B208B21E331E0338B228B22E367
:100C900031E0358B248B26E331E0378B268B118EA8
:100CA000128E138E148EEFEBF4E0138212824483C3
:100CB0005583668377839183808385EC90E0958765
:100CC000848784EC90E09787868780EC90E0918B16
:100CD000808B81EC90E0938B828B82EC90E0958B03
:100CE000848B86EC90E0978B868B118E128E138E00
:100CF000148EE4EFF6E0108281E0818382E292E0DC
:100D0000938382831582148211861086138612863D
:100D100017821682E8EEF6E0108282E0818385E297
:100D200092E0938382831582148211861086138643
:100D3000128617821682ECEDF6E0108283E0818342
:100D400088E292E093838283158214821186108652
:100D500013861286178216820895789484B582606D
:100D600084BD84B5816084BD85B5826085BD85B54F
:100D7000816085BD80916E00816080936E001092CD
:100D80008100809181008260809381008091810048
:100D900081608093810080918000816080938000D9
:100DA0008091B10084608093B1008091B000816037
:100DB0008093B00080919100826080939100809137
:100DC0009100816080939100809190008160809378
:100DD00090008091A10082608093A1008091A10089
:100DE00081608093A1008091A00081608093A00029
:100DF0008091210182608093210180912101816095
:100E00008093210180912001816080932001809155
:100E10007A00846080937A0080917A008260809367
:100E20007A0080917A00816080937A0080917A00C4
:100E3000806880937A001092C10060E082E096DAC8
:100E400061E088E093DA61E087E090DA61E088E0D1
:100E500010DAE091CF04F091D00482E08083E09139
:100E6000CB04F091CC041082E091CD04F091CE043B
:100E700080E180831092D704E091D304F091D404F0
:100E800086E08083E091D104F091D204808180617A
:100E90008083E091D104F091D204808188608083C6
:100EA000E091D104F091D204808180688083E09148
:100EB000D104F091D20480818F7D80838FE492E011
:100EC000909301028093000280916A008C7F82607F
:100ED00080936A00EC9A8CB58C7F81608CBD8DB557
:100EE0008E7F8DBD8CB5837F84608CBD60ED77E097
:100EF00080E090E09CDACFB7F8948091780281117D
:100F000023C0E1E7F1E08491E7EBF1E09491E82F71
:100F1000F0E0EE0FFF1FE85FFE4FA591B491EC915A
:100F2000E92319F461E085E3A4D961E085E31EDAE1
:100F30008CB580618CBD8CB580648CBD61E084E330
:100F400015DA61E083E312DA809178028F5F809393
:100F50007802CFBF60E087E08CD961E070E080E08C
:100F600090E065DA86E0BDDB66E070E080E090E06E
:100F70005EDA86E1B6DB80E4B4DB80E0B2DB8FE2F0
:100F8000B0DB82E4AEDB80E0ACDB88E2AADB83E4AA
:100F9000A8DB80E0A6DB80E2A4DB8AE4A2DB80E0C1
:100FA000A0DB83E09EDB8BE49CDB80E09ADB8CE1C2
:100FB00098DB61E087E05DD968EE73E080E090E067
:100FC00036DA2FB7F89480919A0290919B02A09103
:100FD0009C02B0919D022FBF809395029093960240
:100FE000A0939702B09398028BE292E081DB86E3B4
:100FF00092E07EDB01E010E0409195025091960274
:1010000060919702709198022FB7F89480919A029C
:1010100090919B02A0919C02B0919D022FBF885796
:101020009C4EAF4FBF4F84179507A607B70750F4E4
:1010300089E392E05DDB86E392E05ADB10921102D5
:10104000109210028091100290911102892B09F0E8
:1010500050C12FB7F89480919A0290919B02A09171
:101060009C02B0919D022FBF8093950290939602AF
:10107000A0939702B093980260E087E0FAD861E00D
:1010800070E080E090E0D3D982E12BDB61E070E09A
:1010900080E090E0CCD98FEF24DBC82F8FEF21DBED
:1010A000C82E8FEF1EDBD12CE12CF12CDC2AFE2C7C
:1010B000ED2CDC2CCC24C82AC0929102D092920252
:1010C000E0929302F092940261E087E0D2D861E06E
:1010D00070E080E090E0ABD960918D0270918E025B
:1010E00080918F02909190024B015C012FEF821A48
:1010F000920AA20AB20A80928D0290928E02A09267
:101100008F02B092900225E030E040E050E0F3D052
:10111000EB01CC0FDD1FCC0FDD1FC758DD4FC70122
:10112000B6011CD22EEF3FEF4FEF5AE473D120E00F
:1011300038EE40E055E473D2688379838A839B83D9
:10114000C501B40125E030E040E050E0D4D0672B89
:10115000682B692B09F0C7C0C9E7D2E060E070E0F6
:10116000CB012991399149915991F0D022E0CD38A4
:10117000D207B9F720E030E040EA50E44BD16B01F0
:101180007C014B015C0187E492E0B2DA60918D0250
:1011900070918E0280918F02909190024AE0B9DAAC
:1011A0008FE492E0A5DA60919102709192028091B1
:1011B0009302909194024AE0ACDA82E692E098DAE7
:1011C000A7019601C701B601BDD1882319F089E6B0
:1011D00092E018C026013701E89477F82FEF3FEF2F
:1011E0004FE75FE7C301B201ADD181110DC02FEF11
:1011F0003FEF4FE75FE7C301B201ACD1181624F40B
:101200008DE692E075DA6CC02FEF3FEF4FE75FE4B9
:10121000C701B60193D118161CF481E792E0F2CF12
:101220002FEF3FEF4FE75FECC701B60193D187FD8A
:10123000F4CF20E030E0A901C701B6018BD187FFD0
:1012400011C0E091BF04F091C0040190F081E02D45
:101250006DE28FEB94E0199546015701B7FAB0940F
:10126000B7F8B0942AE037ED43EA5BE3C501B40177
:101270006DD04B015C0136D16B017C016FD19B01BC
:10128000AC01C501B40161D04B015C014AE0C7016A
:10129000B6013FDA85E792E02BDA20E030E040E269
:1012A00051E4C501B401BBD14B015C011BD16B0101
:1012B000E12CF12C4AE0C701B6012BDAC701B601D7
:1012C0004DD19B01AC01C501B4013FD020E030E01D
:1012D00040E251E4A4D106D180E090E04AE019DA7E
:1012E00086E392E005DAF89410931102009310025D
:1012F0007894C4D981CEA1E21A2EAA1BBB1BFD0192
:101300000DC0AA1FBB1FEE1FFF1FA217B307E407E4
:10131000F50720F0A21BB30BE40BF50B661F771F3C
:10132000881F991F1A9469F760957095809590951C
:101330009B01AC01BD01CF010895EE0FFF1F881F77
:101340008BBF0790F691E02D19945058BB27AA2720
:101350000ED0DFC1D0D130F0D5D120F031F49F3F95
:1013600011F41EF4C5C10EF4E095E7FBBBC1E92FF3
:10137000E1D180F3BA17620773078407950718F065
:1013800071F49EF5F9C10EF4E0950B2EBA2FA02D45
:101390000B01B90190010C01CA01A0011124FF2722
:1013A000591B99F0593F50F4503E68F11A16F0401D
:1013B000A22F232F342F4427585FF3CF469537951C
:1013C0002795A795F0405395C9F77EF41F16BA0BE1
:1013D000620B730B840BBAF09150A1F0FF0FBB1F8F
:1013E000661F771F881FC2F70EC0BA0F621F731FD8
:1013F000841F48F4879577956795B795F7959E3F35
:1014000008F0B3CF9395880F08F09927EE0F9795C2
:10141000879508950CD07DC175D140F06CD130F026
:1014200021F45F3F19F05EC15111A7C161C182D1A2
:1014300098F39923C9F35523B1F3951B550BBB279B
:10144000AA2762177307840738F09F5F5F4F220F48
:10145000331F441FAA1FA9F333D00E2E3AF0E0E841
:1014600030D091505040E695001CCAF729D0FE2F8D
:1014700027D0660F771F881FBB1F2617370748071F
:10148000AB07B0E809F0BB0B802DBF01FF279358D5
:101490005F4F2AF09E3F510568F024C16EC15F3F47
:1014A000ECF3983EDCF3869577956795B795F795BD
:1014B0009F5FC9F7880F911D9695879597F90895B5
:1014C000E1E0660F771F881FBB1F62177307840751
:1014D000BA0720F0621B730B840BBA0BEE1F88F760
:1014E000E09508952FD188F09F5790F0B92F992754
:1014F000B751A0F0D1F0660F771F881F991F1AF01F
:10150000BA95C9F712C0B13081F036D1B1E0089573
:1015100033C1672F782F8827B85F39F0B93FCCF3F4
:10152000869577956795B395D9F73EF49095809514
:10153000709561957F4F8F4F9F4F08954CD008F461
:101540008FEF089548D0880B990B089581E090E0C3
:10155000F89419C140D008F481E00895E89409C0D6
:1015600097FB3EF490958095709561957F4F8F4FD6
:101570009F4F9923A9F0F92F96E9BB279395F695EC
:10158000879577956795B795F111F8CFFAF4BB0F6A
:1015900011F460FF1BC06F5F7F4F8F4F9F4F16C0CE
:1015A000882311F096E911C0772321F09EE8872F58
:1015B000762F05C0662371F096E8862F70E060E014
:1015C0002AF09A95660F771F881FDAF7880F96958D
:1015D000879597F90895990F0008550FAA0BE0E831
:1015E000FEEF16161706E807F907C0F012161306E5
:1015F000E407F50798F0621B730B840B950B39F425
:101600000A2661F0232B242B252B21F408950A268A
:1016100009F4A140A6958FEF811D811D08950BD07F
:1016200078C069D028F06ED018F0952309F05AC020
:101630005FC01124A2C07ED0A0F3959FD1F3950F77
:1016400050E0551F629FF001729FBB27F00DB11D46
:10165000639FAA27F00DB11DAA1F649F6627B00DD6
:10166000A11D661F829F2227B00DA11D621F739FBF
:10167000B00DA11D621F839FA00D611D221F749FCD
:101680003327A00D611D231F849F600D211D822F14
:10169000762F6A2F11249F5750408AF0E1F088235B
:1016A0004AF0EE0FFF1FBB1F661F771F881F915068
:1016B0005040A9F79E3F510570F014C05EC05F3FD7
:1016C000ECF3983EDCF3869577956795B795F7959B
:1016D000E7959F5FC1F7FE2B880F911D9695879523
:1016E00097F9089597F99F6780E870E060E00895A2
:1016F0009FEF80EC089500240A941616170618062A
:101700000906089500240A94121613061406050605
:101710000895092E0394000C11F4882352F0BB0F96
:1017200040F4BF2B11F460FF04C06F5F7F4F8F4FF9
:101730009F4F089557FD9058440F551F59F05F3F34
:1017400071F04795880F97FB991F61F09F3F79F0E3
:1017500087950895121613061406551FF2CF469565
:10176000F1DF08C0161617061806991FF1CF8695E7
:101770007105610508940895E894BB2766277727CB
:0A178000CB0197F90895F894FFCF0C
:10178A00540254025402540254025402540254029F
:10179A00010000000000D9025502A1028002930252
:1017AA001D037430007431006E3000536574757017
:1017BA0020656E6473000D0A005741495420544F46
:1017CA004F204D5543480053414D504C4520002071
:1017DA002D2D3E20416E616C6F672076616C203A38
:1017EA002000204F686D203A006E616E00696E66B7
:0817FA00006F7666002E00006E
:00000001FF
