:1000000099C10000BEC6000091C6000064C6000091
:1000100037C600000AC60000DDC50000B0C50000FC
:1000200083C50000B8C10000B6C10000B4C1000023
:10003000B2C10000B0C10000AEC10000ACC1000000
:10004000AAC10000A8C10000A6C10000A4C1000010
:10005000A2C10000A0C100009EC100000C94431189
:100060009AC1000049C700001EC7000094C10000EB
:1000700092C1000090C100008EC100008CC1000040
:100080008AC1000088C1000086C1000084C1000050
:1000900082C1000080C100007EC100000C9499095B
:1000A0007AC1000078C1000076C1000074C1000070
:1000B00072C1000070C100006EC100006CC1000080
:1000C0006AC1000068C1000066C10000C3C600002C
:1000D00098C6000060C100005EC100005CC1000065
:1000E0005AC10000B80DBB0DAA0DAE0DB40DF20D36
:1000F000BF0DC30DC90DCD0DD10DD70DDB0DDF0D1E
:10010000F20DE50DE90DED0D6F0E760E530E5A0E44
:10011000610E680E7D0E840E000021002400270071
:100120002A002D0030003300010100000401070106
:100130000A0100002200250028002B002E003100BB
:10014000340002010000050108010B01000020003D
:100150002300260029002C002F003200000100009F
:10016000030106010901050505050705080808083A
:10017000020202020A0A080804040404010101013F
:10018000010101010303030303030303040707073A
:100190000C0C0C0C0C0C0C0C0202020206060606DF
:1001A000060606060B0B0B0B0B0B0B0B01021020AC
:1001B000200808102040102040800201020108049D
:1001C0000201010204081020408080402010080431
:1001D000020180040201804020100804020108048A
:1001E00002010102040810204080010204081020CE
:1001F000408000000A0B02090C0D0E0807030401E1
:1002000000000000000000000000000000000000EE
:1002100000000000000000000000000000001211BB
:1002200010000000000000000000000000000000BE
:10023000000000000000000000407A10F35A00A007
:10024000724E18090010A5D4E80000E8764817009F
:1002500000E40B54020000CA9A3B000000E1F505DF
:10026000000080969800000040420F000000A08629
:1002700001000000102700000000E803000000005B
:100280006400000000000A000000000001000000FF
:1002900000002C76D888DC674F0823DFC1DFAE5919
:1002A000E1B1B796E5E3E453C63AE651997696E8AC
:1002B000E6C28426EB898C9B62ED407C6FFCEFBC30
:1002C0009C9F40F2BAA56FA5F490055A2AF75C935B
:1002D0006B6CF9676DC11BFCE0E40D47FEF520E691
:1002E000B500D0ED902E0300943577050080841E74
:1002F000080000204E0A000000C80C333333330FCF
:10030000986E12831141EF8D2114893BE65516CF6B
:10031000FEE6DB18D1844B381BF77C1D901DA4BB77
:10032000E424203284725E228100C9F124ECA1E52C
:100330003D27021C11241FBECFEFD1E2DEBFCDBF8F
:1003400000E00CBF13E0A0E0B2E0EEECFDE400E062
:100350000BBF02C007900D92A23DB107D9F727E06D
:10036000A2EDB3E001C01D92A631B207E1F711E0A2
:10037000CAE9D1E000E006C021970109802FFE0103
:100380000E94F51CC939D10780E00807A9F70E942F
:100390008D110C94E52634CE0895CF92DF92EF9222
:1003A000FF920F931F93CF93DF936C017A018B0120
:1003B000C0E0D0E0CE15DF0589F0D8016D918D0148
:1003C000D601ED91FC910190F081E02DC6011995C7
:1003D000892B11F47E0102C02196ECCFC701DF9179
:1003E000CF911F910F91FF90EF90DF90CF900895E4
:1003F000FC01A089B1898C91A689B78982FD0FC0C3
:100400009C91818D8F5F8F73228D821749F0218D92
:10041000DF01A20FB11D5D969C93818F08958C9191
:100420000895FC01918D828D981761F0828DDF0116
:10043000A80FB11D5D968C91928D9F5F9F73928FD7
:1004400090E008958FEF9FEF0895FC01918D828DCC
:10045000981731F0828DE80FF11D858D90E0089599
:100460008FEF9FEF0895FC01918D228D892F90E0F1
:10047000805C9F4F821B91098F73992708958CEAA6
:1004800094E0F1DF21E0892B09F420E0822F089528
:1004900089E495E0E8DF21E0892B09F420E0822F50
:1004A0000895FC01848DDF01A80FB11DA35ABF4F31
:1004B0002C91848D90E001968F739927848FA68963
:1004C000B7892C93A089B1898C9180648C93938D8A
:1004D000848D981306C00288F389E02D80818F7D7A
:1004E00080830895EF92FF920F931F93CF93DF9332
:1004F000EC0181E0888F9B8D8C8D981305C0E88975
:10050000F989808185FD23C0F62E0B8D10E00F5FE9
:100510001F4F0F731127E02E8C8DE8120BC00FB602
:1005200007FCFACFE889F989808185FFF5CFCE01F4
:10053000B8DFF2CF8B8DFE01E80FF11DE35AFF4FBC
:10054000F0820B8FEA89FB898081806207C0EE8987
:10055000FF896083E889F98980818064808381E0F4
:1005600090E0DF91CF911F910F91FF90EF90089550
:10057000CF93DF93EC01888D8823C1F0EA89FB8952
:10058000808185FD05C0A889B9898C9186FD0EC042
:100590000FB607FCF5CF808185FFF2CFA889B98916
:1005A0008C9185FFEDCFCE017CDFE8CFDF91CF913D
:1005B000089580E090E0892B19F06ADF811120C056
:1005C00080E090E0892B41F080E090E0892B21F0E1
:1005D0000E940000811117C080E090E0892B19F083
:1005E0004EDF811113C080E090E0892BA1F080E004
:1005F00090E0892B81F00E94000081110AC00895CB
:100600000E940000DDCF0E940000E6CF0E940000A3
:10061000EACF0C94000008950895E091DB038091E7
:10062000DA03E81730F4F0E0E452FC4F808190E008
:1006300008958FEF9FEF08959091DB038091DA0387
:10064000981750F4E92FF0E0E452FC4F208130E09D
:100650009F5F9093DB0302C02FEF3FEFC901089526
:100660008091DA0390E02091DB03821B91090895C9
:1006700085ED8093BC008091BC0084FDFCCF10927E
:100680008704089540913304262F30E0240F311D54
:1006900021323105DCF4209187042430C9F4FC01B7
:1006A00080E090E0861758F4309133042191DC010A
:1006B000AF5EBB4FA30FB11D2C930196F3CF80917A
:1006C0003304680F6093330480E0089581E0089557
:1006D00082E00895CF92DF92EF92FF920F931F93E3
:1006E000CF93DF937C01262F972F8A018091880476
:1006F000882391F0C62FD72F6E01C40ED51ECC15BE
:10070000DD0569F06991D701ED91FC910190F081CF
:10071000E02DC7011995F3CF642F822FB3DFC801F5
:10072000DF91CF911F910F91FF90EF90DF90CF90CD
:100730000895CF93DF931F92CDB7DEB769832091E1
:1007400088042223D1F02091AB04203240F021E034
:1007500030E0FC013383228380E090E014C080917C
:100760008904E82FF0E0E657FB4F998190838F5F73
:10077000809389048093AB0404C061E0CE010196AC
:1007800081DF81E090E00F90DF91CF9108950E948A
:10079000F11EFC01808191810C9491221F920F9295
:1007A0000FB60F9211240BB60F92CF92DF92EF92F9
:1007B000FF922F933F934F935F936F937F938F930A
:1007C0009F93AF93BF93EF93FF930E94DA10C09073
:1007D0005C04D0905D04E0905E04F0905F049B01A7
:1007E000AC012C193D094E095F0969017A010E948B
:1007F000DA1060935C0470935D0480935E049093C0
:100800005F0435EFC31631E0D306E104F10440F193
:100810008091D6039091D703A091D803B091D903CA
:100820000196A11DB11D8093D6039093D703A09389
:10083000D803B093D9038091580490915904A091A2
:100840005A04B0915B04C816D906EA06FB0640F4C8
:10085000C0925804D0925904E0925A04F0925B047A
:10086000FF91EF91BF91AF919F918F917F916F9188
:100870005F914F913F912F91FF90EF90DF90CF903C
:100880000F900BBE0F900FBE0F901F9018951F92E8
:100890000F920FB60F9211240BB60F92CF92DF92E8
:1008A000EF92FF922F933F934F935F936F937F93BA
:1008B0008F939F93AF93BF93EF93FF930E94DA10B0
:1008C000C090D203D090D303E090D403F090D5032E
:1008D0009B01AC012C193D094E095F0969017A01A0
:1008E0000E94DA106093D2037093D3038093D403F1
:1008F0009093D50339EEC31633E0D306E104F10437
:1009000040F18091FC039091FD03A091FE03B09112
:10091000FF030196A11DB11D8093FC039093FD037D
:10092000A093FE03B093FF03809100049091010413
:10093000A0910204B0910304C816D906EA06FB068A
:1009400040F4C0920004D0920104E0920204F092BC
:100950000304FF91EF91BF91AF919F918F917F9190
:100960006F915F914F913F912F91FF90EF90DF90AA
:10097000CF900F900BBE0F900FBE0F901F90189549
:100980000F931F93CF93DF93EC0188819981009798
:1009900029F02A813B812617370788F48B016F5F86
:1009A0007F4F0E940D1E009761F0998388831B83FF
:1009B0000A832C813D81232B11F4FC01108281E0FC
:1009C00001C080E0DF91CF911F910F910895EF92C8
:1009D000FF920F931F93CF93DF93FB012481358107
:1009E000E080F180FC0104811581E114F10411F42F
:1009F00080E016C02115310591F0EC01020F131FA4
:100A0000B801BEDF8823A1F3288139818C819D81C3
:100A1000B701820F931F0E94FE1E1D830C8381E08D
:100A2000DF91CF911F910F91FF90EF900895EF927A
:100A3000FF920F931F93CF93DF93EC0119821882DB
:100A40001B821A821D821C826115710541F18B0186
:100A5000FB0101900020E9F731977F01E61AF70AC0
:100A6000B7018EDF2881398181110DC02115310533
:100A700019F0C9010E949122198218821D821C82DC
:100A80001B821A820CC0FD82EC82B801C901DF9181
:100A9000CF911F910F91FF90EF900C94FE1EDF916C
:100AA000CF911F910F91FF90EF900895EF92FF92D9
:100AB0000F931F93CF93DF93EC01198218821B824F
:100AC0001A821D821C828617970739F1FB0100816B
:100AD00011810115110509F1E480F580B70150DF9E
:100AE0002881398181110DC02115310519F0C90105
:100AF0000E949122198218821D821C821B821A82F6
:100B00000CC0FD82EC82B801C901DF91CF911F9129
:100B10000F91FF90EF900C94FE1EDF91CF911F91EB
:100B20000F91FF90EF9008951F920F920FB60F92C2
:100B300011240BB60F922F933F934F935F936F93B4
:100B40007F938F939F93AF93BF93EF93FF93E09126
:100B50001102F09112021995FF91EF91BF91AF919F
:100B60009F918F917F916F915F914F913F912F91C5
:100B70000F900BBE0F900FBE0F901F9018951F92F5
:100B80000F920FB60F9211240BB60F922F933F9333
:100B90004F935F936F937F938F939F93AF93BF9385
:100BA000EF93FF93E0910F02F09110021995FF91DE
:100BB000EF91BF91AF919F918F917F916F915F91D5
:100BC0004F913F912F910F900BBE0F900FBE0F9042
:100BD0001F9018951F920F920FB60F9211240BB60B
:100BE0000F922F933F934F935F936F937F938F93C6
:100BF0009F93AF93BF93EF93FF93E0910502F09122
:100C000006021995FF91EF91BF91AF919F918F913E
:100C10007F916F915F914F913F912F910F900BBEFC
:100C20000F900FBE0F901F9018951F920F920FB646
:100C30000F9211240BB60F922F933F934F935F9314
:100C40006F937F938F939F93AF93BF93EF93FF9394
:100C5000E0910302F09104021995FF91EF91BF9189
:100C6000AF919F918F917F916F915F914F913F9144
:100C70002F910F900BBE0F900FBE0F901F901895E5
:100C80001F920F920FB60F9211240BB60F922F9353
:100C90003F934F935F936F937F938F939F93AF9304
:100CA000BF93EF93FF93E0910D02F0910E0219951F
:100CB000FF91EF91BF91AF919F918F917F916F9134
:100CC0005F914F913F912F910F900BBE0F900FBEF0
:100CD0000F901F9018951F920F920FB60F9211242C
:100CE0000BB60F922F933F934F935F936F937F9326
:100CF0008F939F93AF93BF93EF93FF93E0910B027A
:100D0000F0910C021995FF91EF91BF91AF919F91D6
:100D10008F917F916F915F914F913F912F910F90A4
:100D20000BBE0F900FBE0F901F9018951F920F9241
:100D30000FB60F9211240BB60F922F933F934F9340
:100D40005F936F937F938F939F93AF93BF93EF9333
:100D5000FF93E0910902F0910A021995FF91EF913A
:100D6000BF91AF919F918F917F916F915F914F91C3
:100D70003F912F910F900BBE0F900FBE0F901F90C1
:100D800018951F920F920FB60F9211240BB60F9267
:100D90002F933F934F935F936F937F938F939F9383
:100DA000AF93BF93EF93FF93E0910702F091080296
:100DB0001995FF91EF91BF91AF919F918F917F9185
:100DC0006F915F914F913F912F910F900BBE0F90BC
:100DD0000FBE0F901F9018956115710579F0FB01FA
:100DE00001900020E9F73197AF01461B570BDC015A
:100DF000ED91FC910280F381E02D199480E090E068
:100E000008951F920F920FB60F9211240BB60F92F6
:100E10002F933F934F935F936F937F938F939F9302
:100E2000AF93BF93EF93FF938CEA94E03ADBFF918B
:100E3000EF91BF91AF919F918F917F916F915F9152
:100E40004F913F912F910F900BBE0F900FBE0F90BF
:100E50001F9018951F920F920FB60F9211240BB688
:100E60000F922F933F934F935F936F937F938F9343
:100E70009F93AF93BF93EF93FF938CEA94E0B8DA1C
:100E8000FF91EF91BF91AF919F918F917F916F9162
:100E90005F914F913F912F910F900BBE0F900FBE1E
:100EA0000F901F9018951F920F920FB60F9211245A
:100EB0000BB60F922F933F934F935F936F937F9354
:100EC0008F939F93AF93BF93EF93FF9389E495E044
:100ED000E8DAFF91EF91BF91AF919F918F917F9150
:100EE0006F915F914F913F912F910F900BBE0F909B
:100EF0000FBE0F901F9018951F920F920FB60F9272
:100F000011240BB60F922F933F934F935F936F93E0
:100F10007F938F939F93AF93BF93EF93FF9389E456
:100F200095E066DAFF91EF91BF91AF919F918F911C
:100F30007F916F915F914F913F912F910F900BBED9
:100F40000F900FBE0F901F901895CF92DF92FF92D7
:100F50000F931F93CF93DF93EC010E943711098504
:100F60001A852B853C85601771078207930720F44B
:100F700019861A861B861C862D85211111C00985AC
:100F80001A852B853C85DC01CB01801B910BA20BC4
:100F9000B30B803D9740A105B10510F481E06EC010
:100FA0001D860E94371169877A878B879C871C82F0
:100FB0001B821A821982188261E08E81CED76AEF75
:100FC00070E080E090E00E94FF1061E08E810E945E
:100FD0009E1060E08E81C1D764E170E080E090E017
:100FE0000E94FF10F89461E08E81B7D78BE990E002
:100FF0000197F1F760E08E810E949E1010E0F12CC5
:1010000081E000E0C82ED12C8E817FD78C159D0504
:1010100019F40F5F0F3FC1F78E8177D70F3FB9F0FB
:10102000143090F010FD10C09F2D969596959695D2
:10103000FE01E90FF11D9081990F908328852017FB
:1010400010F491609083F3941F5F1535D1F6789476
:1010500087E28F1590F42C8130E04881898190E0FF
:10106000840F911D4A81840F911D4B81840F911D26
:1010700099272817390709F491CF80E0DF91CF91A4
:101080001F910F91FF90DF90CF900895CF92DF9244
:10109000EF92FF92CF93DF93EC0157DF882381F12A
:1010A0008F818B3031F160F18551823048F5688154
:1010B00070E080E090E00E94B72520E030E040E85A
:1010C00053E40E9418266B017C018981682F70E02F
:1010D00080E090E00E94B9259B01AC01C701B601F8
:1010E0000E94FE1C20E030E040E251E40E94691DB5
:1010F0000BC0688170E080E090E00E94B72504C0DA
:1011000060E070E080EC9FE7DF91CF91FF90EF907F
:10111000DF90CF900895FC01A189B2899C918485CC
:10112000892B8C93A585B6859C9184858095892390
:101130008C93A189B2899C918485809589238C9315
:101140008FE090E00197F1F7A785B0892C9183ECAF
:1011500090E00197F1F78485922F982381E009F4BC
:1011600080E00895DC015196ED91FC9152979081B9
:101170001C968C911C97892B80831D96ED91FC9178
:101180001E9790811C968C911C9780958923808353
:10119000262F217030E0F901E45EFC4FE081F0E0A1
:1011A000E230F10538F0EE0FFF1FEE0FFF1F35970D
:1011B0003197F1F71D96ED91FC911E9790811C9649
:1011C0008C91892B8083F901E65EFC4F808190E051
:1011D0008230910538F0880F991F880F991F059765
:1011E0000197F1F70895CF92DF92EF92FF920F935C
:1011F0001F93CF93DF931F92CDB7DEB76C01E62E1E
:1012000008E010E0FF24F39461E08F2D8E2109F4B3
:1012100060E0C6014983A6DFFF0C01501109498136
:101220000115110589F7411111C060E0F6018285B1
:1012300085D760E0F60182850F90DF91CF911F91F5
:101240000F91FF90EF90DF90CF9087C60F90DF91C6
:10125000CF911F910F91FF90EF90DF90CF90089565
:10126000CF92DF92EF92FF920F931F93CF93DF9372
:101270001F92CDB7DEB78C01F62E40E065E579838D
:10128000B2DFCF2C7981D72E760188E0E80EF11CF1
:10129000F60161916F0140E0C801A5DFCE14DF04C3
:1012A000B9F70F90DF91CF911F910F91FF90EF90C1
:1012B000DF90CF900895EF92FF920F931F93CF93FB
:1012C0008C0160E0FC01828539D7CEE783E0E82E0F
:1012D000F12CC15039F1C7010197F1F7F80182856E
:1012E00014D6892BB1F360E0F801828536D661E02F
:1012F000F801828523D78BEC97E00197F1F760E046
:10130000F80182851BD78FEF90E00197F1F7F80184
:101310008285FBD5C1E0892B09F0C0E083EA97E024
:101320000197F1F78C2FCF911F910F91FF90EF90C4
:1013300008951F920F920FB60F9211240BB60F92C1
:101340002F933F934F935F936F937F938F939F93CD
:10135000AF93BF93EF93FF938091B900887F80365E
:1013600009F49CC068F5883209F45BC090F48031C0
:1013700009F454C038F4882309F4F6C0883009F41D
:101380004DC0F5C0883109F44CC0803209F45DC00D
:10139000EEC0803409F468C048F4803309F455C0C5
:1013A000883309F0E4C080938504D8C0803509F4FF
:1013B0004FC0883509F45DC0883409F0D8C0D6C064
:1013C000883909F4C7C0A8F4883709F467C038F42D
:1013D000883609F463C0803709F460C0C8C0883813
:1013E00009F4B8C0803909F45FC0803809F0BFC083
:1013F0005BC0803B09F486C038F4803A09F466C0CB
:10140000883A09F47FC0B3C0803C09F4A7C0883C87
:1014100009F4A4C0883B09F48AC0A9C08091620481
:1014200010C09091840480918304981770F5E09126
:10143000840481E08E0F80938404F0E0ED59FB4F2B
:1014400080818093BB0085EC86C0809385048EC02C
:10145000E091840481E08E0F809384048091BB002E
:10146000F0E0ED59FB4F80839091840480918304D8
:101470006EC0E091840481E08E0F8093840480919B
:10148000BB00F0E0ED59FB4F808380918604811111
:101490006DC081E08093610484EA61C083E0809341
:1014A000870410925704CFCF80915704803208F000
:1014B00051C0E091570481E08E0F809357048091D2
:1014C000BB00F0E0E95CFB4F8083BDCF85EC8093EF
:1014D000BC001092870480915704803230F4E09170
:1014E0005704F0E0E95CFB4F10826091570470E014
:1014F000E0913504F091360487E394E01995109259
:10150000570435C084E0809387041092340410920D
:101510003304E0913104F091320419958091330441
:10152000811105C081E08093330410921104E09191
:10153000340481E08E0F80933404F0E0EF5EFB4FC3
:1015400080818093BB00909134048091330498177C
:1015500008F479CF85E88093BC0009C085EC8093BE
:10156000BC001092870403C01092850481D8FF91BB
:10157000EF91BF91AF919F918F917F916F915F910B
:101580004F913F912F910F900BBE0F900FBE0F9078
:101590001F901895EF92FF920F931F93CF93DF93B5
:1015A000CDB7DEB7E2970FB6F894DEBF0FBECDBF62
:1015B0001F921F921F9282E68F9380EA93E09F937F
:1015C0008F938E010F5F1F4F1F930F930E94141F65
:1015D0007C01F801E80FF91F1082C8019CD30FB6F7
:1015E000F894DEBF0FBECDBF80916004882319F050
:1015F000B701C8012BD580E0E2960FB6F894DEBFA4
:101600000FBECDBFDF91CF911F910F91FF90EF9053
:101610000895EF92FF920F931F93CF93DF93CDB76F
:10162000DEB7E2970FB6F894DEBF0FBECDBF1F92B4
:101630001F921F9282E08F9380EA93E09F938F9393
:101640008E010F5F1F4F1F930F930E94141F7C0189
:10165000F801E80FF91F1082C8015DD30FB6F894A6
:10166000DEBF0FBECDBF80916004882319F0B701A3
:10167000C801ECD480E090E0E2960FB6F894DEBFAB
:101680000FBECDBFDF91CF911F910F91FF90EF90D3
:101690000895EF92FF920F931F93CF93DF93CDB7EF
:1016A000DEB7E2970FB6F894DEBF0FBECDBF8091D4
:1016B0001207909113078E010F5F1F4F009731F4AF
:1016C000C801865197409A8389831BC09801281BC3
:1016D000390BC901E0911407F091150720E030E0C3
:1016E000309759F0A9014E5F5F4F20813181240F5F
:1016F000351F0280F381E02DF3CF280F391F3A8385
:10170000298389819A8120910F0430911004281730
:10171000390724F49093100480930F042091010260
:10172000309102028217930724F49093020280936F
:101730000102209110042F9320910F042F932091E8
:1017400002022F93209101022F939F938F931F9258
:101750001F921F9281E28F9387E993E09F938F936B
:101760001F930F930E94141F7C01F801E80FF91FCB
:101770001082C801D0D20FB6F894DEBF0FBECDBF25
:1017800080916004882319F0B701C8015FD480E01C
:10179000E2960FB6F894DEBF0FBECDBFDF91CF91BA
:1017A0001F910F91FF90EF9008958F929F92AF92AB
:1017B000BF92CF92DF92EF92FF920F931F93CF933E
:1017C000DF93CDB7DEB7C253D1400FB6F894DEBF7A
:1017D0000FBECDBFA0900404B090050461EB73E090
:1017E000CE01835D9E4F23D98AE090E00E94FC21C8
:1017F0004C01F5016085718582859385840122E025
:1018000044E00E94DD216E01F9ECCF0ED11CB40141
:10181000C6010DD9B601CE0101967C0147D9C70199
:10182000E8D2BC01CE01835D9E4FD1D8C7010E9492
:10183000C903C6010E94C903C4010E9491228AE023
:1018400090E00E94FC214C01F50164857585868538
:101850009785840122E044E00E94DD21B401C601A5
:10186000E6D8B601C70122D9C701C3D2BC01CE0157
:10187000835D9E4FACD8C7010E94C903C6010E9478
:10188000C903C4010E9491228AE090E00E94FC21D9
:101890004C01F5016489758986899789840122E064
:1018A00044E00E94DD21B401C601C1D8B601C701E0
:1018B000FDD8C7019ED2BC01CE01835D9E4F87D863
:1018C000C7010E94C903C6010E94C903C4010E9446
:1018D00091228AE090E00E94FC214C01F501608990
:1018E000718982899389840122E044E00E94DD218C
:1018F000B401C6019CD8B601C701D8D8C70179D2B6
:10190000BC01CE01835D9E4F62D8C7010E94C9030E
:10191000C6010E94C903C4010E9491228AE090E09E
:101920000E94FC214C01F501608D718D828D938D9B
:10193000840122E044E00E94DD21B401C60177D891
:10194000B601C701B3D8C70154D2BC01CE01835D33
:101950009E4F3DD8C7010E94C903C6010E94C9031A
:10196000C4010E9491228AE090E00E94FC214C0177
:10197000F501648D758D868D978D840122E045E09B
:101980000E94DD21B401C60152D8B601C7018ED82C
:10199000C7012FD2BC01CE01835D9E4F18D8C7016D
:1019A0000E94C903C6010E94C903C4010E9491227A
:1019B0008AE090E00E94FC214C01F50160A171A138
:1019C00082A193A1840122E045E00E94DD21B401BF
:1019D000C6012DD8B601C70169D8C7010AD2BC011A
:1019E000CE01835D9E4F0E94E704C7010E94C90398
:1019F000C6010E94C903C4010E9491228AE090E0BE
:101A00000E94FC214C01F50164A175A186A197A15A
:101A1000840122E045E00E94DD21B401C60107D81F
:101A2000B601C70143D8C701E4D1BC01CE01835D33
:101A30009E4F0E94E704C7010E94C903C6010E948D
:101A4000C903C4010E9491228AE090E00E94FC2117
:101A50004C01F50160A571A582A593A5840122E042
:101A600045E00E94DD21B401C7010E941705B701BE
:101A7000CE01835D9E4F0E94E704C7010E94C90307
:101A8000C4010E949122CF5CDE4F08811981C153AD
:101A9000D1400115110511F4F60112C003361105EC
:101AA00010F003E610E0C35DDE4F68817981CD520E
:101AB000D140A801C6010E94051FF601E00FF11FE9
:101AC0001082CE01835D9E4F0E94C903DF92CF92A8
:101AD0001F921F921F9281E58F9386EA93E09F9356
:101AE0008F93FF92EF920E94141F8C01F701E80F71
:101AF000F91F1082C7010FD10FB6F894DEBF0FBED9
:101B0000CDBF80916004882319F0B801C7019ED22F
:101B100080E0CE5CDE4F0FB6F894DEBF0FBECDBFC7
:101B2000DF91CF911F910F91FF90EF90DF90CF90B9
:101B3000BF90AF909F908F90089590E0FC013197F7
:101B4000E231F10508F04EC08827EE58FF4F8F4F65
:101B50000C94F51C809180008F7703C080918000E9
:101B60008F7D80938000089580918000877FF9CFDA
:101B700084B58F7702C084B58F7D84BD0895809130
:101B8000B0008F7703C08091B0008F7D8093B0004C
:101B90000895809190008F7707C0809190008F7D8D
:101BA00003C080919000877F80939000089580917A
:101BB000A0008F7707C08091A0008F7D03C0809127
:101BC000A000877F8093A0000895809120018F77E7
:101BD00007C0809120018F7D03C080912001877F05
:101BE000809320010895CF92DF92EF92FF921F938E
:101BF000CF93DF93EC01A9D98823B1F18F818B308A
:101C000029F090F18551823040F02EC06A8170E059
:101C100080E090E00E94B7252BC01A81612F6F777A
:101C200070E080E090E00E94B92520E030E040E8DC
:101C300053E40E9418266B017C018B81682F70E0B1
:101C400080E090E00E94B9259B01AC01C701B6017C
:101C50000E94FE1C20E030E040E251E40E94691D39
:101C600017FF06C0905804C060E070E080EC9FE76A
:101C7000DF91CF911F91FF90EF90DF90CF9008956B
:101C8000E82FF0E0EE0FFF1FED5FFD4F71836083E3
:101C900090E088309105F0F5FC018827EC57FF4F64
:101CA0008F4F0C94F51C80916900836080936900CC
:101CB000E89A0895809169008C6080936900E99AA0
:101CC000089580916900806380936900EA9A08957D
:101CD00080916900806C80936900EB9A08958091EF
:101CE0006A00836080936A00EC9A089580916A008C
:101CF0008C6080936A00ED9A089580916A008063F9
:101D000080936A00EE9A089580916A00806C8093B7
:101D10006A00EF9A0895CF93DF93BC0189E495E0C0
:101D20005BD8EC016FEA73E089E495E055D88C0F3D
:101D30009D1FDF91CF910895382F2091AB04909192
:101D4000AA04213208F049C0809187048111FCCF98
:101D500042E040938704309386043FEF309385043C
:101D60001092840420938304AAE8B4E043E654E08C
:101D7000FA013E2F341B321718F43D913193F9CFFD
:101D80001092620420916204990F922B9093620446
:101D900090916104913061F4109261049091620419
:101DA0009093BB009091BC0093FDF8CF95EC01C0DF
:101DB00095EE9093BC00909187049230E1F390915E
:101DC00085049F3F79F080918504803241F08091B5
:101DD0008504803331F084E005C081E003C082E0F7
:101DE00001C083E0109289041092AB041092880421
:101DF00008950F931F93CF93DF93EC010C811D8106
:101E00000F5F1F4FB8010E94C004288139818823C9
:101E100059F08C819D8160E573E0820F931F0E94D1
:101E2000FE1E1D830C830CC02115310519F0C9015C
:101E30000E949122198218821D821C821B821A82A2
:101E4000CE01DF91CF911F910F910895FC01A089E0
:101E5000B18982E08C93A485B5851C92A685B7854F
:101E600080E18C93108EA489B58986E08C93A28939
:101E7000B3898C9180618C93A289B3898C9188609D
:101E80008C93A289B3898C9180688C930288F389A2
:101E9000E02D80818F7D808308950F931F93E7D17C
:101EA00060935105709352058093530590935405A8
:101EB000E0914905F0914A050084F185E02D89E41F
:101EC00095E0199597FF1EC0D2D100915105109150
:101ED00052052091530530915405DC01CB01801B44
:101EE000910BA20BB30B00914D0510914E05209163
:101EF0004F053091500580179107A207B307C0F234
:101F00008FEF9FEF1F910F910895CF93DF93282FAD
:101F100030E0F901EE50FE4F8491F901E455FE4F97
:101F2000D491F901EA59FE4FC491CC2389F0811173
:101F300004DEEC2FF0E0EE0FFF1FE45BFE4FA591F7
:101F4000B491EC91ED2381E090E021F480E002C0B7
:101F500080E090E0DF91CF9108951F93CF93DF93BE
:101F6000282F30E0F901EE50FE4F8491F901E4553D
:101F7000FE4FD491F901EA59FE4FC491CC23C1F030
:101F8000162F8111DADDEC2FF0E0EE0FFF1FEE5C73
:101F9000FE4FA591B4918FB7F894111105C09C9193
:101FA000ED2FE095E92302C0EC91ED2BEC938FBF70
:101FB000DF91CF911F9108958CEA94E00E94B802BE
:101FC000E091BE04F091BF0480818F7E8083E09118
:101FD000BE04F091BF048081877F8083E091BE04BE
:101FE000F091BF0480818F778083E091BE04F091EF
:101FF000BF0480818F7D80838091C6048093C50457
:1020000060E089E0AADF68EB7BE080E090E0F7D059
:1020100061E089E0A2DF62E370E080E090E0EFD071
:102020008CEA94E013DF62E370E080E090E0E7D0B8
:102030008CEA94E00E943302892B29F08CEA94E028
:102040000E941102F5CF109260040895CF92DF92A2
:10205000EF92FF920F931F93CF93DF93CDB7DEB72D
:102060006C018B01EDB6FEB662EB73E089E495E09E
:102070000E94EC06F601E00FF11F10820D5F1F4F6A
:102080008DB79EB7801B910B0FB6F8949EBF0FBE05
:102090008DBF0DB71EB70F5F1F4FDF92CF928DEC34
:1020A00093E09F938F931F930F930E94141F6C01D3
:1020B000F801E80FF91F1082C8012DDEB8018CEA83
:1020C00094E00E94EC068C0164E670E080E090E011
:1020D00096D08CEA94E00E94B8020F900F900F9077
:1020E0000F900F900F900C151D0581F064E670E0C5
:1020F00080E090E084D0809108078F5F809308078C
:10210000833068F059DF1092080709C01092080761
:102110000FB6F894FEBE0FBEEDBE81E001C080E0B8
:102120000FB6F894FEBE0FBEEDBEDF91CF911F91AA
:102130000F91FF90EF90DF90CF900895CF93DF93B2
:1021400090E0FC01E455FE4F2491FC01EA59FE4F5A
:102150008491882361F190E0880F991FFC01E85E6B
:10216000FE4FC591D491FC01EE5CFE4FA591B49158
:10217000611109C09FB7F8948881209582238883D4
:10218000EC912E230BC0623061F49FB7F894388134
:10219000822F809583238883EC912E2B2C939FBFD5
:1021A00006C08FB7F894E8812E2B28838FBFDF916C
:1021B000CF9108953FB7F89480910E0790910F0743
:1021C000A0911007B091110726B5A89B05C02F3F1D
:1021D00019F00196A11DB11D3FBFBA2FA92F982F4D
:1021E0008827820F911DA11DB11DBC01CD0142E0C8
:1021F000660F771F881F991F4A95D1F708958F9210
:102200009F92AF92BF92CF92DF92EF92FF926B01BB
:102210007C01D0DF4B015C01C114D104E104F10465
:10222000E9F0C8DFDC01CB0188199909AA09BB09CB
:10223000883E9340A105B10578F321E0C21AD10888
:10224000E108F10888EE880E83E0981EA11CB11CFD
:10225000C114D104E104F10421F7DECFFF90EF9027
:10226000DF90CF90BF90AF909F908F9008952FB741
:10227000F89460910A0770910B0780910C07909178
:102280000D072FBF08951F920F920FB60F921124C2
:102290002F933F938F939F93AF93BF9380910A07A0
:1022A00090910B07A0910C07B0910D073091090791
:1022B00023E0230F2D3720F40196A11DB11D05C089
:1022C00026E8230F0296A11DB11D209309078093D4
:1022D0000A0790930B07A0930C07B0930D0780910A
:1022E0000E0790910F07A0911007B091110701966A
:1022F000A11DB11D80930E0790930F07A0931007A7
:10230000B0931107BF91AF919F918F913F912F9102
:102310000F900FBE0F901F901895CF93DF93CDB7FE
:10232000DEB7C357D1090FB6F894DEBF0FBECDBFDD
:10233000789484B5826084BD84B5816084BD85B5A0
:10234000826085BD85B5816085BD80916E008160AC
:1023500080936E0010928100809181008260809352
:102360008100809181008160809381008091800054
:102370008160809380008091B10084608093B1007F
:102380008091B00081608093B00080919100826064
:102390008093910080919100816080939100809161
:1023A00090008160809390008091A1008260809372
:1023B000A1008091A10081608093A1008091A00084
:1023C00081608093A000809121018260809321012F
:1023D00080912101816080932101809120018160A1
:1023E0008093200180917A00846080937A008091AC
:1023F0007A00826080937A0080917A008160809375
:102400007A0080917A00806880937A001092C100EF
:10241000E9EFF5E0119226E0E83FF207D9F71092D4
:10242000F8068091FA068093F9061092FA06109247
:10243000FB0689E495E00ADD61E089E07FDEBCDD32
:102440008CE290E00E94FC218C018EE090E00E94E2
:10245000FC21FC0187E0868385E1D82ED78296E0B7
:10246000E92EE086FF24F394F586D801ED93FC93E2
:102470008EE090E00E94FC21FC018AE08683D782F6
:10248000E086F586D8011396FC93EE93129783E1CC
:1024900090E00E94FC21DC0188E01A968C931A9748
:1024A000EEE6F1E024911B962C931B97E4EBF1E010
:1024B000E4911C96EC931C9730E0220F331FF90136
:1024C000EE5CFE4F859194911E969C938E931D9782
:1024D000F901E45BFE4F8591949150969C938E9305
:1024E0001F97F901E85EFE4F8591949152969C9357
:1024F0008E9351978FEF18968C93189719961C927C
:10250000199717961C92179716961C921697159660
:102510001C92159714961C92149713961C9213975D
:1025200012961C92129711961C9211971C92F80108
:10253000B583A4838EE190E00E94FC217C0182E1BE
:1025400090E0D70111969C938E9382E090E01396D1
:102550009C938E93129785E090E015969C938E93B2
:10256000149717961C921E92169786E390E0199680
:102570009C938E9318971B961C921E921A971092FA
:10258000D6031092D7031092D8031092D903109259
:10259000FC031092FD031092FE031092FF03F7015B
:1025A000168A178A108E118E5A961D921D921D92B0
:1025B0001C925D971092D2031092D3031092D40311
:1025C0001092D5038FEF9FEFDC018093000490936E
:1025D0000104A0930204B093030480E090E0A0EA19
:1025E000B0E484879587A687B787118A108AE2DDD1
:1025F000D70152966D937D938D939C93559760E090
:1026000082E19CDD61E082E1A8DC60E082E096DDB1
:1026100061E082E0A2DCF7018481883018F467E48D
:1026200074E02EDBD70116968C91883018F46EEC8E
:1026300073E026DBF70182859385019729F51092D7
:10264000DB031092DA03109289041092AB0410920B
:10265000870481E0809386041092610461E084E144
:102660007CDC61E085E179DC8091B9008E7F80932C
:10267000B9008091B9008D7F8093B90088E4809380
:10268000B80085E48093BC00D8011796FC92EE92C6
:102690001697F80110861186128613861C961D92D5
:1026A0001D921D921C921F97108A118A128A138AFA
:1026B00058961D921D921D921C925B97148A158A42
:1026C000168A178A5C961D921D921D921C925F9726
:1026D00010A211A212A213A294961D921D921D92F5
:1026E0001C92979710A611A612A613A6E080F1805F
:1026F00060E0D70116968C9121DD61E0F7018681BB
:102700002CDCD70119961D921D921D921C921C97CC
:10271000F801E280F38060E0D70116968C910EDD1F
:1027200061E0F701868119DCD70119961D921D928F
:102730001D921C921C97D8011696ED91FC9117974B
:1027400080E090E0A0EAB0E484879587A687B78709
:1027500081E090E0918B808B10930504009304043A
:102760000E94490B84DD60930B0470930C048093EA
:102770000D0490930E04FF24F3946E01B3E3CB0E8B
:10278000D11CEF2DEC19E096EFAFE09780910A0491
:10279000882331F16CDD009106041091070420912B
:1027A000080430910904DC01CB01801B910BA20BC2
:1027B000B30B81329E44A105B105C0F1FDDB10923F
:1027C0000A0461E070E080E090E019DD50DD609384
:1027D000060470930704809308049093090426C0AC
:1027E00046DD009106041091070420910804309101
:1027F0000904DC01CB01801B910BA20BB30B813CC4
:102800009742A940B10590F00E94CA0A61E070E0C9
:1028100080E090E0F4DC2BDD609306047093070405
:102820008093080490930904F0920A0489E495E0E7
:102830000E943302892B09F461C02FDBFC0197FD54
:102840005DC08D32910571F0C0970A9758F0E09104
:102850004905F0914A050680F781E02D89E495E06D
:102860001995EBCF20E030E0A90110E0E130F1054F
:1028700009F076C7E0914905F0914A050680F78195
:10288000E02D89E495E0E1962FAFE197E2963FAF26
:10289000E297E3964FAFE397E4965FAFE49719951D
:1028A000FCDAFC01C097E1962FADE197E2963FADCF
:1028B000E297E3964FADE397E4965FADE4970A970E
:1028C000A8F2E130F10591F2112309F468C78827D5
:1028D0009927DC01821B930BA40BB50B8B3591055B
:1028E000A105B10509F485C70CF064C781309105D5
:1028F000A105B10509F056C70E94090BBEE3AB2E36
:10290000B3E0BB2E8CEA94E00E943302892B09F4D9
:10291000A5C08CEA94E00E941102E091FB06EC3F16
:1029200018F0F092FA0694C0882331F08E3321F02B
:102930008D3011F08A30A9F58091F906882309F4C9
:1029400087C08091F806811139C51092FA06F0927D
:10295000F8061092F9068091F7059091F805019715
:10296000C9F4AE2FB0E0A950BA4F8EE312968C9303
:10297000A1E0AE0FB0E0A950BA4F8DE012968C9353
:1029800083E08E0F8093FB06EE5FF0E0E950FA4F94
:102990008AE08283E091FB06F0E0E950FA4F128270
:1029A0000DC58C3379F41092FA06F092F906109264
:1029B000F8062091F7053091F8052130310509F02E
:1029C00047C005C09091F906992309F441C091E0F0
:1029D0009E0F9093FB06F0E0E950FA4F828338C0D7
:1029E000222309F411C5213009F404C5223009F06D
:1029F0000BC5F601E0961FADE0971E0FDC01A95054
:102A0000BA4F12962C91219301968417950794F34F
:102A1000E5E6F0E0EC0FFD1FE30FF11D108211233E
:102A200021F0F601E10FF11D10823111F1C4E9EF3F
:102A3000F5E01192B6E0E83FFB07D9F71092F806EF
:102A40008091FA068093F9061092FA061092FB061E
:102A500061E070E080E090E0D2DB54CF00910404AC
:102A60001091050404DC4090FC065090FD06609037
:102A7000FE067090FF069B01AC012419350946093A
:102A8000570929013A0130E3431635E7530661043B
:102A9000710408F46BC46093FC067093FD06809388
:102AA000FE069093FF06E3DB40900007509001077D
:102AB0006090020770900307DC01CB01841995092F
:102AC000A609B709803D9740A105B10548F1D80195
:102AD0008D919C9188D8F801648775878687978740
:102AE000808191810E944608D80150966D937D9314
:102AF0008D939C93539712968D919C91139773D8B5
:102B0000F801648B758B868B978B828193810E94F1
:102B10004608D80158966D937D938D939C935B974F
:102B2000F801A480B580D50119968C91811104C556
:102B3000C5010E945B09882309F4FEC440E060EFF0
:102B4000C5010E94F308612C712CEE24E394332418
:102B50003A9444244394512CC5010E948B08682F59
:102B6000C501E1966FAFE1970E948B08962D96956F
:102B700096959695262D2770D20101C0AA0F2A9509
:102B8000EAF7E1966FADE197662319F0882311F11A
:102B9000D3C4292F30E0811123C0F5014085042ED4
:102BA000000C550B6416750611F430860EC0F50145
:102BB0006416750634F4E20FF31F80818A2329F42A
:102BC00002C0608680E0E12C01C081E0362C8823C1
:102BD00039F061E0F501E90FF11D8081A82B06C0F5
:102BE000F501E20FF31FA0958081A823A083C50102
:102BF0000E94B208FFEF6F1A7F0A20E46216710488
:102C000009F0AACFEE2019F0D5011996FC92D60151
:102C1000A6019C2D88E08C0DF50121915F01FA0140
:102C20002193AF018E13F8CFE0E0995F8D91E827F3
:102C3000F0E0E75EFD4FE0819A13F8CF8AADE81728
:102C400021F086E593E067D887C48BA9803149F0ED
:102C5000883239F068E673E089E495E00E94EC067A
:102C60007BC4D80114968D919C9115970E945B09A5
:102C7000B601F801848195810E94300941E064E445
:102C8000D80114968D919C9115970E94F308F80134
:102C9000848195810E945B09B601D80114968D91BB
:102CA0009C9115970E94300940E06EEBF8018481F9
:102CB00095810E94F3089E012F5F3F4F59012E011D
:102CC0003AE0430E511CD80114962D903C90159774
:102CD000F8E06F2E712C99249394E12CC1010E948D
:102CE0008B088111E928990CB1E06B1A7108B1F7D2
:102CF000F501E1925F01E415F50529F7D801149675
:102D0000ED91FC9115978FEF8087118617821682BF
:102D10001582148213821282118210826A8170E0FD
:102D2000762F66278981682B072E000C880B990B5C
:102D30000E94B92520E030E040E85DE30E941826BB
:102D4000F801608771878287938791DA2B013C01B4
:102D50008091040790910507A0910607B09107079D
:102D6000A3019201281B390B4A0B5B0BDA01C90145
:102D700080369A4EA105B10580F16091D60370911D
:102D8000D7038091D8039091D9030E94B92524E8F4
:102D90003DE04FE85EE30E94182620E030E040E08E
:102DA0005FE30E9418261092D6031092D703109268
:102DB000D8031092D903D8015C966D937D938D93BF
:102DC0009C935F9740920407509205076092060714
:102DD000709207071092000231C080910002882390
:102DE00069F16091D6037091D7038091D8039091D7
:102DF000D9030E94B92524E83DE04FE85EE30E9434
:102E0000182620E030E040E05FE30E9418269B0196
:102E1000AC011092D6031092D7031092D8031092EF
:102E2000D903F801648D758D868D978DE7D5D8010E
:102E30005C966D937D938D939C935F97F801A6802C
:102E4000B780D5011A968D919C911B97019709F037
:102E5000A8C06090E9057090EA05B3E86B2AB1ED6F
:102E60007B2A8091E605F09288048093AA04109250
:102E700089041092AB0461E08BEE95E00E94990307
:102E8000672D8BEE95E00E949903662D8BEE95E001
:102E90000E94990381E00E949C0E6091E70570E01A
:102EA00080E090E0ACD9E090E605F0928804E092F2
:102EB000AA04109289041092AB0460E08BEE95E0B6
:102EC0000E94990381E00E949C0E809187048111E9
:102ED000FCCFF0928704F09286048FEF80938504F4
:102EE00010928404F0928304F09262048091620450
:102EF000EE0CE82AE092620480916104813061F472
:102F000010926104809162048093BB008091BC00A8
:102F100083FDF8CF85EC01C085EE8093BC008091E5
:102F200087048130E1F380918404823018F4809129
:102F3000840401C082E0A3E6B4E02CED33E0F901A3
:102F40009E2F921B981718F49D919193F9CF109290
:102F5000DB038093DA038BEE95E00E941C03E82EDE
:102F60008BEE95E00E941C03AB96EFAEAB97AA9652
:102F70001FAEAA97AB966EAD7FADAB97682B009056
:102F8000E80502C0769567950A94E2F7072E000CD3
:102F9000880B990B0E94B92526EA3BE944E45BE3E0
:102FA0002FC0F5018085863308F0865390917B0011
:102FB000282F2870977F922B90937B0087708064D6
:102FC00080937C0080917A00806480937A00809165
:102FD0007A0086FDFCCF609178008091790070E0E6
:102FE000782B072E000C880B990B0E94B92520E046
:102FF00030EC4FE754E46DD520E030E040EA50E497
:103000000E9418262B013C01D5015A968D909D9067
:10301000AD90BC905D9724ED38E749E650E4F9D5D2
:10302000181674F424E236E041E850E4C301B2011A
:103030000E94B32587FF04C0812C912C5401A7C0A6
:103040002CE934EC40EF5FE3C301B201E2D518167E
:103050000CF48CC22DEC3CEC48E050E4C301B2010E
:10306000D8D518160CF493C22BE83CE647EC5EE387
:10307000C301B201CED518160CF49AC227E431EE82
:103080004AED5EE3C301B201C4D518160CF4A1C227
:1030900023EE35EA4BE95EE3C301B201BAD5181657
:1030A0000CF4A8C227E431EE4AE55FE3C301B201A4
:1030B000B0D518160CF4AFC224EB38EC46E15FE350
:1030C000C301B201A6D518160CF4B6C220E73DE341
:1030D0004AEA5FE3C301B2019CD518160CF4BEC2E4
:1030E0002AE334EB40E95FE3C301B20192D518163D
:1030F0000CF4C5C225E933E44BE350E4C301B2014B
:1031000088D518160CF4CDC22DED34E242E350E41C
:10311000C301B2017ED518160CF4D4C220EB32E7FD
:103120004CE850E4C301B20174D518160CF4DCC2AB
:103130002AEC31EA45E750E4C301B2016AD518161A
:103140000CF4E3C22EE93FEE43E850E4C301B201C0
:1031500060D518160CF4EBC224E43BE840E550E4DB
:10316000C301B20156D518160CF0F3C229EF3EE7A1
:1031700046E650E4C301B2010E94B32587FFE9C2CD
:10318000812C50EC952E58EAA52E53E4B52EF8016B
:1031900084A295A2A6A2B7A2A680B780D501509618
:1031A0008D919C915197892B09F071C020E034E2F8
:1031B00044E759E41C966D917D918D919C911F97E8
:1031C0000E941826F7D42B013C010E94DA10F50169
:1031D0002289338944895589DC01CB01821B930BF9
:1031E000A40BB50B84159505A605B70508F47DC09D
:1031F0000E94DA102B013C016091FC037091FD03E9
:103200008091FE039091FF030E94B925AF966CAFA9
:103210007DAF8EAF9FAFAF97F50182899389A48967
:10322000B589A3019201281B390B4A0B5B0BCA011C
:10323000B9010E94B7259B01AC01AF966CAD7DAD85
:103240008EAD9FADAF9745D42AE939E949E150E405
:103250000E94182620E034E244E759E40E94182630
:10326000D50156966D937D938D939C9359971092AB
:10327000FC031092FD031092FE031092FF030E94C4
:10328000DA10F501628B738B848B958B2EC01092B4
:10329000FC031092FD031092FE031092FF0320E046
:1032A00030E04AE754E4D5011C966D917D918D91F3
:1032B0009C911F970E9418267DD40E94FF10F50153
:1032C000248535854685578560E070E0CB0101D4C3
:1032D0002AE939E949E150E40E941826D5015696B9
:1032E0006D937D938D939C935997F501868997896A
:1032F000A08DB18DF80180A391A3A2A3B3A3609187
:10330000000470910104809102049091030444240C
:103310004A94542C3201409200045092010460926D
:103320000204709203040E94B72520E034E244E7CF
:1033300059E4CFD39B01AC0160E070E080E89FE3EB
:10334000C8D32AE939E949E150E40E94182620E06F
:1033500030E040E05FE30E941826D80198966D9314
:103360007D938D939C939B970E94D50B0E94371160
:1033700000910B0410910C0420910D0430910E0467
:10338000005C11482A4F3F4F0617170728073907D7
:1033900060F40E94371160930B0470930C048093C7
:1033A0000D0490930E040E94490B62E370E080E0EC
:1033B00090E00E94FF100E94D902E8C94091FB06EC
:1033C000442309F434CB80E090E030E060E020E07A
:1033D00050E084179507D4F4FC01E950FA4F72814C
:1033E0007A3319F42F5F60E00FC0703209F0F8CA29
:1033F0006F5F0AC0611108C0E5E6F0E0EC0FFD1F49
:10340000E30FF11D70833F5F0196E3CF10E000CB27
:10341000CE018B599F4F0E942923813209F477C036
:1034200058F48330E1F0843009F444C0813009F06D
:10343000FECA0E94090BFBCA8C3509F46BC030F43C
:103440008B3509F0F4CA0E94DC0FF1CA823609F408
:1034500070C0833609F0EBCA10920A04E8CA1F92C2
:10346000FF921F921F921F928F93BF92AF9241E0E3
:1034700050E04C0F5D1F5F934F93D6D48C01E1E079
:10348000F0E0EC0FFD1FE80FF91F1082CE0101964E
:103490000E948B0E0FB6F894DEBF0FBECDBF809199
:1034A0006004882309F4C3CAB801CE0101960E94C2
:1034B0002610BDCA67E473E089E495E00E94EC063B
:1034C000212F30E040E050E019A28E010F5D1F4F28
:1034D000CA01B9012AE030E040E050E064D2605D0A
:1034E000D8016E938D01211531054105510581F7F4
:1034F000BD0189E495E00E94EC0662E573E089E491
:1035000095E00E94EC06C6010E948B0E90CA0E94B4
:10351000490B8DCAF092600410920A040E94371180
:103520006093060470930704809308049093090441
:103530007ECA0E94CA0A7BCAD8011496ED91FC91FA
:1035400015978FEF80871186178216821582148255
:10355000138212821182108280E090E0AAE7B4EC1C
:10356000F80180879187A287B387EFCB26E53EE0FD
:1035700045E050E4C301B2010E94B32587FF6ACD44
:10358000812C912C44EBA42E41E4B42E00CE23E3F5
:1035900033E347E150E4C301B2010E94B32587FF42
:1035A00063CD812C912C34E3A32E32E4B32EEFCDE6
:1035B0002EE73AE64CED5EE3C301B2010E94B3256B
:1035C00087FF5CCD812C912C27E8A22E22E4B22E1D
:1035D000DECD24E83BEE41EF5EE3C301B2010E9481
:1035E000B32587FF55CD812C912C94EBA92E92E425
:1035F000B92ECDCD20E338E04CEA5EE3C301B20141
:103600000E94B32587FF4ECD812C912C81EEA82EF0
:1036100082E4B82EBCCD24E83BEE41E75FE3C30172
:10362000B2010E94B32587FF47CD812C912CB7E0D2
:10363000AB2EB3E4BB2EABCD2FEE37EA46E25FE311
:10364000C301B2010E94B32587FF40CD812CA0E8C1
:103650009A2EADE1AA2EA3E4BA2E99CD25EF38E239
:103660004CEB5FE3C301B2010E94B32587FF38CD65
:10367000812C912CF4E3AF2EF3E4BF2E88CD2EE9FC
:103680003FEE4FE95FE3C301B2010E94B32587FF1C
:1036900031CD812CE0E89E2EEAE4AE2EE3E4BE2E8E
:1036A00076CD2AED39EF4EE450E4C301B2010E9419
:1036B000B32587FF29CD812C912C71E6A72E73E4C9
:1036C000B72E65CD20E635EE44E450E4C301B201E7
:1036D0000E94B32587FF22CD812C60E8962E67E7F4
:1036E000A62E63E4B62E53CD24E63BE34BE950E42B
:1036F000C301B2010E94B32587FF1ACD812C912C02
:1037000057E8A52E53E4B52E42CD26E73EEB47E819
:1037100050E4C301B2010E94B32587FF13CD812C71
:1037200040E4942E42E9A42E43E4B42E30CD22EF9F
:1037300032ED41E950E4C301B2010E94B32587FF95
:103740000BCD812C30E8932E3DE9A32E33E4B32E2C
:103750001ECD61E873E089E495E00E94EC0617CD88
:10376000ED32F105D1F0CF01C0970A9708F082C879
:10377000AAE0B0E00E94CC264F01FF0FAA08BB08C8
:10378000DC01CB01880D991DAA1DBB1D9C01AD015B
:1037900020533109410951096DC811E06BC8DA01A4
:1037A000C9019CC88197A105B10509F0A7C80E946D
:1037B000490BA4C882369105A105B105E9F083360D
:1037C0009105A105B105D9F08C359105A105B1058B
:1037D00009F094C8F092600410920A040E94371114
:1037E000609306047093070480930804909309047F
:1037F00085C80E94DC0F82C80E94CA0A7FC8109246
:103800000A047CC81092AF041092AE0488EE93E0D4
:10381000A0E0B0E08093B0049093B104A093B20410
:10382000B093B30422E233E03093AD042093AC04B0
:1038300045ED50E05093B9044093B80444ED50E096
:103840005093BB044093BA0440ED50E05093BD0444
:103850004093BC0441ED50E05093BF044093BE043C
:1038600042ED50E05093C1044093C00446ED50E057
:103870005093C3044093C2041092C5041092C6042E
:103880001092C7041092C80410924C0510924B0578
:1038900080934D0590934E05A0934F05B09350052E
:1038A00030934A052093490525EC30E030935605C6
:1038B0002093550524EC30E03093580520935705AC
:1038C00020EC30E030935A052093590521EC30E08C
:1038D00030935C0520935B0522EC30E030935E056D
:1038E00020935D0526EC30E03093600520935F0562
:1038F000109262051092630510926405109265059E
:1039000028E42093E60521E02093E70524E02093B6
:10391000E8051092EA051092E9051092EE05109262
:10392000ED058093EF059093F005A093F105B0931A
:10393000F20582E393E09093EC058093EB05E9EFC9
:10394000F5E0119286E0E83FF807D9F71092F80603
:103950008091FA068093F9061092FA061092FB06FF
:103960001092F8051092F7050E9437116093040732
:103970007093050780930607909307070E943711FD
:1039800060930007709301078093020790930307E9
:103990000E9437116093FC067093FD068093FE062B
:1039A0009093FF060895A1E21A2EAA1BBB1BFD01EE
:1039B0000DC0AA1FBB1FEE1FFF1FA217B307E4070E
:1039C000F50720F0A21BB30BE40BF50B661F771F66
:1039D000881F991F1A9469F7609570958095909546
:1039E0009B01AC01BD01CF010895EE0FFF1F881FA1
:1039F0008BBF0790F691E02D19945058BB27AA274A
:103A000013D00C9492260E94842638F00E948B26B4
:103A100020F039F49F3F19F426F40C9481260EF41B
:103A2000E095E7FB0C947B26E92F0E94A32658F330
:103A3000BA17620773078407950720F079F4A6F593
:103A40000C94C5260EF4E0950B2EBA2FA02D0B0179
:103A5000B90190010C01CA01A0011124FF27591BD3
:103A600099F0593F50F4503E68F11A16F040A22FD9
:103A7000232F342F4427585FF3CF4695379527954A
:103A8000A795F0405395C9F77EF41F16BA0B620B49
:103A9000730B840BBAF09150A1F0FF0FBB1F661F90
:103AA000771F881FC2F70EC0BA0F621F731F841FD3
:103AB00048F4879577956795B795F7959E3F08F0F9
:103AC000B0CF9395880F08F09927EE0F97958795BB
:103AD000089512D00C9492260E948B2658F00E94D2
:103AE000842640F029F45F3F29F00C947B26511185
:103AF0000C94C6260C9481260E94A32668F3992371
:103B0000B1F3552391F3951B550BBB27AA276217D9
:103B10007307840738F09F5F5F4F220F331F441FE6
:103B2000AA1FA9F335D00E2E3AF0E0E832D091501A
:103B30005040E695001CCAF72BD0FE2F29D0660F07
:103B4000771F881FBB1F261737074807AB07B0E84A
:103B500009F0BB0B802DBF01FF2793585F4F3AF050
:103B60009E3F510578F00C947B260C94C6265F3F4F
:103B7000E4F3983ED4F3869577956795B795F795D6
:103B80009F5FC9F7880F911D9695879597F90895BE
:103B9000E1E0660F771F881FBB1F6217730784075A
:103BA000BA0720F0621B730B840BBA0BEE1F88F769
:103BB000E09508950E94AB2688F09F5798F0B92FA2
:103BC0009927B751B0F0E1F0660F771F881F991F52
:103BD0001AF0BA95C9F714C0B13091F00E94C52609
:103BE000B1E008950C94C526672F782F8827B85F19
:103BF00039F0B93FCCF3869577956795B395D9F7AA
:103C00003EF490958095709561957F4F8F4F9F4FB3
:103C10000895EAD708F48FEF08956F927F928F92FC
:103C20009F92AF92BF92CF92DF92EF92FF920F934B
:103C30001F93CF93DF93EC01009781F4CB01DF91C9
:103C4000CF911F910F91FF90EF90DF90CF90BF9099
:103C5000AF909F908F907F906F90CEC3FC01E60F46
:103C6000F71F9C0122503109E217F30708F4A8C09E
:103C7000D9010D911C91119706171707A8F005306F
:103C8000110508F49BC0C80104978617970708F42C
:103C900095C002501109061B170B019311936D93E8
:103CA0007C93CF013ED48AC05B01A01AB10A4C01BB
:103CB000800E911EA0911407B091150740E050E0CE
:103CC000E12CF12C109709F44AC0A815B905D1F5DB
:103CD0006D907C901197630182E0C80ED11CCA14CC
:103CE000DB0480F1A3014A195B096A0182E0C80E76
:103CF000D11C1296BC9012971396AC91B5E0CB16DE
:103D0000D10440F0B282A38351834083D9016D93E3
:103D10007C930AC00E5F1F4FC301800F911FF901F2
:103D200091838083EB2DFA2FE114F10431F0D70158
:103D30001396FC93EE93129741C0F0931507E0930E
:103D400014073CC08D919C9111974817590708F4AE
:103D5000AC017D0112960D90BC91A02DB3CF809146
:103D600012079091130788159905E1F44617570734
:103D7000C8F48091130290911402009741F48DB71A
:103D80009EB74091170250911802841B950BE817BB
:103D9000F907B0F4F0931307E0931207F901718368
:103DA00060830CC0CB0128D37C01009749F0A801A7
:103DB000BE011BD0CE01B5D3C70104C0CE0102C0E5
:103DC00080E090E0DF91CF911F910F91FF90EF90F5
:103DD000DF90CF90BF90AF909F908F907F906F902B
:103DE000089581E090E0F894F0C7FB01DC0102C087
:103DF00001900D9241505040D8F70895FB01DC012D
:103E000001900D920020E1F70895FB01DC01415083
:103E1000504048F001900D920020C9F701C01D925A
:103E200041505040E0F708950F931F93CF93DF93D5
:103E3000CDB7DEB72E970FB6F894DEBF0FBECDBF5D
:103E40000E891F8986E08C831A8309838FEF9FE791
:103E50009E838D83AE01465E5F4F688D798DCE0166
:103E6000019611D02F813885F801E20FF31F1082DF
:103E70002E960FB6F894DEBF0FBECDBFDF91CF9167
:103E80001F910F9108952F923F924F925F926F92E0
:103E90007F928F929F92AF92BF92CF92DF92EF92DA
:103EA000FF920F931F93CF93DF93CDB7DEB72C977D
:103EB0000FB6F894DEBF0FBECDBF7C016B018A0147
:103EC000FC0117821682838181FFB0C1CE01019669
:103ED0004C01F7019381F60193FD859193FF819148
:103EE0006F01882309F49EC1853239F493FD8591D1
:103EF00093FF81916F01853221F4B70190E0C7D122
:103F0000E8CF512C312C20E02032A0F48B3269F024
:103F100030F4803259F0833269F420612CC08D3244
:103F200039F0803339F4216026C02260246023C038
:103F3000286021C027FD27C030ED380F3A3078F4D3
:103F400026FF06C0FAE05F9E300D1124532E13C0E9
:103F50008AE0389E300D1124332E20620CC08E3240
:103F600021F426FD5FC1206406C08C3611F4206860
:103F700002C0883641F4F60193FD859193FF81914B
:103F80006F018111C1CF982F9F7D9554933028F4F4
:103F90000C5F1F4FFFE3F9830DC0833631F0833789
:103FA00071F0833509F057C021C0F8018081898301
:103FB0000E5F1F4F44244394512C540114C0380108
:103FC000F2E06F0E711CF801A080B18026FF03C0E3
:103FD000652D70E002C06FEF7FEFC5012C874CD1DB
:103FE0002C0183012C852F77222E16C03801F2E098
:103FF0006F0E711CF801A080B18026FF03C0652DF3
:1040000070E002C06FEF7FEFC5012C872AD12C0131
:104010002C852068222E830123FC19C0832D90E07B
:1040200048165906A0F4B70180E290E030D13A94E6
:10403000F5CFF50127FC859127FE81915F01B7013E
:1040400090E025D131103A94F1E04F1A5108411413
:10405000510479F7DEC0843611F0893631F5F80164
:1040600027FF07C060817181828193810C5F1F4FA0
:1040700008C060817181072E000C880B990B0E5FC0
:104080001F4F2F76722E97FF09C0909580957095DF
:1040900061957F4F8F4F9F4F2068722E2AE030E04E
:1040A000A4012DD1A82EA81843C0853729F42F7E4E
:1040B000B22E2AE030E025C0F22FF97FBF2E8F36D6
:1040C000C1F018F4883579F0ADC0803719F0883721
:1040D00021F0A8C02F2F2061B22EB4FE0DC08B2D71
:1040E0008460B82E09C024FF0AC09F2F9660B92EA5
:1040F00006C028E030E005C020E130E002C020E149
:1041000032E0F801B7FE07C060817181828193813E
:104110000C5F1F4F06C06081718180E090E00E5FF0
:104120001F4FA401ECD0A82EA818FB2DFF777F2EDF
:1041300076FE0BC0372D3E7FA51450F474FE0AC0E6
:1041400072FC08C0372D3E7E05C0BA2C372D03C047
:10415000BA2C01C0B52C34FF0DC0FE01EA0DF11DD3
:104160008081803311F4397E09C032FF06C0B394D8
:10417000B39404C0832F867809F0B39433FD12C042
:1041800030FF06C05A2CB31418F4530C5B18B32C30
:10419000B31460F4B70180E290E03C8778D0B39428
:1041A0003C85F6CFB31410F43B1801C0312C34FF1A
:1041B00011C0B70180E390E03C8769D03C8532FFB5
:1041C00016C031FD03C088E790E002C088E590E0AA
:1041D000B7010CC0832F867851F031FF02C08BE20B
:1041E00001C080E237FD8DE2B70190E050D0A51408
:1041F00030F4B70180E390E04AD05A94F8CFAA9403
:10420000F401EA0DF11D8081B70190E040D0A110CA
:10421000F6CF332009F45DCEB70180E290E037D0CD
:104220003A94F7CFF7018681978102C08FEF9FEF15
:104230002C960FB6F894DEBF0FBECDBFDF91CF91A5
:104240001F910F91FF90EF90DF90CF90BF90AF90B4
:104250009F908F907F906F905F904F903F902F90A6
:104260000895FC010590615070400110D8F78095C9
:1042700090958E0F9F1F0895FC0161507040019032
:104280000110D8F7809590958E0F9F1F08950F937A
:104290001F93CF93DF93FB01238121FD03C08FEF99
:1042A0009FEF28C022FF16C04681578124813581A7
:1042B0004217530744F4A081B1819D012F5F3F4F06
:1042C000318320838C93268137812F5F3F4F378343
:1042D000268310C0EB01092F182F0084F185E02DF3
:1042E0001995892BE1F68E819F8101969F838E839C
:1042F000812F902FDF91CF911F910F910895FA0197
:10430000AA27283051F1203181F1E8946F936E7F14
:104310006E5F7F4F8F4F9F4FAF4FB1E03ED0B4E005
:104320003CD0670F781F891F9A1FA11D680F791F46
:104330008A1F911DA11D6A0F711D811D911DA11D57
:1043400020D009F468943F912AE0269F1124301967
:10435000305D3193DEF6CF010895462F4770405D02
:104360004193B3E00FD0C9F7F6CF462F4F70405DB1
:104370004A3318F0495D31FD4052419302D0A9F70C
:10438000EACFB4E0A6959795879577956795BA9506
:10439000C9F700976105710508959B01AC010A2ECC
:1043A00006945795479537952795BA95C9F7620FA3
:1043B000731F841F951FA01D0895EF920F931F93E5
:1043C000CF93DF93E80147FD02C034E001C034E140
:1043D000E42F440FFF0BF7FF03C0F195E195F109BE
:1043E000E32E022F2E2FAE0159D1CE01DF91CF91B6
:1043F0001F910F91EF900895CF93DF938230910535
:1044000010F482E090E0E0911407F091150720E0AD
:1044100030E0C0E0D0E0309711F140815181481781
:104420005907C0F04817590761F48281938120979A
:1044300019F09B838A832BC09093150780931407F0
:1044400026C02115310519F04217530718F49A01B7
:10445000BE01DF01EF010280F381E02DDCCF2115E9
:10446000310509F1281B390B2430310590F41296DF
:104470008D919C9113976115710521F0FB01938338
:10448000828304C09093150780931407FD01329630
:1044900044C0FD01E20FF31F819391932250310933
:1044A0002D933C933AC02091120730911307232B90
:1044B00041F4209115023091160230931307209396
:1044C000120720911302309114022115310541F495
:1044D0002DB73EB74091170250911802241B350B9F
:1044E000E0911207F0911307E217F307A0F42E1BD7
:1044F0003F0B2817390778F0AC014E5F5F4F241748
:10450000350748F04E0F5F1F509313074093120773
:104510008193919302C0E0E0F0E0CF01DF91CF9171
:1045200008950F931F93CF93DF93009709F48CC0E6
:10453000FC01329713821282009114071091150723
:104540000115110581F420813181820F931F209183
:104550001207309113072817390779F5F0931307DD
:10456000E093120771C0D80140E050E0AE17BF07DA
:1045700050F412962D913C911397AD012115310500
:1045800009F1D901F3CF9D01DA01338322836081E0
:104590007181860F971F8217930769F4EC012881B8
:1045A0003981260F371F2E5F3F4F318320838A8149
:1045B0009B8193838283452B29F4F0931507E09325
:1045C000140742C01396FC93EE931297ED014991A4
:1045D00059919E01240F351FE217F30771F4808172
:1045E0009181840F951F029611969C938E938281E0
:1045F000938113969C938E931297E0E0F0E0D8019C
:1046000012968D919C911397009719F0F8018C01E7
:10461000F6CF8D919C9198012E5F3F4F820F931F93
:1046200020911207309113072817390769F4309742
:1046300029F4109215071092140702C013821282F7
:104640001093130700931207DF91CF911F910F91E1
:104650000895FC0188279927E89421912032E9F3F5
:10466000293010F02E30C8F32B3239F02D3231F4CE
:10467000689403C00BD0820F911D219120532A30E2
:10468000C8F31EF4909581959F4F08957AE0979F07
:10469000902D879F802D910D112408954F925F9248
:1046A0006F927F929F92AF92BF92CF92DF92EF92E2
:1046B000FF920F931F93CF93DF93CDB7DEB7299768
:1046C0000FB6F894DEBF0FBECDBF6A01122FB02E19
:1046D0002BE3201720F0FF24F394F00E02C0BCE37C
:1046E000FB2E0F2D27E0AE014F5F5F4F64D1AC0171
:1046F0008981982F9970913031F0E1FC06C0E0FE7D
:1047000006C090E205C09DE203C09BE201C090E0BC
:10471000EE2DE07183FF3CC0911102C083E001C027
:1047200084E0811718F4212F281B01C020E0E1113B
:104730000BC0F601822F30E2882319F031938150AB
:10474000FBCFC20ED11C20E0992329F0D6019C9307
:10475000F60131966F01C6010396E2FE0AC03EE4FF
:10476000D6013C9341E411964C93119712963C93D9
:1047700006C03EE6F601308341E641833283FC0108
:10478000322F40E2332309F442C041933150FACF33
:1047900082FF44C0911102C083E001C084E0811710
:1047A00018F4212F281B01C020E0E1110BC0F601F5
:1047B000822F30E2882319F031938150FBCFC20E53
:1047C000D11C20E0992329F0D6019C93F601319663
:1047D0006F01C6010396E2FE0BC039E4D6013C939B
:1047E0003EE411963C93119736E412963C9307C031
:1047F00039E6F60130833EE6318336E63283FC014A
:10480000322F40E2332319F041933150FBCFFC01AA
:10481000E20FF11D10828EEF9FEFB7C0F1E0911112
:1048200001C0F0E06F2F70E01416150624F49A0111
:104830002F5F3F4F02C021E030E0260F371FBB2023
:1048400029F06B2D70E06F5F7F4F02C060E070E079
:10485000260F371F612F70E0261737071CF4121B35
:10486000212F01C020E03E2D387159F4D601322F9E
:1048700060E2332319F06D933150FBCFC20ED11C8F
:1048800020E0FF2331F0D6019C93B6016F5F7F4F8C
:104890006B01E1110BC0F601922F30E3992319F05F
:1048A00031939150FBCFC20ED11C20E09F2D940F6D
:1048B0003A81782F7071A72E84FF03C0313309F439
:1048C0009150191624F4993018F098E001C091E045
:1048D000E42F852F57FF02C0E0E080E06E2F782F95
:1048E000E0E0F0E0AEE29A2E3A01691A71082A017E
:1048F000461A570A0B2D10E01195019511096F3FCB
:104900008FEF780729F4D6019C92C60101966C01BD
:104910004617570784F0661677066CF47F01E40C9F
:10492000F51CA1E0B0E0AC0FBD1FEA0EFB1ED701E5
:104930001196BC9002C090E3B92E61507109319676
:10494000C60101967C016017710724F0D601BC9264
:104950006C01D5CF6417750741F4363320F4353335
:1049600021F4A11002C081E3B82EF601B082F70154
:10497000822F90E2882319F091938150FBCFF701A9
:10498000E20FF11D108280E090E029960FB6F894B6
:10499000DEBF0FBECDBFDF91CF911F910F91FF9072
:1049A000EF90DF90CF90BF90AF909F907F906F90EF
:1049B0005F904F900895283008F027E03327DA0100
:1049C000990F311D87FD916000966105710539F4DD
:1049D00032602E5F3D9330E32A95E1F708959F3FC3
:1049E00030F080387105610509F03C5F3C5F3D9314
:1049F000913008F08068911DDF93CF931F930F9340
:104A0000FF92EF92192F987F9695E92F969596959C
:104A1000E90FFF27EE56FD4F99273327EE24FF2499
:104A2000A701E70105900894079428F4360FE71EC4
:104A3000F81E491F511D660F771F881F991F069486
:104A4000A1F70590079428F4E70EF81E491F561F9A
:104A5000C11D770F881F991F661F0694A1F7059047
:104A6000079428F4F80E491F561FC71FD11D880F41
:104A7000991F661F771F0694A1F70590079420F4ED
:104A8000490F561FC71FD81F990F661F771F881F12
:104A90000694A9F784911095177041F0D695C795A3
:104AA00057954795F794E7941A95C1F7E8E3F2E034
:104AB00068941590159135916591959105907FE2D7
:104AC0007395E118F10A430B560BC90BD009C0F7D7
:104AD000E10CF11E431F561FC91FD01D7EF4703319
:104AE00011F48A95E6CFE894015030F0080F0AF4EB
:104AF0000027021708F4202F2395022F7A3328F07D
:104B000079E37D932A95E9F710C07D932A9589F67C
:104B1000069497956795379517951794E118F10ABC
:104B2000430B560BC90BD00998F023957E917395D2
:104B30007A3308F070E37C932013B8F77E917061AC
:104B40007D9330F0839571E37D9370E32A95E1F7CF
:104B50001124EF90FF900F911F91CF91DF91992732
:104B600087FD9095089540D008F481E00895E89479
:104B700009C097FB3EF490958095709561957F4FA5
:104B80008F4F9F4F9923A9F0F92F96E9BB27939553
:104B9000F695879577956795B795F111F8CFFAF463
:104BA000BB0F11F460FF1BC06F5F7F4F8F4F9F4F94
:104BB00016C0882311F096E911C0772321F09EE8F2
:104BC000872F762F05C0662371F096E8862F70E058
:104BD00060E02AF09A95660F771F881FDAF7880F32
:104BE0009695879597F90895990F0008550FAA0B88
:104BF000E0E8FEEF16161706E807F907C0F01216F0
:104C00001306E407F50798F0621B730B840B950BF2
:104C100039F40A2661F0232B242B252B21F4089547
:104C20000A2609F4A140A6958FEF811D811D0895E4
:104C30000BD078C069D028F06ED018F0952309F019
:104C40005AC05FC01124A2C07ED0A0F3959FD1F3BB
:104C5000950F50E0551F629FF001729FBB27F00D2A
:104C6000B11D639FAA27F00DB11DAA1F649F66277F
:104C7000B00DA11D661F829F2227B00DA11D621FCE
:104C8000739FB00DA11D621F839FA00D611D221F88
:104C9000749F3327A00D611D231F849F600D211D6C
:104CA000822F762F6A2F11249F5750408AF0E1F00F
:104CB00088234AF0EE0FFF1FBB1F661F771F881F58
:104CC00091505040A9F79E3F510570F014C05EC04E
:104CD0005F3FECF3983EDCF3869577956795B79543
:104CE000F795E7959F5FC1F7FE2B880F911D96956D
:104CF000879597F9089597F99F6780E870E060E0DD
:104D000008959FEF80EC089500240A941616170664
:104D100018060906089500240A94121613061406AC
:104D200005060895092E0394000C11F4882352F00F
:104D3000BB0F40F4BF2B11F460FF04C06F5F7F4FC7
:104D40008F4F9F4F089557FD9058440F551F59F0AE
:104D50005F3F71F04795880F97FB991F61F09F3F68
:104D600079F087950895121613061406551FF2CF91
:104D70004695F1DF08C0161617061806991FF1CFE1
:104D800086957105610508940895E894BB27662708
:104D90007727CB0197F9089509D0A59F900DB49F6F
:104DA000900DA49F800D911D11240895A29FB00124
:104DB000B39FC001A39F700D811D1124911DB29F4F
:0E4DC000700D811D1124911D0895F894FFCFF0
:104DCE0001007DCC01CC01CC01CC01CC01CC01CCBD
:104DDE0001CC01000016078000005EBCE2613FDDE1
:104DEE0083C29C7E20A3FD1F419DC3217FFCA24058
:104DFE001E5F01E3BD3E6082DC237D9FC1421CFE2F
:104E0E00A0E1BF5D0380DE3C62BEE0025CDF816339
:104E1E003D7C22C09E1D43A1FF4618FAA427799B14
:104E2E00C584DA3866E5BB5907DB856739BAE4060F
:104E3E00581947A5FB7826C49A653BD987045AB8FA
:104E4E00E6A7F91B45C6987A24F8A6441A99C725F1
:104E5E007B3A6486D85B05E7B98CD2306EEDB351E0
:104E6E000F4E10F2AC2F7193CD114FADF3702ECCBF
:104E7E0092D38D6F31B2EC0E50AFF1134DCE9072C6
:104E8E002C6D33D18F0C52B0EE326C8ED0530DEFA1
:104E9E00B1F0AE4C1291CF2D73CA947628ABF517A4
:104EAE00490856B4EA6937D58B5709EBB536688A87
:104EBE00D495CB2977F4AA4816E9B7550B88D63482
:104ECE006A2B7597C94A14F6A8742AC896154BA969
:104EDE00F7B6E80A54D7896B350105373705000058
:104EEE0000007202CD01330211022502B802000049
:104EFE00000099036A0330031C030D030C032564A1
:104F0E002025643A2564004553502044617461287D
:104F1E00200020293A00435243206973206E6F749B
:104F2E002076616C69642100446576696365206949
:104F3E0073206E6F74207265636F676E697A656435
:104F4E0000204641494C2057494E44204449524581
:104F5E004354494F4E200025642025643A25642091
:104F6E0025642025640025642025643A2573000DF0
:104F7E000A0074727920746F2073656E64206F6EF0
:104F8E0020776972656C657373203A20003C257337
:024F9E003E00D3
:00000001FF
